:020000040800F2
:100000002012002089010008013100086530000835
:10001000FD300008A9030008D93B000800000000DB
:10002000000000000000000000000000093100088E
:100030006510000800000000053100086934000860
:10004000A3010008A3010008A3010008A301000800
:10005000A3010008A3010008A3010008A3010008F0
:10006000A3010008A3010008A3010008A3010008E0
:10007000A3010008A3010008A3010008A3010008D0
:10008000A3010008A301000891020008A3010008D1
:10009000A3010008A3010008A3010008A3010008B0
:1000A000A3010008A3010008A3010008A3010008A0
:1000B000A3010008A3010008A3010008A301000890
:1000C000A3010008A3010008A3010008A301000880
:1000D000A3010008A3010008A3010008213A0008B9
:1000E000A3010008A3010008A301000800F002F822
:1000F00000F03AF80AA090E8000C82448344AAF188
:100100000107DA4501D100F02FF8AFF2090EBAE885
:100110000F0013F0010F18BFFB1A43F0010318473B
:10012000744B0000944B0000103A24BF78C878C18B
:10013000FAD8520724BF30C830C144BF04680C60ED
:10014000704700000023002400250026103A28BF35
:1001500078C1FBD8520728BF30C148BF0B60704739
:100160001FB51FBD10B510BD00F058F81146FFF7C0
:10017000F7FF03F00FFE00F076F803B4FFF7F2FF8D
:1001800003BC00F07DF8000009488047094800479B
:10019000FEE7FEE7FEE7FEE7FEE7FEE7FEE7FEE737
:1001A000FEE7FEE704480549054A064B7047000094
:1001B00079340008ED000008200C002020120020F7
:1001C000200E0020200E00204FF0000200B5134644
:1001D00094469646203922BFA0E80C50A0E80C5067
:1001E000B1F12001BFF4F7AF090728BFA0E80C5018
:1001F00048BF0CC05DF804EB890028BF40F8042B11
:1002000008BF704748BF20F8022B11F0804F18BF7D
:1002100000F8012B7047704770477047754600F033
:100220002BF8AE4605006946534620F00700854688
:1002300018B020B5FFF7B6FFBDE820404FF000062C
:100240004FF000074FF000084FF0000BAC46ACE851
:10025000C009ACE8C009ACE8C009ACE8C00921F0AD
:1002600007018D46704710B50446AFF30080204665
:10027000BDE81040FFF781BF004870472000002014
:1002800001491820ABBEFEE72600020070470000BF
:1002900040F20C10C2F2000001F040B9B0B50446C3
:1002A00000688168C90709D0816821F00101816077
:1002B00001F062FC21688968C90701D10020B0BD46
:1002C000054602E08068C007F8D001F055FC411BEC
:1002D00020680329F6D38168C907F3D0A06A40F0EB
:1002E0001000A062E06A40F00100E0620120B0BDB1
:1002F000B0B582B004460020019021688A68D20718
:100300004FD1886840F00100886040F21C00C2F2C2
:10031000000000684DF68361C4F21B31A0FB0101AF
:10032000880C01900198A0B10198013801900198C2
:1003300078B1019801380190019850B101980138C5
:100340000190019828B10198013801900198002886
:10035000EAD101F011FC21688968C9071CD1054662
:1003600003E000BF8068C0071AD101F005FC411B03
:1003700020680329F6D38168C907F3D1A06A40F049
:100380001000A062E06A40F00100E062002084F802
:100390002400012002B0B0BD002002B0B0BD00BFFB
:1003A000002002B0B0BD0000FEE70000F0B583B051
:1003B00040F28806C2F20006707B002800F0FF843D
:1003C000307B0138812800F2F884DFE810F08700E4
:1003D0009D00B100BB00C500CF00D900E300F100D3
:1003E000030119011F015901F6048300F604F60404
:1003F000F604F604F604830083008300F604F60492
:10040000F604F604F604F604F604F604F604F6041C
:10041000F604F604F604F604F604F604F604F6040C
:10042000F604F604F604F604F604F604F604F604FC
:10043000F604F604F604F604F604F604F604F604EC
:10044000F604F604F604F604F604F604F604F604DC
:100450005F01F604F604F604F604F604F604F60466
:10046000F604F604F604F604F604F604F604F604BC
:10047000F604F604F604F604F604F6045803F6044B
:10048000F604F604F604F604F604F604F604F6049C
:10049000F6049501CB01F604F604F604F604F6041E
:1004A000F604F604F604F604F604F604F604F6047C
:1004B000F604F604F604F604F604F604F604F6046C
:1004C000F604F604F604F604F604F604F604F6045C
:1004D000FB0100BF707B00F070BC00BF44F61E45FE
:1004E00044F680470024C0F60005C0F6000700BFB0
:1004F000285D5F28384618BF281903F051F90134E8
:100500005E2CF5D100F059BC707B012840F600400C
:10051000C4F2010040F08E81717B052940F08A8190
:100520004FF48041002201F021FB022063E000BF74
:10053000B069B0F57A7F00F3858101203075032022
:1005400030E000BFB069B0F57A7F00F37D81022012
:100550003075042026E000BFB069B0F57A7F00F363
:1005600075810320307505201CE000BFB069B0F52F
:100570007A7F00F36D8104203075062012E000BF01
:10058000B069B0F57A7F00F36581052030750720EA
:1005900008E000BFB069B0F57A7F00F35D81062006
:1005A00030750820052102F06DFE00F006BC00BF8A
:1005B000707B0338032800F20084DFE810F00500A8
:1005C00053010500530100BFB06820F08000B06007
:1005D000092010E0707B0338032800F2EE83DFE887
:1005E00010F0050047010500470100BFB06820F08A
:1005F0004000B0600A20042102F044FE00F0DDBBA0
:10060000B06840F02000B06000F0D7BB707B0338CA
:10061000032800F2D283DFE810F005003501050061
:10062000350100BFB06840F6B6156FF31400B06036
:10063000C2F2000540F60D2025F8C60F022044F650
:100640001E420DF10A048DF80A00A81CC0F6000233
:1006500021460C2302F024FF9DF80A002022411CB1
:100660002A54C8B244F6B4328DF80A102844C0F6B1
:1006700000022146012302F013FF9DF80A00B0E1B9
:10068000B06840F01000B06097E300BF707B0338A3
:10069000032800F29283DFE810F005002301050033
:1006A000230100BF40F6B615C2F2000540F60D204A
:1006B00025F8C60F022044F61E4201AC8DF8040056
:1006C000A81CC0F600022146422302F0E9FE9DF874
:1006D00004002022411C2A54C8B244F6B4328DF8DA
:1006E00004102844C0F600022146042302F0D8FE7C
:1006F0009DF8040075E100BF707B0338032800F209
:100700005C83DFE810F0050017010500170100BF4A
:1007100040F6B615C2F2000540F60D2025F8C60FCA
:10072000022044F61E420DF106048DF80600A81CB6
:10073000C0F600022146632302F0B2FE9DF80600D7
:100740002022411C2A54C8B244F6B4328DF8061057
:100750002844C0F600022146012302F0A1FE9DF8C4
:1007600006003EE140F6B61CC2F2000C40F60D2039
:1007700044F6B431ACF8C600C0F60001002000BF5A
:100780000A785F2A08BF0130C2B2042A00F2308121
:100790004A785F2A08BF0130C2B2042A00F22A81D7
:1007A0008A785F2A08BF0130C2B2042A00F224818D
:1007B000CA7804315F2A08BF0130C2B2052ADFD3EC
:1007C0001BE100BF707B0338032800F2F682DFE8EC
:1007D00000F003DB03DB00BFB06840F6B61500F0A5
:1007E0004040B060C2F2000540F60D2025F8C60F6B
:1007F000022044F61E4202AC8DF80800A81CC0F688
:1008000000022146822302F04BFE9DF808002022C0
:10081000411C2A54C8B244F6B4328DF8081028445A
:10082000C0F600022146012302F03AFE9DF80800BE
:10083000D7E000BF4FF48041012201F097F9022078
:100840001BE000BF032008E0042006E0052004E0D0
:10085000062002E0072000E00820032102F012FD3C
:10086000ABE200BFB06840F08000B060092004E057
:10087000B06840F04000B0600A20062102F002FD9E
:100880009BE200BFB06840F6B61540F48010B0603F
:10089000C2F2000540F60D2025F8C60F022044F6EE
:1008A0001E420DF10B048DF80B00A81CC0F60002CF
:1008B00021460C2302F0F4FD9DF80B002022411C80
:1008C0002A54C8B244F6B4328DF80B102844C0F64E
:1008D00000022146022302F0E3FD9DF80B0080E0B8
:1008E00040F6B615C2F2000540F60D2025F8C60FF9
:1008F000022044F61E420DF105048DF80500A81CE7
:10090000C0F600022146422302F0CAFD9DF8050010
:100910002022411C2A54C8B244F6B4328DF8051086
:100920002844C0F600022146062302F0B9FD9DF8D6
:10093000050056E040F6B615C2F2000540F60D205F
:1009400025F8C60F022044F61E420DF107048DF86B
:100950000700A81CC0F600022146632302F0A0FD98
:100960009DF807002022411C2A54C8B244F6B43234
:100970008DF807102844C0F600022146022302F039
:100980008FFD9DF807002CE0B06840F6B61540F0EA
:100990000050B060C2F2000540F60D2025F8C60FE9
:1009A000022044F61E420DF109048DF80900A81C2E
:1009B000C0F600022146822302F072FD9DF8090074
:1009C0002022411C2A54C8B244F6B4328DF80910D2
:1009D0002844C0F600022146022302F061FD9DF882
:1009E0000900411C0D222A54C8B20A212954E4E10D
:1009F000013102E0023100E0033111F8025B0CF139
:100A0000C8030524022200BF11F8017C10465F2FA5
:100A100008BF0134E2B2052A1D701DD80A785F2A8A
:100A200008BF0134E5B2052D5F7019D84F785F2FEC
:100A300008BF0134E5B2052D9A7015D88D78DF70A6
:100A40005F2D08BF0134E7B2021D0431062F03F108
:100A50000403D9D3033009E040F0010206E000BFEF
:100A6000821C40F0010001E0C21C02300230D1B211
:100A70000CF1C6020D235354C0B20A211154707BED
:100A80000338032800F29981DFE800F002320232D5
:100A9000B06840F6B61C00F06040B060C2F2000CD6
:100AA00040F60D2044F61E41ACF8C600C0F6000129
:100AB00000200A785F2A08BF0130C2B2572A47D8FF
:100AC0004A785F2A08BF0130C2B2572A42D88A78D2
:100AD0005F2A08BF0130C2B2572A3DD8CA78043114
:100AE0005F2A08BF0130C2B2582AE2D335E000BF06
:100AF000B06840F6B61C40F08050B060C2F2000C06
:100B000040F60D2044F61E41ACF8C600C0F60001C8
:100B100000200A785F2A08BF0130C2B2572A4BD89A
:100B20004A785F2A08BF0130C2B2572A46D88A786D
:100B30005F2A08BF0130C2B2572A41D8CA780431AF
:100B40005F2A08BF0130C2B2582AE2D339E000BFA1
:100B5000013102E0023100E0033111F8025B0CF1D7
:100B6000C8035824022211F8017C10465F2F08BFE9
:100B70000134E2B2582A1D7052D80A785F2A08BFA1
:100B80000134E5B2582D5F704ED84F785F2F08BF03
:100B90000134E5B2582D9A704AD88D78DF705F2DF8
:100BA00008BF0134E7B2021D0431592F03F10403D9
:100BB000D9D303303EE000BF013102E0023100E052
:100BC000033111F8025B0CF1C8035824022011F81C
:100BD000017C02465F2F08BF0134E0B258281D7027
:100BE00060D808785F2808BF0134E5B2582D5F70DF
:100BF0005CD84F785F2F08BF0134E5B2582D98704C
:100C000058D88D78DF705F2D08BF0134E7B2101D12
:100C10000431592F03F10403D9D303324CE000BF50
:100C200040F0010206E000BF821C40F0010001E03C
:100C3000C21C0230811CD0B20CF1C60C20220CF870
:100C40000020C8B20CEB000244F6B430C0F600003D
:100C5000831C012444251F7808465F2F08BF0134F8
:100C6000E1B20129157051D859785F2908BF0134C4
:100C7000E5B2012D57704BD89F785F2F08BF013424
:100C8000E5B2012D917047D8DD78D7705F2D08BF90
:100C90000134E7B2011D0433022F02F10402DAD35A
:100CA00003303BE042F0010006E000BF901C42F040
:100CB000010201E0D01C0232C0B2604420210232A5
:100CC00080F8C61044F6B431D0B2C0F6000100235B
:100CD0000F785F2F08BF0133DFB2012F28D84F787C
:100CE0005F2F08BF0133DFB2012F23D88F785F2F2A
:100CF00008BF0133DFB2012F1ED8CF7804315F2F38
:100D000008BF0133DFB2022FE2D316E0411C05E039
:100D1000811C013002E000BFC11C02300230C9B2A8
:100D20000D220CF80120C0B20A210CF8001044E09A
:100D3000013102E0023100E00331604411F8025B4E
:100D400000F1C604022011F8017C13465F2F08BF92
:100D50000130C2B2022A25701ED80A785F2A08BF65
:100D60000130C5B2022D677018D84F785F2F08BFC9
:100D70000130C5B2022DA27014D88D78E7705F2DB6
:100D800008BF0130C7B21A1D0431032F04F1040457
:100D9000D9D3033308E000BF5A1C05E09A1C013385
:100DA00002E000BFDA1C0233981CD1B20CF1C6027B
:100DB0000D235354C0B20A2111540020707303B0A4
:100DC000F0BD0000002840F2880CC2F2000C1EBFEB
:100DD0008CF80C008CF80D10CCF81020002918BFEE
:100DE0008CF80D10002A18BFCCF810209CF80C10BD
:100DF0000139812900F2F280DFE811F0ED008E0068
:100E000088008800880088008800880082008200AE
:100E1000ED008200ED00F0008200ED008E008E00FB
:100E20008E008E00820082008200F000F000F00050
:100E3000F000F000F000F000F000F000F000F00032
:100E4000F000F000F000F000F000F000F000F00022
:100E5000F000F000F000F000F000F000F000F00012
:100E6000F000F000F000F000F000F000F000F00002
:100E7000F000F000F000F000F000F000F000820060
:100E8000F000F000F000F000F000F000F000F000E2
:100E9000F000F000A600F000F000F000F000F0001C
:100EA000F000F000F000F000F0008200F000F00030
:100EB000F000F000F000F000F000F000F000F000B2
:100EC0008200AC00F000F000F000F000F000F00054
:100ED000F000F000F000F000F000F000F000F00092
:100EE000F000F000F000F000F000F000F000F00082
:100EF000F000F000F000F000F000F000F0008200E0
:100F000000281CBF0120704768E000BF60B10120CD
:100F10008CF800000320704700281CBF0120704798
:100F2000002A08BF002070479CF80000022817D054
:100F3000012853D1012A51D1022000218CF8000050
:100F4000CCF81810704700BFC0B10020ACF8010009
:100F50000320704740B30020ACF803000320704723
:100F6000901E092834D8DCF8181001EB810100EB41
:100F70004100CCF818000220704700BF002AE7D0DB
:100F8000122A2DD0012A31D19CF802000028DFD18D
:100F90009CF80100012101308CF80100C0B28CF8EE
:100FA0000210604400212DE0002AD7D0122A17D069
:100FB000012A2BD19CF804000028CFD19CF8030013
:100FC00001308CF8030001208CF8040003207047E6
:100FD00000208CF8000001208CF80D0000207047E4
:100FE00001208CF80D000320704700BF9CF8011011
:100FF00000208CF8020001EB0C0090F82710023A58
:1010000042EA011180F82710032070479CF8030082
:101010000021013803288CF804109FD8DFE800F085
:1010200002080E18901E8CF81C000320704700BFA9
:10103000901E8CF81D000320704700BFDCF82000D4
:10104000911E41EA0010CCF820000320704700BF39
:10105000DCF82400911E41EA0010CCF824000320A3
:10106000704700007047000070B582B00446002051
:10107000019094F82400012804D10225284602B0EA
:1010800070BD00BF012084F824002046FFF706F958
:10109000054600286CD1A06A41F202118843023053
:1010A000A06240F21C00C2F200000668022000F0BC
:1010B00021FEB6FBF0F0400001900198A8B100BFFE
:1010C000019801380190019878B101980138019098
:1010D000019850B1019801380190019828B1019808
:1010E0000138019001980028EAD12046FFF700F965
:1010F0002068816841F00801816000F03DFD2168B1
:101100008A6812070ED4886840F00400886000F0F6
:1011100033FD21688968490714D401206FF0030169
:1011200022E000BF064602E088680007EBD500F029
:1011300023FD801B21680B28F6D388680007F3D5B0
:101140000EE000BF064602E080684007E5D500F0EB
:1011500013FD811B20680B29F6D381684907F3D55D
:10116000012510206FF01201A26A11400843A0620D
:10117000002084F82400284602B070BDF0B581B08C
:101180000022009290F82420012A05D14FF0020C91
:10119000604601B0F0BD00BF8368D1F804E00122D1
:1011A00080F82420A3B10A690668BEEB020404EBB0
:1011B0008404B56B04F10F044FF01F0303FA04F32A
:1011C00025EA030323F4401516D9B5631FE000BFD9
:1011D000BEF1010F40F0AA8006684FF0000CB26B20
:1011E0000D686FF3150242EAC532B2634FF0010E8B
:1011F000B268D20710D016E040F2000C0B68CFF6B0
:10120000F07C0CEB0252A3401A432A43B2634FF026
:10121000000CB268D20706D1B26847F201038C69AC
:101220009A432243B2604A7D012A1FD00B7D012BD5
:1012300030D00A68092A02EB42043FD9F3681E3C09
:1012400007258F68A540AB4307FA04F4234322F037
:101250000104102CF36049D1B368012543F4000365
:10126000B360BEF1030F36D144E000BF8B6900F1DB
:101270002804B3F5E04F4FF0200314BF4FF0010CEA
:10128000341D08BF4FF4806325682B4323600B7D1A
:10129000012BCED100F12803002A4FF0200214BF09
:1012A0004FF0010C331D08BF4FF480521C682243DD
:1012B0001A600A68092A02EB4204BFD8336907257D
:1012C0008F68A540AB4307FA04F42343336100253C
:1012D000BEF1030F0ED0BEF1020F0FD0BEF1010F11
:1012E00014BF06F1200406F1140409E00025BEF144
:1012F000030FF0D106F11C0402E000BF06F1180450
:10130000236840F6FF77C968BB431943002D21606D
:1013100048D042F20041C4F201018E4212D0816AEB
:101320004FF0010C41F0200181623BE00668826AC7
:101330004FF0010C42F020028262B268D2073FF403
:101340006BAF70E7896809022CD4B168102A41F4A8
:101350000001B16026D140F21C01C2F2000109680F
:101360004DF68362C4F21B32A1FB0212910C01EB19
:101370008101490000910099A1B1009901390091C2
:10138000009979B1009901390091009951B1009902
:1013900001390091009929B1009901390091009912
:1013A0000029EAD1002180F82410604601B0F0BD88
:1013B000006842F20041C4F20101884218BF704740
:1013C00040F2C000C2F2000001210170704700002D
:1013D000022909D003290BD00068042914BF3C302E
:1013E00048300068704700BF0068403000687047B0
:1013F000006844300068704710B5044690F8240037
:10140000012804BF022010BD012084F824002046DA
:10141000FEF76EFF20B1002184F8241010BD00BF3C
:1014200042F204422168A06AC4F2010243F20103BD
:10143000984302F57F7300F580509942A06203D073
:10144000A06A20F4801006E0106810F4702FF7D026
:10145000A06A40F48010A062A06AC0055CBF0020B2
:10146000E062002084F824006FF004040C604C68F3
:1014700044F080044C604C68640548BF10BD886827
:1014800000F4E040B0F5E04F05D199420AD1106870
:1014900010F4702F06D0886840F400408860002067
:1014A00010BD00BF886840F402108860002010BDA5
:1014B00010B5044690F82400012804BF022010BD96
:1014C000012084F82400A06AC0050BD4206840687D
:1014D000400507D42046FEF7E1FE68B1002184F8FC
:1014E000241010BDA06A40F020010120A16200215B
:1014F00084F8241010BD00BF2068416821F08001ED
:101500004160A06A41F201118843411C0020A162A0
:10151000002184F8241010BD7047000010B5044667
:1015200000684168890644BF01685FEA81710BD495
:101530004168090644BF01685FEA41712AD44168E5
:1015400049065BD410BD00BFA16AC90603D4A16AD5
:1015500041F40071A162816801F46021B1F5602F4E
:1015600010D1217B71B9416821F020014160A06A4E
:1015700020F48070A062A06AC00403D4A06A40F086
:101580000100A0622046FFF7C7FF20686FF012013C
:101590000160CDE7A16AC90603D4A16A41F40051F4
:1015A000A162816801F4E041B1F5E04F10D14168DA
:1015B00021F080014160A06A20F48050A062A06AFE
:1015C000C00511D4A06A40F00100A0620CE000BF89
:1015D0004168490508D4816801F46021B1F5602FA4
:1015E00002D1217B0029E2D02046FFF7E1FE2068EE
:1015F0006FF00C01016041684906A3D50068C0077F
:1016000008BF10BDA06A40F48030A062204600F000
:10161000B3F820686FF00101016010BDB0B500287B
:1016200000F0A8800446806A20B121688868C0075D
:101630000BD114E00020E06284F82400204600F082
:101640009DF821688868C00709D0886820F00100EB
:10165000886000F091FA21688A68D20726D1A06AD2
:10166000C0063AD4A06A41F2021290430230A0624E
:10167000E069D4E9013240EA030C531EB3FA83F364
:101680005D091346B2F5807F18BF2B02207D257BB4
:1016900001284CEA450030D135B3A56A45F0200554
:1016A000A562E56A45F00105E56226E0054602E02F
:1016B0008868C007D3D000F05FFA401B2168032878
:1016C000F6D38868C007F3D0A06A40F01000A0628B
:1016D000E06A40F00100E062A06AA06A40F01000F9
:1016E000A0620120B0BD00BFD4F818C04EF60005BE
:1016F000CFF6FF7505EB4C352B434D68B2F5807F77
:1017000025F4694543EA05034B608B684FF2FD758C
:10171000CFF6E17503EA050343EA00038B6001D0CD
:10172000012A07D122690023CFF6F07303EB02529E
:1017300001E000BF0022CB6A23F470031A43CA629F
:10174000896840F6FE62CFF61F721140814207D1D0
:101750000020E062A16A012262F30101A162B0BD32
:10176000A06A40F0100020F00200A062E06A40F0A1
:101770000100E0620120B0BD7047000080B586B076
:10178000014640F60000C4F20100096800F5E0528D
:1017900091424FF00001CDE9041101D006B080BDA7
:1017A00041F21801C4F202010A6842F400720A60B0
:1017B0000A6802F400720192019A0A6842F0040277
:1017C0000A60096801F00401019101991821029150
:1017D0000321039102A900F0B5F812200021002294
:1017E00000F04CFA122000F035FA06B080BD00007F
:1017F000002804BF0120704710B50446407918B195
:1018000001206071002010BD00202071204600F0F2
:1018100005F801206071002010BD000081B0006853
:1018200043F20001C4F20201884201D001B07047C6
:1018300041F21400C4F20200016841F0400101606D
:10184000006800F040000090009801B07047000070
:10185000014690F82100022816D10868D1E90FC38B
:10186000026822F00E020260026822F001020260A9
:10187000012000FA03F2CCF8042081F821000020B6
:10188000002281F820207047042088630120002274
:1018900081F820207047000080B590F821100229BF
:1018A00024D10268116821F00E0111602F21136804
:1018B000C4F202018A4240F20401C4F2020123F0A0
:1018C0000103136016DD3023C4F202039A421DD0D7
:1018D0004423C4F202039A421CD05823C4F20203E8
:1018E0009A421DD14FF4803322E000BF042181636E
:1018F000012080BD0823C4F202039A420ED01C23AB
:10190000C4F202039A420BD1102311E04FF480730A
:101910000EE000BF4FF480530AE000BF012307E050
:1019200001F1680C4FF08073624508BF4FF48013DB
:101930000B60416B4FF48072028401B18847002034
:1019400080BD00002DE9F04F82B00E68002E00F03F
:10195000038140F20C4C41F200424FF6FF7EC4F28C
:10196000010CC4F20102042700240123C1F2100E6D
:101970004FF0000A4FF00009904208BF032700977C
:1019800045E000BF012704F00C030F229A402BEA28
:10199000020207FA03F34FEA9A051A4346F8252094
:1019A000D1F804B040F20045C4F201055FEACB3241
:1019B0002A6854BF22EA080242EA08022A606A68DA
:1019C0005FEA8B3354BF22EA080242EA08026A60E7
:1019D0005FEACB23AA6854BF22EA080242EA08025F
:1019E0005FEA8B23AA60DCF800204FF0010354BFAC
:1019F00022EA080242EA0802CCF800200E680AF146
:101A0000010A36FA0AF204F1040400F0A58003FA90
:101A10000AF816EA080FF1D04E68764512DC122E4D
:101A200056D8DFE806F0350B4549555555555555FF
:101A3000555555555555554D510000BFD1F80C9091
:101A400046E000BF4FF6FF72C1F2210296420FDC62
:101A50000022C1F2110296421AD00022C1F21202F3
:101A6000964215D00022C1F22102964210D02FE0FA
:101A70000022C1F2220296420AD00022C1F23102B3
:101A8000964205D00022C1F23202964220D100BF18
:101A90008A684AB1012A14BFC0F81480C0F81080C7
:101AA0004FF0080914E000BF4FF0040910E000BF38
:101AB000CA6802F108090BE04FF0000908E000BF16
:101AC000CA6802F1040903E0CA6802F10C0900BF08
:101AD00022460646BAF1080F24BF203A043637687A
:101AE0000F25954027EA050509FA02F22A433260DC
:101AF000CA79D2067FF582AF41F21803C4F202031D
:101B00001A6842F001021A601A6802F0010201929A
:101B1000019A40F20042C4F20102A2F57E762AF058
:101B2000030256F802B040F60002C4F201029042ED
:101B300010D040F60042C4F2010290423FF422AFBE
:101B400041F20002C4F20102009F904208BF022746
:101B500019E700BF002716E702B0BDE8F08F0000CC
:101B60008068084018BF012070470000002A08BFA5
:101B7000090401617047000040F61840C2F20000FD
:101B80000068704740F2100040F61841C2F20000B1
:101B9000C2F2000100780A68104408607047000033
:101BA00080B542F20000C4F20200016841F0100169
:101BB0000160032000F08EF8002000F005F800F02E
:101BC00027F8002080BD000070B540F21006C2F278
:101BD000000640F21C013278C2F200014FF47A7321
:101BE0000968B3FBF2F20446B1FBF2F1084600F0DB
:101BF00061FC0F2C4FF0010508D838B94FF0FF30C9
:101C000021460022002500F039F87460284670BD96
:101C100082B041F21800C4F202000168022241F0D1
:101C200001010160016801F0010101910199416820
:101C300041F080514160406800F080500090009871
:101C40000420C4F20100016862F31A61016002B06D
:101C500070470000002848BF7047C1B200F01F0065
:101C6000012202FA00F04EF20012CEF2000242EA25
:101C7000D10121F0030108607047000010B54EF655
:101C80000C5CCEF2000CDCF80030C3F3022E8EF0B8
:101C90000704042C28BF0424BEF103034FF0FF3EC9
:101CA0000EFA04F438BF0023A14399400EFA03F35F
:101CB0009A43114300F00F0200F160430901043A16
:101CC00003F564436244002848BF02F10C03197015
:101CD00010BD00004EF60C51CEF200010A684FF61E
:101CE000FF031A4060F30A2242F0806040F0FD706A
:101CF0000860704780B5012818D0022836D0102817
:101D000032D141F20401C4F202010A6851F8040C14
:101D1000C00129D5C2F383402DA3185CD2033DD462
:101D200040F60012C0F23D02504343E041F204008D
:101D3000C4F20200C16940F202320A40B2F5817F6A
:101D400004BF4FF4004080BD01F44071B1F5407F05
:101D50001CD0B1F5007F07D1006A49F640418007E9
:101D600001EAE07080BD00BF002080BD00F0B4F942
:101D700041F20401C4F2020109680222C1F3813177
:101D800002EB4101B0FBF1F080BD00BF50F8040C44
:101D90004FF22441800301EAE07080BD0A6810A37D
:101DA000C2F340429A5C41F20023C0F27A03B3FBD3
:101DB000F2F250430968490248BF80BD4AF6AB21A0
:101DC0004000CAF6AA21A0FB0101480880BD00BF5F
:101DD00002030405060708090A0B0C0D0E0F10106C
:101DE000010200002DE9F04182B00446007841F282
:101DF0001C06C007C4F202064AD0306810F08058B2
:101E000008D1306840F080503060306800F0805079
:101E10000190019847F20007C4F200073868C00536
:101E200012D4386840F480703860FFF7A5FE05468C
:101E30003868C00508D4FFF79FFE401B6428F7D917
:101E4000032002B0BDE8F081706810F4407012D039
:101E5000616801F4407188420DD0706840F24042E0
:101E6000C4F24222012320F4407113600023C00712
:101E7000136071602AD17068616820F44070084373
:101E8000B8F1000F706003D1306820F080503060EE
:101E90002068810707D556F8181CA26821F4404134
:101EA000114346F8181CC00604D4002002B0BDE857
:101EB000F08100BF56F8180CE16820F48000084358
:101EC00046F8180C002002B0BDE8F081FFF754FE80
:101ED000054641F2883700BF70688007CBD4FFF712
:101EE0004BFE401BB8424FF00300F5D9EBE7000072
:101EF0002DE9F04381B0002800F0858042F200080F
:101F0000C4F202080446D8F800000D4600F00700AD
:101F100088420CD2D8F8000020F007002843C8F807
:101F20000000D8F8000000F00700A8426BD120683C
:101F300041F204098107C4F2020917D5410705D50A
:101F4000D9F8001041F4E061C9F80010010705D587
:101F5000D9F8001041F46051C9F80010D9F8001008
:101F6000A26821F0F0011143C9F80010C00741D167
:101F7000D8F8000000F00700A8420CD9D8F80000FB
:101F800020F007002843C8F80000D8F8000000F04F
:101F90000700A84237D12068410707D5D9F80010BB
:101FA000E26821F4E0611143C9F80010000708D588
:101FB000D9F80000216920F4605040EAC100C9F856
:101FC0000000D9F8002002F00C00082841F200209F
:101FD000C0F27A0050D144F68143C2F38341C0F687
:101FE0000003595CD2033BD440F60010C0F23D0020
:101FF000484341E0606802280AD001282AD159F8F4
:10200000041C890308D4012001B0BDE8F08300BF9F
:1020100059F8041C8901F6D5D9F8001021F0030104
:102020000843C9F80000FFF7A7FD064641F28837CC
:10203000D9F80000616800F00C00B0EB810F97D078
:10204000FFF79AFD801BB842F2D9032001B0BDE82A
:10205000F08300BF59F8041C8907D4D5DCE700BF22
:10206000D9F8002044F68233C2F34042C0F60003A0
:102070009A5C4843B0FBF2F0D9F8001044F69C3269
:10208000C1F30311C0F60002515C40F21C0220FAB9
:1020900001F140F21400C2F200000068C2F2000236
:1020A0001160FFF791FD002001B0BDE8F083000052
:1020B00040F21C0041F20401C2F20000C4F202012D
:1020C0000068096844F6AC32C1F30221C0F6000290
:1020D000515CC8407047000040F21C0041F204010E
:1020E000C2F20000C4F202010068096844F6AC3292
:1020F000C1F3C221C0F60002515CC8407047000025
:102100002DE9F04182B0002868D00446007841F201
:102110000006C007C4F2020625D0706800F00C006B
:1021200004281BD0706800F00C00082802D17068E9
:10213000C00313D46068002800F06881B0F5A02FB8
:1021400000F07C81B0F5803F00F07C81306820F4A5
:1021500080303060306820F4802076E13068800381
:1021600001D56068D0B32078800718D5706810F06A
:102170000C0F07D0706800F00C0008286ED1706852
:10218000C0036BD43068800702D52069012825D1AF
:102190003068616920F0F80040EAC10030602078C2
:1021A00000071FD42078400732D4E56995B17068E4
:1021B00000F00C00082840F08F80012D0ED07068D0
:1021C000216A00F480328A4208D1616A00F47010FA
:1021D000884203D1002002B0BDE8F081012002B0A6
:1021E000BDE8F081A069002862D00020C4F242203E
:1021F0000121C0F88014FFF7BFFC0546706A800714
:1022000000F18C80FFF7B8FC401B0228F6D92AE1C8
:10221000F06910F0805808D1F06940F08050F0610A
:10222000F06900F080500090009847F20007C4F277
:1022300000073868C00529D4386840F480703860D9
:10224000FFF79AFC054600BF3868C0051ED4FFF7AB
:1022500093FC401B6428F7D905E100BF20690028E2
:1022600040F20000C4F2422000F0828001210160AF
:10227000FFF782FC054600BF306880073FF588AF56
:10228000FFF77AFC401B0228F6D9ECE0E068002852
:1022900000F08080052800F09780012800F09880E9
:1022A000306A20F001003062306A20F0040092E0D1
:1022B0000020C4F242200021C0F88014FFF75CFC2B
:1022C000054600BF706A80077FF56CAFFFF754FCCE
:1022D000401B0228F6D9C6E00027C4F2422700209E
:1022E0003866FFF749FC022D05460BD130688001A6
:1022F00040F1BE80FFF740FC401B02284FF0030076
:10230000F4D968E7306880017FF564AFFFF734FCEB
:10231000401B02284FF00300F4D95CE740F21C0098
:10232000C2F20000006844F6D351C1F26201A0FB82
:102330000101480A019000BF00BF0198411E00281A
:1023400001913FF42FAF00BF0198411E0028019179
:102350003FF428AF00BF0198411E002801913FF4CF
:1023600021AF00BF0198411E00280191E4D119E777
:1023700000210160FFF700FC054600BF30688007C0
:102380007FF50DAFFFF7F8FB401B02284FF003006D
:10239000F4D920E7306A20F001003062306A20F082
:1023A00004003062FFF7E8FB054641F2883700BFC2
:1023B000306A800720D5FFF7DFFB401BB8424FF0A3
:1023C0000300F5D907E700BF306A40F0040030622F
:1023D000306A40F001003062FFF7CEFB054641F263
:1023E000883700BF306A800706D4FFF7C5FB401B63
:1023F000B842F7D937E000BFB8F1000F7FF4D5AE8F
:10240000F06920F08050F061CFE600BF306820F422
:1024100080303060306820F480203060FFF7ACFB03
:10242000054600BF306880037FF59DAEFFF7A4FB33
:10243000401B64284FF00300F4D9CCE6306840F428
:1024400080203060306840F480303060FFF794FBCB
:10245000054600BF306880033FF585AEFFF78CFB73
:10246000401B6428F6D9032002B0BDE8F08100BF0C
:10247000206AB0F5803F05D17168A26821F400316F
:10248000114371607168626A21F474111143084349
:10249000706001203866FFF76FFB044630688001EA
:1024A0003FF598AEFFF768FB001B02284FF00300D2
:1024B000F4D990E6411E0020B0EB116F1CBF012043
:1024C00070474EF21002CEF2000251604EF62351D8
:1024D000CEF20001F0230B7007219060116070476D
:1024E00010B590F83C20012A4FF0020233D080F85A
:1024F0003D200268D2F804E0D2F808C00C682EF043
:102500007003234340F2FF74C4F20004A2425360FC
:102510000ADCB2F1804F13D040F20043C4F2000352
:102520009A420DD011E000BF42F60043C4F201030D
:102530009A4205D040F60003C4F200039A4204D147
:1025400049682CF08003194391600121002280F832
:102550003D1080F83C20104610BD0000002804BF4C
:102560000120704710B5044690F83D0028B90020BE
:1025700084F83C00204600F067F8022084F83D0013
:10258000206840F2FF730268C4F2000342F6004C78
:102590009842C4F2010C15DCB0F1804F1AD040F221
:1025A0000041C4F20001884214D0984218DCB0F116
:1025B000804F1DD040F20041C4F20001884217D084
:1025C0001AE000BF604505D040F60001C4F20001EA
:1025D0008842EAD1A16822F070020A439842E6DDFF
:1025E000604505D040F60001C4F20001884203D1E5
:1025F000216922F440720A43A36922F08001D4F8D1
:1026000004E0E268194360450160C262C0F828E056
:1026100002D16169CCF8301001214161002084F8B9
:10262000461084F83E1084F83F1084F8401084F877
:10263000411084F8421084F8431084F8441084F860
:10264000451084F83D1010BD82B0006840F60001CE
:10265000C4F20001884211D0B0F1804F1BD141F289
:102660001C00C4F20200016841F001010160006831
:1026700000F001000190019802B0704741F21C0087
:10268000C4F20200016841F004010160006800F03A
:1026900004000090009802B07047000080B590F8E8
:1026A0003C20012A4FF0020200F0BF8080F83D205C
:1026B000D0F800C04FF67772DCF8083023EA020247
:1026C000CCF808200B683F2B1CDD5F2B20DD602B36
:1026D00050D0B3F5005F6DD0702B40F0A080D1E9F1
:1026E00001E3C968DCF8082043EA0E0322F47F42C4
:1026F00043EA01211143CCF80810DCF8081041F03E
:1027000077018AE01F2B29DC63B3102B2AD086E0E7
:10271000402B63D0502B40F08280D1F804E0C96890
:10272000DCF82030DCF8202022F00102CCF8202058
:10273000DCF8182022F0F00242EA011123F00A022C
:1027400042EA0E02CCF81810CCF82020DCF8081071
:1027500041F0570121F020015FE000BF202B01D0A4
:10276000302B5CD1DCF8081021F07001194341F0E6
:10277000070152E0D1F804E0C968DCF8203023F00A
:102780001003CCF82030DCF81830DCF8202023F4DB
:10279000704322F0A00243EA013142EA0E12CCF863
:1027A0001810CCF82020DCF8081041F0670121F067
:1027B000100132E0D1E901E3C968DCF8082043EAFE
:1027C0000E0322F47F4243EA01211143CCF80810A2
:1027D000DCF8081041F480411FE000BFD1F804E0AC
:1027E000C968DCF82030DCF8202022F00102CCF8A7
:1027F0002020DCF8182022F0F00242EA011123F038
:102800000A0242EA0E02CCF81810CCF82020DCF8BC
:10281000081041F0470121F03001CCF808100121E7
:10282000002280F83D1080F83C20104680BD00005A
:1028300080B586B0006840F60001C4F2000188420D
:102840004FF00001CDE90411CDE9021116D0B0F12D
:10285000804F30D141F21800C4F20200016841F00B
:10286000040101600068032100F004000190019858
:1028700040F60000C4F2010015E000BF41F218006C
:10288000C4F20200016841F00801016000684FF4E1
:10289000707100F008000190019840F60000C4F249
:1028A000010000F580600291022103910121059150
:1028B00002A9FFF747F806B080BD00002DE9F043FC
:1028C00090F83C30012B04BF0220BDE8F0834FEAB2
:1028D000B202032A00F2E980DFE802F0023A78B49B
:1028E000036842F600461A6AC4F2010622F00102A9
:1028F0001A621D6A1A465C6852F818CFB3428E6895
:10290000D1F800E025F0020545EA06050CD1CE68B5
:10291000D1E9057824F4407425F00C0526F004066E
:102920003C43354344EA08042CF0730747EA0E079A
:102930005C609F614F6809695F631D629F6947F032
:1029400008079F619F6927F004079F61AAE000BF05
:10295000036842F600461A6AC4F2010622F0100229
:102960001A621D6A1A46D3F804C052F8184FB342CF
:102970008E68D1F800E025F0200545EA061510D153
:10298000CE68D1E9058725F0C0096FF0400505EA5A
:1029900006152CF4406647EA080745EA090546EAA9
:1029A000870C24F4E64444EA0E27C3F804C09F6170
:1029B0004F6809699F631D629F6947F400679F61C3
:1029C0009F6927F480679F616BE000BF036842F650
:1029D00000461A6AC4F2010622F480721A621D6A65
:1029E0001A46D3F804C052F81CEFB3428E680C6844
:1029F00025F4007545EA062511D1CE68D1E9058791
:102A000025F44069360240F2FF4526EA05052CF41C
:102A1000405647EA080745EA090546EA071C2EF032
:102A200073072743C3F804C0DF614F680969DF6398
:102A30001D62DF6947F00807DF61DF6927F00407DF
:102A4000DF612FE0036842F600471A6AC4F201070B
:102A500022F480521A621A46D3F820C05D6852F8F8
:102A60001C4FD1F800E08E68BB4204D14F6925F4B9
:102A7000804545EA87152CF4005747EA063724F4C9
:102A8000E64646EA0E265D60DE614E6809691E6410
:102A90001F62DF6947F40067DF61DF6927F4806741
:102AA000DF610902136819431160002180F83C10AE
:102AB0000846BDE8F0830000002804BF01207047ED
:102AC00010B5044690F83D0028B9002084F83C0079
:102AD000204600F067F8022084F83D00206840F2AC
:102AE000FF730268C4F2000342F6004C9842C4F23D
:102AF000010C15DCB0F1804F1AD040F20041C4F255
:102B00000001884214D0984218DCB0F1804F1DD0EB
:102B100040F20041C4F20001884217D01AE000BF21
:102B2000604505D040F60001C4F200018842EAD1B8
:102B3000A16822F070020A439842E6DD604505D0A4
:102B400040F60001C4F20001884203D1216922F459
:102B500040720A43A36922F08001D4F804E0E268DD
:102B6000194360450160C262C0F828E002D1616982
:102B7000CCF8301001214161002084F8461084F81F
:102B80003E1084F83F1084F8401084F8411084F817
:102B9000421084F8431084F8441084F8451084F8F7
:102BA0003D1010BD704700007047000070470000E6
:102BB000B0B582B0026805461068D368546900F069
:102BC0002F01202903F0200106D129B1284602B0A7
:102BD000BDE8B04000F07EBD5FEA007C1EBF04F09F
:102BE000010E03F4907414EB0E0453D1296B0129E8
:102BF00005D110F0100118BF13F0100136D10106F5
:102C000022D513F080011FD095F83D0021283FD137
:102C1000A868B0F5805F03D12869002800F0F8802B
:102C2000286A411C296200785060E88C0138010450
:102C3000E8842DD1D06820F08000D060D06840F0CA
:102C40004000D06002B0B0BD400621D513F0400076
:102C50001ED0D068202120F04000D060284685F8A2
:102C60003D1002B0BDE8B04000F0F4B90020019082
:102C7000106801905068019001985069400611D485
:102C8000A88DE98DEB8D002B18BF884240F0A680FF
:102C900002B0B0BDC40718BF13F480732CD1430732
:102CA00030D436E0A86B01684B689CB2002CEFD0A2
:102CB000A98D8C42ECD2EB858369202B17D0D1688B
:102CC00021F48071D160516921F001015161516994
:102CD00021F040015161202185F83E100021296337
:102CE000D16821F01001D160FEF7B2FDA98DE88D09
:102CF000081A81B2284685E02B6C43F001032B644F
:102D0000430706D5BEF1000F03D02B6C43F002033E
:102D10002B64830706D5BEF1000F03D02B6C43F064
:102D200004032B64BCF1000F09D541EA0E03B3FA8A
:102D300083F35B0903D12B6C43F008032B642B6CEA
:102D4000002BA5D010F0200018BF002903D0284682
:102D500000F0C0FC2A685069296C00F0400001F0C6
:102D6000080140182CD0D06820F49070D0605069D1
:102D700020F001005061286B012803D1D06820F0B9
:102D80001000D060202085F83E00002028635069A4
:102D900040061DD5506920F040005061A86BB8B1C5
:102DA00043F2C961C0F600014163FEF775FD0028DA
:102DB0003FF46EAFA86B416B02B0BDE8B04008476E
:102DC0002846FFF7F3FE0020286402B0B0BD00BF24
:102DD000284602B0BDE8B040FFF7E8BED368401A0D
:102DE00023F49073D360536981B223F001035361DC
:102DF000202385F83E3000232B63D368284623F038
:102E00001003D36002B0BDE8B040FFF7CDBE00BFF5
:102E1000286A30F8021B6FF35F215160286204E7D3
:102E2000002804BF0120704710B5044690F83D000B
:102E300028B9002084F83C00204600F061F82420E6
:102E400084F83D002068D4E90212C36823F40053DB
:102E5000C360036923F440531A430261D4E9042395
:102E60001143C268194341F20C639A431143C16094
:102E70004169A26921F44071114343F60002C4F292
:102E800001029042416103D0FFF712F902E000BF56
:102E9000FFF722F96268192148439100B0FBF1F075
:102EA00048F21F51C5F2EB11A0FB01235A094FF65E
:102EB0009C73C0F6FF7302FB0300322303EB001088
:102EC000A0FB0101F02303EA5113206803EB021277
:102ED000C1F3431111448160016921F49041016102
:102EE000416921F02A014161C16841F40051C1608A
:102EF00000202021206484F83D1084F83E1010BD8D
:102F000070B586B040F60044C4F201040068A4F530
:102F1000444100268842049602D006B070BD00BF2E
:102F200041F21800C4F20200416802AD41F4802170
:102F30004160416801F4802101910199016841F0EB
:102F4000080101600068294600F00800019001981E
:102F50004FF48060029002200390032005902046E9
:102F6000FEF7F0FC4FF40060CDE90206204629464A
:102F70000496FEF7E7FC272000210022FEF77EFEE4
:102F80002720FEF767FE06B070BD0000034690F8EC
:102F90003E0020280AD100294FF0010018BF002A66
:102FA00000D1704793F83C00012801D102207047FE
:102FB00000201863996222219A85DA85186483F8C3
:102FC0003E10196883F83C00CA6842F48072CA60F7
:102FD0004A6942F001024A61CA6842F02002CA60AE
:102FE0007047000040F6B611C2F2000191F8C4200B
:102FF0000132D3B2C42B81F8C42004BF002281F86F
:10300000C42091F8C42011440122FFF7BFBF000083
:10301000034690F83D0020280AD100294FF0010016
:1030200018BF002A00D1704793F83C00012801D155
:10303000022070471962002021219A84DA841864E2
:1030400083F83D10196883F83C00CA6842F080029A
:10305000CA60704740F6B610C2F20000002180F846
:103060008A117047FEE700002DE9F04381B040F27D
:103070001807C2F2000714463A884FF6FF78054653
:1030800040F6B610424504BF3C802246C2F2000022
:1030900090F88A0120B1012001B0BDE8F08300BFA3
:1030A00035F81200002818BF424505D1A7F8008066
:1030B000002001B0BDE8F083A1F1010944F6D5314B
:1030C000C0F600014E1C00BF80B200F0AFFB01282B
:1030D000E1D0304600F064FB0128DCD038880028BD
:1030E00004BFA7F80090484681B2A142DED035F86F
:1030F0001100002818BF4145E6D1D7E7FEE70000E0
:10310000FEE7000070470000704700002DE9F04F17
:1031100083B093F80090CDE901320C9BB9F1000F18
:10312000009053D044F67E47C0F6000797F800A001
:1031300018781A46009B5FFA80FE1C7811F80E5032
:10314000AC4200F08B80029B1F8801E00EF1010E63
:10315000BE4573D211F80E405445F7D10EF1010E61
:10316000BE45F3D2019B09F1010983F800900D9B44
:1031700093F800B00EEB0B00864517D2029BCBF103
:103180000005B3F800C00027764600BF66450ED2A2
:1031900092F800808C5D01EB08035B5D0136A34271
:1031A00008BF01370135F1D301E000BF0027FBB2B2
:1031B0005B4503D0029B1F88C8E700BF1346107011
:1031C000019A92F80090B9F1000FB2D10D9A4FF028
:1031D000000C82F800C0029A14885CB344F67E4268
:1031E000C0F6000292F800E000984FF0000C0026B4
:1031F00004E000BF2E460136A64229D28D5D7545FA
:10320000F9D1751CA5420CF1010CF3D202784F5D87
:10321000BA42EFD1019880F800C0B01C18700D9B25
:103220004FF0010C1A7801321A70085C704508BF23
:103230004FF0020C604603B0BDE8F08F01984FF0EC
:10324000000C80F800C0604603B0BDE8F08F00BFFE
:103250004FF0000C604603B0BDE8F08F013013461C
:1032600010700D9A1078013010701878085CA0EB7F
:103270000A00B0FA80F040094FEA400C604603B003
:10328000BDE8F08FB0B5054644F68040C0F60000BA
:103290000C4600F085FA44F67F40C0F6000000F0CE
:1032A0007FFA44F61E41C0F60001002075B300BF4E
:1032B0000A785F2A08BF0130C2B2AA4216D24A7801
:1032C0005F2A08BF0130C2B2AA4215D28A785F2AAB
:1032D00008BF0130C2B2AA4214D2CA7804315F2AB0
:1032E00008BF0130C2B2AA42E2D306E00131C2B245
:1032F000AA4205D80AE000BF0231C2B2AA4205D9EB
:10330000002131E00331C2B2AA42F9D88A1C00215F
:1033100012F8013C5F2B08BF0130C3B2AB4219D891
:1033200013785F2B08BF0130C3B2AB4216D8537875
:103330005F2B08BF0130C3B2AB4213D8937804317E
:103340005F2B08BF0130C3B2AB4202F10402DFD9E8
:103350000AE000BF41F0010106E000BF41F00201B8
:1033600002E000BF41F00301C9B20020002500F0D7
:1033700035FA44F6D530C0F60000013000F010FAFE
:1033800044F6B430C0F6000074B3002501785F291C
:1033900008BF0135E9B2A14216D241785F2908BFC2
:1033A0000135E9B2A14215D281785F2908BF013504
:1033B000E9B2A14214D2C17804305F2908BF0135B7
:1033C000E9B2A142E2D306E00130E9B2A14205D858
:1033D0000AE000BF0230E9B2A14205D9002031E085
:1033E0000330E9B2A142F9D8811C002011F8012C68
:1033F0005F2A08BF0135EAB2A24219D80A785F2ACB
:1034000008BF0135EAB2A24216D84A785F2A08BF3F
:103410000135EAB2A24213D88A7804305F2A08BF85
:103420000135EAB2A24201F10401DFD90AE000BF8E
:1034300040F0010006E000BF40F0020002E000BFE3
:1034400040F00300C1B2002000F0C8F944F680400B
:10345000C0F6000000F0A4F944F67F40C0F600007A
:10346000BDE8B04000F09CB980B5FEF78BFBBDE82D
:10347000804000F0CFB800007047000080B501F038
:103480001F014FF0010CD0F820E00CFA01F32EEAF6
:1034900003030362036A02FA01F11943016280BD6A
:1034A00010B54FF0000CBBB392F800E0BEF15F0F17
:1034B00008BF0CF1010C5FFA8CFE9E4522D292F8F7
:1034C00001E0BEF15F0F08BF0CF1010C5FFA8CFE4A
:1034D0009E4519D292F802E0BEF15F0F08BF0CF1D1
:1034E000010C5FFA8CFE9E4510D292F803E0043284
:1034F000BEF15F0F08BF0CF1010C5FFA8CFE9E4518
:10350000D2D304E0013202E0023200E003325FFA7B
:103510008CFE9E4588BF10BD12F801E9441E00BF15
:1035200004F801EF08780130087092F802E00132E7
:10353000BEF15F0F08BF0CF1010C5FFA8CF09842EE
:10354000EED910BD2DE9F047054644F68040DDE98F
:103550000898C0F600009A4617460C4600F020F97D
:1035600044F67F40C0F6000000F01AF9A8B200F05F
:103570005DF944F6D536C0F6000606F12305284667
:1035800000F00EF9092C02D8F01C00F009F92046D1
:1035900000F04CF9284600F003F9092F02D8F01C7E
:1035A00000F0FEF8384600F041F9701C00F0F8F821
:1035B000BAF1090F02D8F01C00F0F2F8504600F002
:1035C00035F906F12504204600F0EAF8B9F1090FB3
:1035D00002D8F01C00F0E4F8484600F027F9204635
:1035E00000F0DEF8B8F1090F02D8F01C00F0D8F8AE
:1035F000404600F01BF944F68040C0F6000000F0A1
:10360000CFF844F67F40C0F60000BDE8F04700F078
:10361000C7B8000040F23C10C2F20000816811B14E
:10362000816801398160416A11B1416A01394162A1
:10363000016C11B1016C01390164C16D11B1C16D31
:103640000139C165816F11B1816F01398167D0F88E
:10365000941021B1D0F894100139C0F8941040F2C0
:10366000C000C2F20000016C11B1016C01390164AB
:10367000816C11B1816C0139816440F20001C2F2A8
:1036800000010A6812B10A68013A0A60826A12B13E
:10369000826A013A8262C26812B1C268013AC260AB
:1036A0004A6812B14A68013A4A60018F21B1018F1C
:1036B00001390187704700BF4FF47A7101870121FA
:1036C00080F83A1070470000406A0021C185C1842B
:1036D000FFF76CBA81B090F83E10222921D183689F
:1036E0000246B3F5805F09D152F8281F52F8183C02
:1036F000002B3FD003685B680AE000BF52F8281F28
:1037000013B90369002BF5D003685B6803F07F03EE
:103710000B70116801311160C18D01390A04C18536
:1037200002D001B0704700BF0168CA6822F02002D1
:10373000CA60CA6822F48072CA604A6922F0010233
:103740004A61202280F83E20026B012A1AD1002211
:103750000263CB6823F01003CB600B68DB0605D552
:1037600000920A680092496800910099818D01B029
:10377000FFF71ABA026852686FF35F2221F8022B32
:103780008162C9E701B0FFF72DBC000040F6B61119
:10379000C2F2000191F8C42011440122FFF7F6BBE8
:1037A000017840F6B610C2F2000090F88821831824
:1037B000013280F8882183F8C61090F88811C22958
:1037C00004BF002180F8881190F8881190F88901D1
:1037D000081AB0FA80F040097047000010B58C4616
:1037E000E1B140F6B612C2F200024FF0000E00BF87
:1037F000017892F888310130D418013382F8883189
:1038000084F8C61092F88811C22908BF82F888E1AE
:1038100092F8881192F889319942E9D1BCF1000FF0
:1038200018BF4FF0010C604610BD0000F0B5010953
:1038300040F247325143CC0C4DF6F001CFF6FF7108
:1038400004FB010142F2C5038DB2EA085A434FF668
:103850001843170DCFF6FF7307FB031141F27B42AC
:103860008EB2B6087243C2F3474603F5617206FB97
:1038700002114CF6CD438AB25A43C2F3C74E42F20C
:103880001072904244F6D53C40F6B610C0F6000CDB
:10389000C2F2000008D2B5F57A7F1FD2C6BBBEF1D6
:1038A000000F4FD168E000BF0CEB440290F8883164
:1038B000D278C418013380F8883184F8C62090F893
:1038C0008821C22A04BF002280F8882190F888212C
:1038D00090F889319A4204BF0120F0BD0CEB4702F9
:1038E00090F88831D278C418013380F8883184F890
:1038F000C62090F88821C22A04BF002280F88821BF
:1039000090F8882190F889319A4204BF0120F0BDD7
:103910000CEB460290F88831D278C418013380F855
:10392000883184F8C62090F88821C22A04BF00227A
:1039300080F8882190F8882190F889319A4204BF54
:103940000120F0BD0CEB4E0290F88831D278C418FB
:10395000013380F8883184F8C62090F88821C22A83
:1039600004BF002280F8882190F8882190F88931DE
:103970009A4204BF0120F0BD0EEB8E02A1EB420182
:1039800089B20CEB410190F88821C9788318013283
:1039900080F8882183F8C61090F88811C22904BFE6
:1039A000002180F8881190F8881190F88901081A90
:1039B000B0FA80F04009F0BD10B540F6B614C2F27E
:1039C000000494F8892194F88A1194F888319A4275
:1039D00025D0002918BF10BD94F8891194F88821CA
:1039E00094F889319142234403F1C6010AD294F834
:1039F000882194F88931D21A92B2FFF709FB94F822
:103A0000880107E094F88921C2F1C20292B2FFF75F
:103A1000FFFA002084F88901012084F88A0110BD92
:103A200040F6D430C2F20000FFF7C2B870B582B0E1
:103A300040F6B614C2F2000494F8C40094F8C5101D
:103A4000884200F0C68094F8C500205C0A280DD09A
:103A50000D2819D140F28000C2F20000017803293C
:103A600014BF012104210170A8E000BF40F28000D2
:103A7000C2F200000178042902D0012940F09E80A2
:103A8000022101709AE000BF40F28006C2F20006F7
:103A900030780138032800F29180DFE800F0030756
:103AA000250300BF0020307088E000BF0320308075
:103AB0000020A6F8030094F8C500311D009144F6DB
:103AC0001E4144F67C422044B51CF31CC0F60001A4
:103AD000C0F600020195FFF719FB02286ED1F078BD
:103AE000002100225AE000BF7078042866D8DFE881
:103AF00000F00305233D5D00DDE700BF94F8C5003D
:103B0000205C20285AD094F8C500311D009144F65D
:103B1000004144F61C422044B51CF31CC0F60001D1
:103B2000C0F600020195FFF7F1FA022846D1F178BC
:103B3000002000223FE000BF94F8C500311D009135
:103B400044F6D53144F6FE322044B51CF31CC0F6D1
:103B50000001C0F600020195FFF7D8FA01380128EC
:103B600019D900200021002225E000BF94F8C500EB
:103B7000311D009144F6D53144F6FE322044B51C87
:103B8000F31CC0F60001C0F600020195FFF7BEFA73
:103B90000138012812D8F278002000210025FDF715
:103BA00011F970703571758008E000BF94F8C50098
:103BB0000021225C0020FDF705F9707094F8C50023
:103BC0000130C1B2C42984F8C50004BF002084F8C4
:103BD000C50002B070BD0000FEE7000010B504464D
:103BE00044F68040C0F60000FFF7DAFD44F67F405F
:103BF000C0F60000FFF7D4FD44F61E40C0F60000FA
:103C0000002100BF02785F2A08BF0131CAB2082A2A
:103C100016D842785F2A08BF0131CAB2082A11D8E3
:103C200082785F2A08BF0131CAB2082A0CD8C2784C
:103C300004305F2A08BF0131CAB2092AE2D304E086
:103C4000013002E0023000E003300230092100BF01
:103C500010F8012C5F2A08BF0131CAB2092A15D811
:103C600002785F2A08BF0131CAB2092A0ED8427809
:103C70005F2A08BF0131CAB2092A07D88278043006
:103C80005F2A08BF0131CAB20A2AE1D30020052108
:103C9000FFF7A4FD2046FFF7C9FD44F68040C0F6BB
:103CA0000000FFF77DFD44F67F40C0F60000BDE850
:103CB0001040FFF775BD000010B5044644F6804083
:103CC000C0F60000FFF76CFD44F67F40C0F6000030
:103CD000FFF766FD44F61E40C0F60000002100BF5D
:103CE00002785F2A08BF0131CAB2092A16D8427881
:103CF0005F2A08BF0131CAB2092A11D882785F2A27
:103D000008BF0131CAB2092A0CD8C27804305F2A30
:103D100008BF0131CAB20A2AE2D304E0013002E04E
:103D2000023000E0033002300A2100BF10F8012CFD
:103D30005F2A08BF0131CAB20A2A15D802785F2A61
:103D400008BF0131CAB20A2A0ED842785F2A08BFDA
:103D50000131CAB20A2A07D8827804305F2A08BF24
:103D60000131CAB20B2AE1D300200721FFF736FD4B
:103D70002046FFF75BFD44F68040C0F60000FFF7E9
:103D80000FFD44F67F40C0F60000BDE81040FFF78D
:103D900007BD00009CB040F2C00AC2F2000A40F227
:103DA000E770AAF82C0001271220AAF82E70AAF8B2
:103DB000300040F2E410C2F200000026A0F8E863F0
:103DC000FDF7EEFE12AD281D2421FCF7FDF90220BF
:103DD00012901020179028460B96CDE90966169789
:103DE0001996FEF78DF928B1EFF3108072B600BF77
:103DF000FEE700BF0F20CDE90D064FF48060CDE94E
:103E000010060DA800210F96FEF772F820B1EFF30F
:103E1000108072B6FEE700BF0225002708A80895AB
:103E20000A97FDF7DFFF28B1EFF3108072B600BFED
:103E3000FEE700BF41F21800CDE91477C4F202009A
:103E4000016840F6004441F0100101600168C4F2CD
:103E5000010401F010010D910D990168002241F05B
:103E60002001016001684FF4804901F020010D91AB
:103E70000D99016841F004010160016801F004013D
:103E80000D910D99016841F00801016000684FF43F
:103E9000804100F008000D900D982046FDF766FE69
:103EA0004FF4604012AE12904FF0030B04F58060A7
:103EB0003146CDF84CB0FDF745FD04F500603146C4
:103EC000CDE912BBFDF73EFD49F6E460A4F580683C
:103ED000CDE9120B40463146FDF734FD43F23F0079
:103EE000CDE9120B20463146FDF72CFD0120A346FB
:103EF000CDE9130740F6000458463146CDF8489006
:103F00001595C4F20004FDF71DFD4FF40040CDE906
:103F10001207584631461497FDF714FD4FF4807090
:103F2000CDE91207404631461497FDF70BFD0420FA
:103F3000C4F2010001684FF47A7241F0E06141F48B
:103F40000041016040F68C30C2F20000072110975A
:103F5000CDE90E77CDE90877CDE91777CDE915776B
:103F6000C0E90041C0E9027207618761FEF7F6FA15
:103F700020B1EFF3108072B6FEE700BF4FF480501F
:103F80000D9040F68C30C2F200000DA9FEF786FBC2
:103F900020B1EFF3108072B6FEE700BF40F68C3020
:103FA000C2F20000FEF788FD20B1EFF3108072B678
:103FB000FEE700BF40F68C30C2F2000008A9FEF711
:103FC0008FFA28B1EFF3108072B600BFFEE700BF92
:103FD000602012900020CDE91300169040F68C303E
:103FE000C2F2000012A90022FEF768FC20B1EFF334
:103FF000108072B6FEE700BF40F68C30C2F20000BF
:1040000012A90422FEF75AFC20B1EFF3108072B619
:10401000FEE700BF40F68C30C2F2000012A9082271
:10402000FEF74CFC20B1EFF3108072B6FEE700BF44
:1040300040F68C30C2F2000012A90C22FEF73EFCC2
:1040400020B1EFF3108072B6FEE700BF40F68C3966
:10405000C2F200094846FEF7EBFB43F20001C4F24E
:104060000201504640F8181FFDF7C2FB20B1EFF3E4
:10407000108072B6FEE700BF0BF5C0515046002617
:1040800040F84C1F4FF480714FF4602202271796BE
:1040900006730675C261C0E901610761FDF7BEFAEA
:1040A00020B1EFF3108072B6FEE700BF03200121BC
:1040B0001290CDE913104FF4E04018900AF14C0033
:1040C00012A9169715960390FDF758F820B1EFF353
:1040D000108072B6FEE700BF0420129002201390F9
:1040E000039812A9FDF74AF820B1EFF3108072B6D9
:1040F000FEE700BF40F644300021C2F200004FF05E
:10410000804207234FF47A771091CDE90E11CDE963
:104110000811CDE91711CDE91511C0E90023C0E957
:10412000021701618161FEF719FA18B1EFF31080EF
:1041300072B6FEE74FF480500D9040F64430C2F264
:1041400000000DA9FEF7AAFA20B1EFF3108072B6B5
:10415000FEE700BF40F64430C2F20000FEF7ACFCC0
:1041600020B1EFF3108072B6FEE700BF40F6443096
:10417000C2F2000008A9FEF7B3F918B1EFF31080FE
:1041800072B6FEE7602012900020CDE91300169071
:1041900040F64430C2F2000012A90022FEF78EFB66
:1041A00020B1EFF3108072B6FEE700BF40F6443056
:1041B000C2F2000012A90422FEF780FB20B1EFF347
:1041C000108072B6FEE700BF40F64430C2F2000035
:1041D000FEF72EFB40F6D43004F58041C2F2000019
:1041E00000270C234FF4E13280E88600C0E9037712
:1041F000C0E90537C761FEF713FE18B1EFF3108071
:1042000072B6FEE70398FCF72FFFD9F800000122F1
:10421000016841F00101016020460021FFF72EF9FD
:10422000204604210122FFF729F920460821012216
:10423000FFF724F920460C210122FFF71FF940F671
:104240004435C2F2000528680122016841F00101ED
:1042500001604FF080400021FFF710F94FF08040DF
:1042600004210122FFF70AF940F23C16D5F800C0FC
:10427000C2F2000600270A2514214FF4FA746420C4
:10428000D9F8002037607760F5603161B482B0768C
:10429000B76033685363F7613762B562F1623486A1
:1042A00086F836007762F3699363B763F7637564E2
:1042B000B164A6F84C4086F852003764B36BD36300
:1042C0007765B76535667166A6F8684086F86E0052
:1042D000F765736D136437677767F567C6F8801005
:1042E000A6F8844086F88A00B767326FCCF834208D
:1042F000C6F88C70C6F89070C6F89850C6F89C1036
:10430000A6F8A04086F8A600C6F89470D6F88C10DF
:1043100040F6D430C2F20000CCF838108AF8207091
:104320008AF82270CAF82470CAF828708AF80870CF
:104330008AF809708AF80A70FFF728FA00200690B8
:10434000002002900020002405900020049003E04B
:1043500006900798CDE90450FFF768FB40F6D4308B
:10436000C2F20000FFF728FBFCF720F840F29000B3
:10437000C2F200000078C00612D540F2E410C2F28A
:104380000000B0F8E8234FF4FA71FEF76DFE38B97B
:1043900040F29001C2F20001086820F010000860AD
:1043A0009AF83A0000286AD000208AF83A00BAF851
:1043B0003600013081B23C29AAF836005FD10020D6
:1043C000AAF83600BAF83400013081B23C29AAF8C4
:1043D000340054D10020AAF83400BAF83200013079
:1043E00081B21829AAF8320049D10020AAF8320077
:1043F000BAF8300044F684310130AAF83000BAF837
:104400002E30C0F6000101EB4301BAF82C2031F840
:10441000021C022B1BD145F62943CCF28F235343B8
:104420004DF20B754FEA3317C0F2A305AF420DD31F
:1044300045F629474FEAB303C0F28F27BB4206D3A4
:1044400012F0030208BF013101E000BF013109B2DF
:1044500080B20131814212D10120AAF83000BAF8AD
:104460002E00013081B20D29AAF82E0007D10120BB
:10447000AAF82E00BAF82C000130AAF82C0040F25D
:104480009000C2F200000068810616D540F290014B
:1044900020F02000C2F200010860BAF92C00BAF83E
:1044A0002E10BAF83020BAF83230BAF83470BAF8B0
:1044B0003650CDE90075FFF745F840F64430C2F2BA
:1044C00000000068D9F80010B2689AB1726AC2B3ED
:1044D000326C002A5BD0F26D002A00F07F80B16F51
:1044E000002900F0A380D6F89410002940F0FC8049
:1044F000C4E000BF326873689A4203D14FF6FF727E
:104500001BE000BF776835683268F368AF4207DDAB
:1045100077681A44BA4209DAF26833681A4408E044
:104520009A4205DDF26833689A1A02E0726800E088
:104530000022326032684A633269B260726A002ACD
:10454000C6D1F269336A9A4202D14FF6FF721AE07D
:10455000376AF569F269B36AAF4207DD376A1A4410
:10456000BA4209DAB26AF3691A4408E09A4205DDF0
:10457000B26AF3699A1A02E0326A00E00022F2613C
:10458000F2698A63F26A7262326C002AA3D1B26B5A
:10459000F36B9A4202D14FF6FF721AE0F76BB56BDC
:1045A000B26B736CAF4207DDF76B1A44BA4209DA9B
:1045B000726CB36B1A4408E09A4205DD726CB36BFF
:1045C0009A1A02E0F26B00E00022B263B26BCA6397
:1045D000B26C3264F26D002A7FF481AF726DB36DFC
:1045E0009A4203D14FF6FF711BE000BFB76D756DA6
:1045F000726D336EAF4207DDB76D1A44BA4209DA05
:10460000326E736D1A4408E09A4205DD326E736DA6
:104610009A1A02E0B26D00E000227265726D0A64BF
:10462000716EF165B16F00297FF45DAF316F726F0C
:10463000914203D14FF6FF711CE000BF736F376FDB
:10464000316FF26FBB4207DD736F1144994209DA93
:10465000F16F326F114408E0914205DDF16F326F66
:10466000511A02E0716F00E000213167316F416340
:10467000D6F88010B167D6F89410A9BBD6F88C1084
:10468000D6F89020914203D14FF6FF702AE000BF88
:10469000D6F89030D6F88C70D6F88C10D6F89820D2
:1046A000BB420BDDD6F89030114499420EDAD6F8B1
:1046B0009810D6F88C2011440DE000BF914209DD1E
:1046C000D6F89810D6F88C20511A04E0D6F890103D
:1046D00001E000BF0021C6F88C10D6F88C10816371
:1046E000D6F89C00C6F8940040F29C00C2F200008C
:1046F000007860B140F29C02C2F200025168C0EB47
:10470000C00006EB800040F8181C002010704046E6
:104710004FF48071FDF724FA07460138B0FA80F0B3
:104720004009079058464FF40041FDF719FA012F50
:104730000BD10599079AC9B2914206D001218AF896
:104740003C1047F23051CAF840100138B0FA80F0FE
:104750004FEA50150AD10498C0B2A84206D00120F1
:104760008AF8440047F23050CAF84800DAF84000AE
:1047700050B99AF83C00012806D100208AF83C0084
:104780004FF4FA70CAF84000DAF8480050B99AF8C5
:104790004400012806D100208AF844004FF4FA7042
:1047A000CAF848009AF8200001280FD1DAF824004E
:1047B00060B9DAF8280048B900208AF82000012002
:1047C0008AF822004EF66020CAF828009AF82000E5
:1047D00050B9DAF8240038B101208AF820008AF8AC
:1047E00022000020CAF828009AF82200012813D1DC
:1047F000DAF8280080B900208AF822009AF8200010
:104800004FF480410138B0FA80F0470958463A46E3
:10481000FDF7ACF98AF8217040F20000C2F2000006
:10482000006800285ED040F20000C2F20000C0899B
:1048300060B340F20007C2F2000779893A89BB8968
:10484000490801EB52015A0802EB5101420802EB00
:104850005101B88140F6A13081424FF0000039810A
:104860007B81F88109D8DAF8240040F08000CAF88A
:10487000240047F23050CAF80C00DAF80C0028B9CE
:10488000DAF8240020F08000CAF82400BAF81410E6
:10489000E1B3BAF81200BAF81020400800EB520059
:1048A000400800EB5100AAF812100021AAF81410D9
:1048B00040F20001AAF81000C2F20001496839B3C1
:1048C000BAF80620BAF80210C2B340F2CE57C2F2CC
:1048D000000737F81130013203445B0827F8113024
:1048E00034E000BFE0B2022800F09080012800F020
:1048F000BF80002897D10398FCF77EFD40F20001AD
:104900000A20C2F20001086001248CE7069930E019
:10491000BAF802104FF4FA734A1C91B2B1F5FA7169
:1049200018BF1146BAF80420AAF80210013292B258
:10493000B2F5FA7F28BF1A46AAF8042040F2CE52F8
:1049400089B2C2F2000222F811000122069BD9B2FC
:104950000129194608BF0221B0F5FA6F28BF194690
:1049600040F6FD039842AAF8062002D3C8B20328F5
:104970000ED0C8B2069107990428CDE904513FF63C
:10498000EBAC01220692DFE800F005A199110300CB
:104990000120DDE40298C0B20A2800F093800028CC
:1049A00004BF0A20029000208FE000BFDAF8241034
:1049B0009AF83C00C90765D1012807984FF0030118
:1049C0000691CDE904507FF4C7AC9AF84400032166
:1049D000012807980691CDE904507FF4BDACDAF8C0
:1049E000240040F00100CAF82400308B7060B08EC3
:1049F00030629AF8200000284FF0000008BF4FF402
:104A0000C870B060B068706258E000BF039F0121B9
:104A10003846FCF7DDFC40F20004C2F20004E081FD
:104A200038460221FCF7D4FCAAF8140040F2C67004
:104A300020603846FCF73CFD40F29000C2F20000D6
:104A4000006801060BD540F20000C2F20000C089E8
:104A5000FFF7C4F840F29000C2F200000068400680
:104A600003D5BAF81400FFF727F90024DBE600BFEE
:104A70009AF8000000286FD000208AF80000022475
:104A8000D1E600BF002807984FF003010691CDE959
:104A900004507FF461AC9AF8440003210028079881
:104AA0000691CDE904507FF457AC0020706030626D
:104AB000DAF8240020F00100CAF824000320FFF7F0
:104AC00047BC00BF0020029001200690DAF82410B5
:104AD0009AF83C00C90725D101280798CDE9045070
:104AE0007FF43AAC9AF8440001280798CDE90450C5
:104AF0007FF432ACDAF8240040F00100CAF8240058
:104B0000B08A7060308E30629AF8200000284FF032
:104B1000000008BF4FF4C870B060B0687062FFF763
:104B200018BC00BF00280798CDE904507FF414ACEE
:104B30009AF8440000280798CDE904507FF40CACA3
:104B4000002070603062DAF8240020F00100CAF81A
:104B50002400FFF7FEBB00BF9AF80100411C0A28A1
:104B60008AF801107FF6CAAE40F2000100246420EA
:104B7000C2F200018AF8014008600398FCF798FC33
:104B800051E601021F001C001F001E001F001E0036
:104B90001F001F001E001F001E001F00000000005D
:104BA00000000000010203040607080900000000DD
:104BB000010203045F44495341424C455F454E4165
:104BC000424C455F4552524F525F4F46465F4F4BF6
:104BD0005F4F4E5F005F205F305F315F325F335F5A
:104BE000345F355F365F375F385F395F415F425F03
:104BF000435F445F455F465F2E5F3A5F00002800D9
:104C00005F305F315F44495341424C455F454E41FF
:104C1000424C455F4F46465F4F4E5F001C005F3F72
:104C20005F52454C41595F4C4544315F4C454432DD
:104C30005F4C4544335F4C4544345F4C4544355FDD
:104C40004C4544365F564241542053484F575F56B7
:104C5000534F4C41522053484F575F54494D4520C4
:104C600053484F575F54494D45205345545F4C5569
:104C700058444154412053484F575F005E005F0A3B
:104C80000D02030405060708090A0B0C0D0E0F1090
:104C900010000000B84C00080000002020000000B8
:104CA00028010008D84C0008200000200012000055
:104CB0004401000800000000E8030000C0270900CC
:104CC000E40CE40CE40C0000010000001000000003
:084CD000FFFF00000024F400C6
:04000005080000ED02
:00000001FF
