:020000040800F2
:10000000281200208901000855330008B932000881
:1000100051330008A90300086D41000800000000EA
:100020000000000000000000000000005D33000838
:10003000311200080000000059330008893600081A
:10004000A3010008A3010008A3010008A301000800
:10005000A3010008A3010008A3010008A3010008F0
:10006000A3010008A3010008A3010008A3010008E0
:10007000A3010008A3010008A3010008A3010008D0
:10008000A3010008A301000891020008A3010008D1
:10009000A3010008A3010008A3010008A3010008B0
:1000A000A3010008A3010008A3010008A3010008A0
:1000B000A3010008A3010008A3010008A301000890
:1000C000A3010008A3010008A3010008A301000880
:1000D000A3010008A3010008A30100086141000872
:1000E000A3010008A3010008A301000800F002F822
:1000F00000F03AF80AA090E8000C82448344AAF188
:100100000107DA4501D100F02FF8AFF2090EBAE885
:100110000F0013F0010F18BFFB1A43F0010318473B
:100120007851000098510000103A24BF78C878C177
:10013000FAD8520724BF30C830C144BF04680C60ED
:10014000704700000023002400250026103A28BF35
:1001500078C1FBD8520728BF30C148BF0B60704739
:100160001FB51FBD10B510BD00F058F81146FFF7C0
:10017000F7FF04F081F800F076F803B4FFF7F2FF20
:1001800003BC00F07DF8000009488047094800479B
:10019000FEE7FEE7FEE7FEE7FEE7FEE7FEE7FEE737
:1001A000FEE7FEE704480549054A064B7047000094
:1001B00099360008ED000008280C002028120020C5
:1001C000280E0020280E00204FF0000200B5134634
:1001D00094469646203922BFA0E80C50A0E80C5067
:1001E000B1F12001BFF4F7AF090728BFA0E80C5018
:1001F00048BF0CC05DF804EB890028BF40F8042B11
:1002000008BF704748BF20F8022B11F0804F18BF7D
:1002100000F8012B7047704770477047754600F033
:100220002BF8AE4605006946534620F00700854688
:1002300018B020B5FFF7B6FFBDE820404FF000062C
:100240004FF000074FF000084FF0000BAC46ACE851
:10025000C009ACE8C009ACE8C009ACE8C00921F0AD
:1002600007018D46704710B50446AFF30080204665
:10027000BDE81040FFF781BF004870472000002014
:1002800001491820ABBEFEE72600020070470000BF
:1002900040F21410C2F2000001F06ABAB0B5044690
:1002A00000688168C90709D0816821F00101816077
:1002B00001F08CFD21688968C90701D10020B0BD1B
:1002C000054602E08068C007F8D001F07FFD411BC1
:1002D00020680329F6D38168C907F3D0A06A40F0EB
:1002E0001000A062E06A40F00100E0620120B0BDB1
:1002F000B0B582B004460020019021688A68D20718
:100300004FD1886840F00100886040F21C00C2F2C2
:10031000000000684DF68361C4F21B31A0FB0101AF
:10032000880C01900198A0B10198013801900198C2
:1003300078B1019801380190019850B101980138C5
:100340000190019828B10198013801900198002886
:10035000EAD101F03BFD21688968C9071CD1054637
:1003600003E000BF8068C0071AD101F02FFD411BD8
:1003700020680329F6D38168C907F3D1A06A40F049
:100380001000A062E06A40F00100E062002084F802
:100390002400012002B0B0BD002002B0B0BD00BFFB
:1003A000002002B0B0BD0000FEE70000F0B583B051
:1003B00040F28806C2F20006707B002800F0228519
:1003C000307B0138812800F21685DFE810F08700C5
:1003D0009D00AF00B900C300CD00D700E100EF00E1
:1003E000F500140509010F01150127011405140575
:1003F00014051405140583008300830014051405F7
:100400001405140514051405140514051405140524
:100410001405140514051405140514051405140514
:100420001405140514051405140514051405140504
:1004300014051405140514051405140514051405F4
:1004400014051405140514051405140514051405E4
:100450003D011405140514051405140514051405AF
:1004600014051405140514051405140514051405C4
:100470001405140514051405140514057603140554
:1004800014051405140514051405140514051405A4
:1004900014057301A90114051405140514051405A8
:1004A000140514051405140514051405D9011405C3
:1004B000140583001405140514051405140514050A
:1004C0001405140514051405140514051405140564
:1004D000130200BF707B00F08EBC00BF45F21425F4
:1004E00045F282270024C0F60005C0F6000700BFD1
:1004F000285D5F28384618BF281903F0EBFC01344B
:100500006A2CF5D100F077BC707B0338032800F229
:100510007284DFE810F00500BF010500BF0100BFD5
:10052000B06820F00100B060022088E0B069B0F54A
:100530007A7F00F39F8101203075032030E000BFF7
:10054000B069B0F57A7F00F39781022030750420FE
:1005500026E000BFB069B0F57A7F00F38F810320F9
:10056000307505201CE000BFB069B0F57A7F00F35C
:10057000878104203075062012E000BFB069B0F515
:100580007A7F00F37F8105203075072008E000BFE7
:10059000B069B0F57A7F00F37781062030750820C6
:1005A000052102F099FF00F026BC00BFB06840F0C2
:1005B0000800B06000F01FBC707B012840F60040CE
:1005C000C4F2010040F04E81717B052940F04A8160
:1005D0004FF48041002201F0F3FB0A202FE000BF1E
:1005E000B06840F01000B06000F005BCB06840F0AA
:1005F0002000B06000F0FFBB707B0338032800F2DE
:10060000FA83DFE810F005004D0105004D0100BF41
:10061000B06820F08000B0600E2010E0707B0338DE
:10062000032800F2E883DFE810F00500410105002F
:10063000410100BFB06820F04000B0600F200421ED
:1006400002F04AFF00F0D7BB707B0338032800F2AA
:10065000D283DFE810F0050035010500350100BF49
:1006600040F6BE15C2F2000540F60D2025F8C60F73
:10067000022045F2142201AC8DF80400A81CC0F63B
:1006800000022146422303F01BF89DF804002022BB
:10069000411C2A54C8B245F2A8128DF8041028440F
:1006A000C0F600022146042303F00AF89DF8040076
:1006B000B5E100BF707B0338032800F29C83DFE8BC
:1006C00010F0050029010500290100BF40F6BE1504
:1006D000C2F2000540F60D2025F8C60F022045F2B3
:1006E00014220DF106048DF80600A81CC0F60002C5
:1006F0002146632302F0E4FF9DF806002022411CFE
:100700002A54C8B245F2A8128DF806102844C0F643
:1007100000022146012302F0D3FF9DF806007EE18E
:1007200040F6BE1CC2F2000C40F60D2045F2A811A6
:10073000ACF8C600C0F60001002000BF0A785F2AAE
:1007400008BF0130C2B2042A00F270814A785F2AE1
:1007500008BF0130C2B2042A00F26A818A785F2A97
:1007600008BF0130C2B2042A00F26481CA780431A1
:100770005F2A08BF0130C2B2052ADFD35BE100BFA8
:10078000707B0338032800F23683DFE810F00500A1
:10079000ED000500ED0000BFB06840F6BE156FF338
:1007A0001400B060C2F2000540F60D2025F8C60F17
:1007B000022045F214220DF10A048DF80A00A81C4B
:1007C000C0F600022146702302F07AFF9DF80A006D
:1007D0002022411C2A54C8B245F2A8128DF80A10F2
:1007E0002844C0F600022146012302F069FF9DF86B
:1007F0000A0014E1707B0338032800F2FC82DFE872
:1008000000F003E103E100BFB06840F6BE1500F060
:100810004040B060C2F2000540F60D2025F8C60F3A
:10082000022045F2142202AC8DF80800A81CC0F684
:1008300000022146822302F043FF9DF80800202297
:10084000411C2A54C8B245F2A8128DF80810284459
:10085000C0F600022146012302F032FF9DF8080095
:10086000DDE000BF4FF48041012201F0A9FA0A2027
:1008700021E000BF032008E0042006E0052004E09A
:10088000062002E0072000E00820032102F024FEF9
:10089000B1E200BFB06840F00100B06002200AE0A1
:1008A000B06840F08000B0600E2004E0B06840F016
:1008B0004000B0600F20062102F00EFE9BE200BF58
:1008C00040F6BE15C2F2000540F60D2025F8C60F11
:1008D000022045F214220DF105048DF80500A81C34
:1008E000C0F600022146422302F0EAFE9DF8050010
:1008F0002022411C2A54C8B245F2A8128DF80510D6
:100900002844C0F600022146062302F0D9FE9DF8D5
:10091000050084E040F6BE15C2F2000540F60D2049
:1009200025F8C60F022045F214220DF107048DF8B8
:100930000700A81CC0F600022146632302F0C0FE97
:100940009DF807002022411C2A54C8B245F2A81283
:100950008DF807102844C0F600022146022302F059
:10096000AFFE9DF807005AE0B06840F6BE1540F4AF
:100970008010B060C2F2000540F60D2025F8C60FC9
:10098000022045F214220DF10B048DF80B00A81C77
:10099000C0F600022146702302F092FE9DF80B0083
:1009A0002022411C2A54C8B245F2A8128DF80B101F
:1009B0002844C0F600022146022302F081FE9DF881
:1009C0000B002CE0B06840F6BE1540F00050B0605F
:1009D000C2F2000540F60D2025F8C60F022045F2B0
:1009E00014220DF109048DF80900A81CC0F60002BC
:1009F0002146822302F064FE9DF809002022411C5A
:100A00002A54C8B245F2A8128DF809102844C0F63D
:100A100000022146022302F053FE9DF80900411C0A
:100A20000D222A54C8B20A212954E4E1013102E01E
:100A3000023100E0033111F8025B0CF1C803052418
:100A4000022200BF11F8017C10465F2F08BF01345D
:100A5000E2B2052A1D701DD80A785F2A08BF01344A
:100A6000E5B2052D5F7019D84F785F2F08BF0134AC
:100A7000E5B2052D9A7015D88D78DF705F2D08BF0F
:100A80000134E7B2021D0431062F03F10403D9D368
:100A9000033009E040F0010206E000BF821C40F094
:100AA000010001E0C21C02300230D1B20CF1C602DA
:100AB0000D235354C0B20A211154707B033803280C
:100AC00000F29981DFE800F002320232B06840F6AD
:100AD000BE1C00F06040B060C2F2000C40F60D2079
:100AE00045F21421ACF8C600C0F6000100200A78D7
:100AF0005F2A08BF0130C2B2572A47D84A785F2A16
:100B000008BF0130C2B2572A42D88A785F2A08BF8C
:100B10000130C2B2572A3DD8CA7804315F2A08BFD3
:100B20000130C2B2582AE2D335E000BFB06840F6C7
:100B3000BE1C40F08050B060C2F2000C40F60D20A8
:100B400045F21421ACF8C600C0F6000100200A7876
:100B50005F2A08BF0130C2B2572A4BD84A785F2AB1
:100B600008BF0130C2B2572A46D88A785F2A08BF28
:100B70000130C2B2572A41D8CA7804315F2A08BF6F
:100B80000130C2B2582AE2D339E000BF013102E09D
:100B9000023100E0033111F8025B0CF1C803582464
:100BA000022211F8017C10465F2F08BF0134E2B227
:100BB000582A1D7052D80A785F2A08BF0134E5B25E
:100BC000582D5F704ED84F785F2F08BF0134E5B2C3
:100BD000582D9A704AD88D78DF705F2D08BF013488
:100BE000E7B2021D0431592F03F10403D9D30330B6
:100BF0003EE000BF013102E0023100E0033111F8B4
:100C0000025B0CF1C8035824022011F8017C024653
:100C10005F2F08BF0134E0B258281D7060D80878F3
:100C20005F2808BF0134E5B2582D5F705CD84F785B
:100C30005F2F08BF0134E5B2582D987058D88D78D1
:100C4000DF705F2D08BF0134E7B2101D0431592F4A
:100C500003F10403D9D303324CE000BF40F001029A
:100C600006E000BF821C40F0010001E0C21C02301F
:100C7000811CD0B20CF1C60C20220CF80020C8B2A6
:100C80000CEB000245F2A810C0F60000831C012402
:100C900044251F7808465F2F08BF0134E1B20129BF
:100CA000157051D859785F2908BF0134E5B2012D7C
:100CB00057704BD89F785F2F08BF0134E5B2012DE4
:100CC000917047D8DD78D7705F2D08BF0134E7B247
:100CD000011D0433022F02F10402DAD303303BE09A
:100CE00042F0010006E000BF901C42F0010201E06A
:100CF000D01C0232C0B260442021023280F8C610FB
:100D000045F2A811D0B2C0F6000100230F785F2F82
:100D100008BF0133DFB2012F28D84F785F2F08BFFB
:100D20000133DFB2012F23D88F785F2F08BF013343
:100D3000DFB2012F1ED8CF7804315F2F08BF0133F7
:100D4000DFB2022FE2D316E0411C05E0811C013026
:100D500002E000BFC11C02300230C9B20D220CF803
:100D60000120C0B20A210CF8001044E0013102E079
:100D7000023100E00331604411F8025B00F1C60467
:100D8000022011F8017C13465F2F08BF0130C2B268
:100D9000022A25701ED80A785F2A08BF0130C5B222
:100DA000022D677018D84F785F2F08BF0130C5B289
:100DB000022DA27014D88D78E7705F2D08BF013026
:100DC000C7B21A1D0431032F04F10404D9D303332D
:100DD00008E000BF5A1C05E09A1C013302E000BF86
:100DE000DA1C0233981CD1B20CF1C6020D23535405
:100DF000C0B20A211154707BFF2804BF0020307359
:100E00000020707303B0F0BD002840F2880CC2F2DD
:100E1000000C1EBF8CF80C008CF80D10CCF81020C4
:100E2000002918BF8CF80D10002A18BFCCF810202C
:100E30009CF80C100139812900F28880DFE811F05C
:100E40009800820088008800880088008800880058
:100E500086009C008600A400860082008200860036
:100E6000860086008600860082008200820086005E
:100E70008600860086008600860086008600860042
:100E80008600860086008600860086008600860032
:100E90008600860086008600860086008600860022
:100EA0008600860086008600860086008600860012
:100EB0008600860086008600860086008600860002
:100EC00086008200860086008600860086008600F6
:100ED0008600860086008600AA00860086008600BE
:100EE00086008600860086008600860086008200D6
:100EF00086008600860086008600860086008600C2
:100F0000860086008200B200860086008600860089
:100F100086008600860086008600860086008200A5
:100F20008600860082008600860086008600860095
:100F30008600860086008600860086008600860081
:100F40008600820000281CBF0120704700207047E7
:100F500020B101208CF80000032070479CF80000AD
:100F6000022827D0012833D00028F2D0EEE700BFB6
:100F700001208CF80D00E9E7002818BF0120E6D118
:100F8000002A08BF0020704770B301208CF80100D0
:100F90000320704700283DD00020ACF80200032059
:100FA000704700BF00284BD00020ACF8040003209D
:100FB000704700BF901E80B2092800F2C180DCF8A3
:100FC000180000EB800002EB4000023807E000BF91
:100FD000012A4FF00000BAD102218CF80010CCF8A1
:100FE00018000220704700BF9CF801000728ADD808
:100FF000DFE800F00406647686A8B896C5E700BF6F
:10100000012A4FF000007FF4A2AF02218CF80110FA
:1010100062E000BF002AC2D0122A25D0012A29D1BD
:101020009CF803000028BAD19CF80200012101308D
:101030008CF80200C0B28CF803106044002125E057
:10104000002AB4D0122A0FD0012A23D19CF805001F
:101050000028ACD19CF8040001308CF80400012079
:101060008CF805000320704701208CF80D00032048
:10107000704700BF9CF8021000208CF8030001EBC1
:101080000C0090F83310023A42EA011180F8331054
:10109000032070479CF804000021013803288CF8D5
:1010A00005103FF684AFDFE800F003A9AFB900BF39
:1010B000901E8CF828000320704700BF901E81B25C
:1010C00009295FD8BCF81C1001EB81014900ACF87C
:1010D0001C10BCF81C100844ACF81C00022070471F
:1010E000901E81B2092959D8BCF81E1001EB81016C
:1010F0004900ACF81E10BCF81E1008444AE000BFBE
:10110000901E81B2092955D8BCF8201001EB81014D
:101110004900ACF82010BCF82010084446E000BF9D
:10112000901E81B209290BD8BCF8261001EB810171
:101130004900ACF82610BCF8261008445AE000BF5D
:1011400000207047901E81B209293FD8BCF82210B8
:1011500001EB81014900ACF82210BCF822100844D0
:1011600030E000BF901E81B209293BD8BCF82410A2
:1011700001EB81014900ACF82410BCF824100844AC
:101180002CE000BF232A4FF000007FF4E0AE0321E3
:101190008CF80110ACF81E0002207047232A4FF093
:1011A00000007FF4D4AE04218CF80110ACF82000CC
:1011B00002207047012A4FF000007FF4C8AE0521DD
:1011C0008CF80110ACF8220002207047252A4FF05D
:1011D00000007FF4BCAE06218CF80110ACF82400AE
:1011E00002207047252A4FF0000018BF70470721E2
:1011F0008CF80110ACF8260002207047901E8CF885
:1012000029000320704700BFDCF82C00911E41EA42
:101210000010CCF82C000320704700BFDCF8300031
:10122000911E41EA0010CCF8300003207047000006
:1012300070470000F0B581B0074645F28620C0F641
:1012400000001C4615460E4602F044FE384602F0E9
:101250008DFE45F2CC10C0F60000471C384602F067
:1012600039FE45F28420C0F6000002F033FE30461D
:1012700002F07CFE45F28520C0F6000002F02AFE56
:10128000284602F073FE384602F024FE45F2832021
:10129000C0F6000002F01EFE204602F05DFC45F2A2
:1012A0008220C0F6000002F015FE45F28120C0F653
:1012B000000001B0BDE8F04002F00CBE70B582B095
:1012C00004460020019094F82400012804D102254E
:1012D000284602B070BD00BF012084F824002046DB
:1012E000FEF7DCFF054600286CD1A06A41F202112E
:1012F00088430230A06240F21C00C2F2000006687F
:10130000022000F021FEB6FBF0F0400001900198B1
:10131000A8B100BF019801380190019878B10198F7
:1013200001380190019850B101980138019001985D
:1013300028B101980138019001980028EAD120468F
:10134000FEF7D6FF2068816841F00801816000F057
:101350003DFD21688A6812070ED4886840F00400B9
:10136000886000F033FD21688968490714D40120A2
:101370006FF0030122E000BF064602E08868000724
:10138000EBD500F023FD801B21680B28F6D388687D
:101390000007F3D50EE000BF064602E08068400774
:1013A000E5D500F013FD811B20680B29F6D3816879
:1013B0004907F3D5012510206FF01201A26A1140F0
:1013C0000843A062002084F82400284602B070BDC3
:1013D000F0B581B00022009290F82420012A05D1B6
:1013E0004FF0020C604601B0F0BD00BF8368D1F839
:1013F00004E0012280F82420A3B10A690668BEEB4C
:10140000020404EB8404B56B04F10F044FF01F03D6
:1014100003FA04F325EA030323F4401516D9B56350
:101420001FE000BFBEF1010F40F0AA8006684FF038
:10143000000CB26B0D686FF3150242EAC532B2635D
:101440004FF0010EB268D20710D016E040F2000C47
:101450000B68CFF6F07C0CEB0252A3401A432A43F0
:10146000B2634FF0000CB268D20706D1B26847F2FF
:1014700001038C699A432243B2604A7D012A1FD03E
:101480000B7D012B30D00A68092A02EB42043FD9B8
:10149000F3681E3C07258F68A540AB4307FA04F4A8
:1014A000234322F00104102CF36049D1B3680125D5
:1014B00043F40003B360BEF1030F36D144E000BF34
:1014C0008B6900F12804B3F5E04F4FF0200314BFFF
:1014D0004FF0010C341D08BF4FF4806325682B4387
:1014E00023600B7D012BCED100F12803002A4FF0A1
:1014F000200214BF4FF0010C331D08BF4FF480527F
:101500001C6822431A600A68092A02EB4204BFD809
:10151000336907258F68A540AB4307FA04F42343DA
:1015200033610025BEF1030F0ED0BEF1020F0FD0C4
:10153000BEF1010F14BF06F1200406F1140409E006
:101540000025BEF1030FF0D106F11C0402E000BF3C
:1015500006F11804236840F6FF77C968BB431943B6
:10156000002D216048D042F20041C4F201018E42B8
:1015700012D0816A4FF0010C41F0200181623BE002
:101580000668826A4FF0010C42F020028262B26863
:10159000D2073FF46BAF70E7896809022CD4B168B9
:1015A000102A41F40001B16026D140F21C01C2F2C0
:1015B000000109684DF68362C4F21B32A1FB0212DE
:1015C000910C01EB8101490000910099A1B10099B2
:1015D00001390091009979B1009901390091009980
:1015E00051B1009901390091009929B1009901394F
:1015F000009100990029EAD1002180F8241060466A
:1016000001B0F0BD006842F20041C4F2010188421D
:1016100018BF704740F2CC00C2F2000001210170F7
:1016200070470000022909D003290BD00068042963
:1016300014BF3C3048300068704700BF006840303D
:1016400000687047006844300068704710B5044671
:1016500090F82400012804BF022010BD012084F866
:1016600024002046FEF744FE20B1002184F8241017
:1016700010BD00BF42F204422168A06AC4F2010218
:1016800043F20103984302F57F7300F580509942BD
:10169000A06203D0A06A20F4801006E0106810F465
:1016A000702FF7D0A06A40F48010A062A06AC00535
:1016B0005CBF0020E062002084F824006FF0040486
:1016C0000C604C6844F080044C604C68640548BF72
:1016D00010BD886800F4E040B0F5E04F05D19942B4
:1016E0000AD1106810F4702F06D0886840F40040CA
:1016F0008860002010BD00BF886840F40210886038
:10170000002010BD10B5044690F82400012804BF45
:10171000022010BD012084F82400A06AC0050BD46B
:1017200020684068400507D42046FEF7B7FD68B141
:10173000002184F8241010BDA06A40F0200101208F
:10174000A162002184F8241010BD00BF2068416808
:1017500021F080014160A06A41F201118843411CDF
:101760000020A162002184F8241010BD7047000001
:1017700010B5044600684168890644BF01685FEA05
:1017800081710BD44168090644BF01685FEA417169
:101790002AD4416849065BD410BD00BFA16AC906BE
:1017A00003D4A16A41F40071A162816801F460214F
:1017B000B1F5602F10D1217B71B9416821F0200172
:1017C0004160A06A20F48070A062A06AC00403D4C3
:1017D000A06A40F00100A0622046FFF7C7FF206822
:1017E0006FF012010160CDE7A16AC90603D4A16AB6
:1017F00041F40051A162816801F4E041B1F5E04F8C
:1018000010D1416821F080014160A06A20F480502D
:10181000A062A06AC00511D4A06A40F00100A062D5
:101820000CE000BF4168490508D4816801F46021DB
:10183000B1F5602F02D1217B0029E2D02046FFF7CD
:10184000E1FE20686FF00C01016041684906A3D5F4
:101850000068C00708BF10BDA06A40F48030A062D5
:10186000204600F0B3F820686FF00101016010BD60
:10187000B0B5002800F0A8800446806A20B1216835
:101880008868C0070BD114E00020E06284F82400CF
:10189000204600F09DF821688868C00709D0886854
:1018A00020F00100886000F091FA21688A68D20770
:1018B00026D1A06AC0063AD4A06A41F2021290432F
:1018C0000230A062E069D4E9013240EA030C531E01
:1018D000B3FA83F35D091346B2F5807F18BF2B027C
:1018E000207D257B01284CEA450030D135B3A56A1F
:1018F00045F02005A562E56A45F00105E56226E0B0
:10190000054602E08868C007D3D000F05FFA401BAC
:1019100021680328F6D38868C007F3D0A06A40F096
:101920001000A062E06A40F00100E062A06AA06AD4
:1019300040F01000A0620120B0BD00BFD4F818C074
:101940004EF60005CFF6FF7505EB4C352B434D6881
:10195000B2F5807F25F4694543EA05034B608B6847
:101960004FF2FD75CFF6E17503EA050343EA000384
:101970008B6001D0012A07D122690023CFF6F073D2
:1019800003EB025201E000BF0022CB6A23F4700394
:101990001A43CA62896840F6FE62CFF61F72114090
:1019A000814207D10020E062A16A012262F30101B5
:1019B000A162B0BDA06A40F0100020F00200A06259
:1019C000E06A40F00100E0620120B0BD7047000015
:1019D00080B586B0014640F60000C4F201000968F7
:1019E00000F5E05291424FF00001CDE9041101D021
:1019F00006B080BD41F21801C4F202010A6842F447
:101A000000720A600A6802F400720192019A0A6880
:101A100042F004020A60096801F004010191019991
:101A2000182102910321039102A900F0B5F81220B8
:101A30000021002200F04CFA122000F035FA06B026
:101A400080BD0000002804BF0120704710B5044687
:101A5000407918B101206071002010BD0020207174
:101A6000204600F005F801206071002010BD000044
:101A700081B0006843F20001C4F20201884201D043
:101A800001B0704741F21400C4F20200016841F055
:101A900040010160006800F040000090009801B033
:101AA00070470000014690F82100022816D108680E
:101AB000D1E90FC3026822F00E020260026822F030
:101AC00001020260012000FA03F2CCF8042081F840
:101AD00021000020002281F8202070470420886324
:101AE0000120002281F820207047000080B590F886
:101AF0002110022924D10268116821F00E01116021
:101B00002F211368C4F202018A4240F20401C4F298
:101B1000020123F00103136016DD3023C4F2020337
:101B20009A421DD04423C4F202039A421CD0582387
:101B3000C4F202039A421DD14FF4803322E000BF69
:101B400004218163012080BD0823C4F202039A426C
:101B50000ED01C23C4F202039A420BD1102311E0D1
:101B60004FF480730EE000BF4FF480530AE000BFD3
:101B7000012307E001F1680C4FF08073624508BF54
:101B80004FF480130B60416B4FF48072028401B1FB
:101B90008847002080BD00002DE9F04F82B00E681C
:101BA000002E00F0038140F20C4C41F200424FF64F
:101BB000FF7EC4F2010CC4F20102042700240123B9
:101BC000C1F2100E4FF0000A4FF00009904208BF1A
:101BD0000327009745E000BF012704F00C030F2204
:101BE0009A402BEA020207FA03F34FEA9A051A43D6
:101BF00046F82520D1F804B040F20045C4F20105B2
:101C00005FEACB322A6854BF22EA080242EA08029D
:101C10002A606A685FEA8B3354BF22EA080242EA0C
:101C200008026A605FEACB23AA6854BF22EA08026E
:101C300042EA08025FEA8B23AA60DCF800204FF03A
:101C4000010354BF22EA080242EA0802CCF800204D
:101C50000E680AF1010A36FA0AF204F1040400F0EF
:101C6000A58003FA0AF816EA080FF1D04E68764507
:101C700012DC122E56D8DFE806F0350B45495555D3
:101C800055555555555555555555554D510000BF50
:101C9000D1F80C9046E000BF4FF6FF72C1F221026E
:101CA00096420FDC0022C1F2110296421AD00022A5
:101CB000C1F21202964215D00022C1F221029642D0
:101CC00010D02FE00022C1F2220296420AD0002258
:101CD000C1F23102964205D00022C1F23202964290
:101CE00020D100BF8A684AB1012A14BFC0F814800D
:101CF000C0F810804FF0080914E000BF4FF004094D
:101D000010E000BFCA6802F108090BE04FF00009BB
:101D100008E000BFCA6802F1040903E0CA6802F1E2
:101D20000C0900BF22460646BAF1080F24BF203A2C
:101D3000043637680F25954027EA050509FA02F2AF
:101D40002A433260CA79D2067FF582AF41F2180386
:101D5000C4F202031A6842F001021A601A6802F023
:101D600001020192019A40F20042C4F20102A2F57E
:101D70007E762AF0030256F802B040F60002C4F262
:101D80000102904210D040F60042C4F2010290429B
:101D90003FF422AF41F20002C4F20102009F9042E0
:101DA00008BF022719E700BF002716E702B0BDE809
:101DB000F08F00008068084018BF012070470000C5
:101DC000002A08BF090401617047000040F6204066
:101DD000C2F200000068704740F2100040F6204157
:101DE000C2F20000C2F2000100780A6810440860E4
:101DF0007047000080B542F20000C4F202000168A2
:101E000041F010010160032000F08EF8002000F086
:101E100005F800F027F8002080BD000070B540F202
:101E20001006C2F2000640F21C013278C2F2000134
:101E30004FF47A730968B3FBF2F20446B1FBF2F196
:101E4000084600F061FC0F2C4FF0010508D838B9A6
:101E50004FF0FF3021460022002500F039F8746071
:101E6000284670BD82B041F21800C4F20200016839
:101E7000022241F001010160016801F001010191BC
:101E80000199416841F080514160406800F0805004
:101E9000009000980420C4F20100016862F31A6106
:101EA000016002B070470000002848BF7047C1B20F
:101EB00000F01F00012202FA00F04EF20012CEF2F2
:101EC000000242EAD10121F00301086070470000DE
:101ED00010B54EF60C5CCEF2000CDCF80030C3F30B
:101EE000022E8EF00704042C28BF0424BEF1030345
:101EF0004FF0FF3E0EFA04F438BF0023A14399408F
:101F00000EFA03F39A43114300F00F0200F160430D
:101F10000901043A03F564436244002848BF02F112
:101F20000C03197010BD00004EF60C51CEF20001EA
:101F30000A684FF6FF031A4060F30A2242F08060FD
:101F400040F0FD700860704780B5012818D0022865
:101F500036D0102832D141F20401C4F202010A68DD
:101F600051F8040CC00129D5C2F383402DA3185C9D
:101F7000D2033DD440F60012C0F23D02504343E08C
:101F800041F20400C4F20200C16940F202320A4088
:101F9000B2F5817F04BF4FF4004080BD01F4407171
:101FA000B1F5407F1CD0B1F5007F07D1006A49F63A
:101FB0004041800701EAE07080BD00BF002080BD85
:101FC00000F0B4F941F20401C4F2020109680222EE
:101FD000C1F3813102EB4101B0FBF1F080BD00BFE4
:101FE00050F8040C4FF22441800301EAE07080BDF8
:101FF0000A6810A3C2F340429A5C41F20023C0F287
:102000007A03B3FBF2F250430968490248BF80BD2E
:102010004AF6AB214000CAF6AA21A0FB01014808FC
:1020200080BD00BF02030405060708090A0B0C0D5A
:102030000E0F1010010200002DE9F04182B004469D
:10204000007841F21C06C007C4F202064AD030688C
:1020500010F0805808D1306840F08050306030680F
:1020600000F080500190019847F20007C4F2000789
:102070003868C00512D4386840F480703860FFF7C3
:10208000A5FE05463868C00508D4FFF79FFE401B33
:102090006428F7D9032002B0BDE8F081706810F41D
:1020A000407012D0616801F4407188420DD07068B0
:1020B00040F24042C4F24222012320F440711360F6
:1020C0000023C007136071602AD17068616820F432
:1020D00040700843B8F1000F706003D1306820F001
:1020E000805030602068810707D556F8181CA26818
:1020F00021F44041114346F8181CC00604D40020C6
:1021000002B0BDE8F08100BF56F8180CE16820F479
:102110008000084346F8180C002002B0BDE8F081AA
:10212000FFF754FE054641F2883700BF706880070C
:10213000CBD4FFF74BFE401BB8424FF00300F5D95C
:10214000EBE700002DE9F04381B0002800F0858026
:1021500042F20008C4F202080446D8F800000D4616
:1021600000F0070088420CD2D8F8000020F00700E9
:102170002843C8F80000D8F8000000F00700A84283
:102180006BD1206841F204098107C4F2020917D516
:10219000410705D5D9F8001041F4E061C9F80010F5
:1021A000010705D5D9F8001041F46051C9F80010B5
:1021B000D9F80010A26821F0F0011143C9F800100D
:1021C000C00741D1D8F8000000F00700A8420CD9A0
:1021D000D8F8000020F007002843C8F80000D8F81D
:1021E000000000F00700A84237D12068410707D55A
:1021F000D9F80010E26821F4E0611143C9F8001039
:10220000000708D5D9F80000216920F4605040EAA1
:10221000C100C9F80000D9F8002002F00C0008281D
:1022200041F20020C0F27A0050D145F28723C2F378
:102230008341C0F60003595CD2033BD440F6001042
:10224000C0F23D00484341E0606802280AD00128FE
:102250002AD159F8041C890308D4012001B0BDE833
:10226000F08300BF59F8041C8901F6D5D9F8001095
:1022700021F003010843C9F80000FFF7A7FD064657
:1022800041F28837D9F80000616800F00C00B0EB2B
:10229000810F97D0FFF79AFD801BB842F2D9032037
:1022A00001B0BDE8F08300BF59F8041C8907D4D5FC
:1022B000DCE700BFD9F8002045F27613C2F34042B4
:1022C000C0F600039A5C4843B0FBF2F0D9F8001066
:1022D00045F29012C1F30311C0F60002515C40F2C6
:1022E0001C0220FA01F140F21400C2F20000006862
:1022F000C2F200021160FFF791FD002001B0BDE8BD
:10230000F083000040F21C0041F20401C2F2000020
:10231000C4F202010068096845F2A012C1F302216B
:10232000C0F60002515CC8407047000040F21C003B
:1023300041F20401C2F20000C4F20201006809681F
:1023400045F2A012C1F3C221C0F60002515CC840A0
:10235000704700002DE9F04182B0002868D00446A3
:10236000007841F20006C007C4F2020625D070686A
:1023700000F00C0004281BD0706800F00C00082846
:1023800002D17068C00313D46068002800F068812F
:10239000B0F5A02F00F07C81B0F5803F00F07C818B
:1023A000306820F480303060306820F4802076E19E
:1023B0003068800301D56068D0B32078800718D5D5
:1023C000706810F00C0F07D0706800F00C0008283F
:1023D0006ED17068C0036BD43068800702D5206965
:1023E000012825D13068616920F0F80040EAC10079
:1023F0003060207800071FD42078400732D4E56988
:1024000095B1706800F00C00082840F08F80012D15
:102410000ED07068216A00F480328A4208D1616A65
:1024200000F47010884203D1002002B0BDE8F081B2
:10243000012002B0BDE8F081A069002862D0002030
:10244000C4F242200121C0F88014FFF7BFFC05460A
:10245000706A800700F18C80FFF7B8FC401B0228EF
:10246000F6D92AE1F06910F0805808D1F06940F0FF
:102470008050F061F06900F080500090009847F2C1
:102480000007C4F200073868C00529D4386840F452
:1024900080703860FFF79AFC054600BF3868C005B9
:1024A0001ED4FFF793FC401B6428F7D905E100BF59
:1024B0002069002840F20000C4F2422000F082802F
:1024C00001210160FFF782FC054600BF30688007EC
:1024D0003FF588AFFFF77AFC401B0228F6D9ECE005
:1024E000E068002800F08080052800F0978001282F
:1024F00000F09880306A20F001003062306A20F0ED
:10250000040092E00020C4F242200021C0F88014B0
:10251000FFF75CFC054600BF706A80077FF56CAF73
:10252000FFF754FC401B0228F6D9C6E00027C4F28E
:10253000422700203866FFF749FC022D05460BD1E3
:102540003068800140F1BE80FFF740FC401B02284C
:102550004FF00300F4D968E7306880017FF564AF7D
:10256000FFF734FC401B02284FF00300F4D95CE76E
:1025700040F21C00C2F20000006844F6D351C1F2E0
:102580006201A0FB0101480A019000BF00BF019851
:10259000411E002801913FF42FAF00BF0198411E5A
:1025A000002801913FF428AF00BF0198411E002888
:1025B00001913FF421AF00BF0198411E0028019115
:1025C000E4D119E700210160FFF700FC054600BFD8
:1025D000306880077FF50DAFFFF7F8FB401B02283E
:1025E0004FF00300F4D920E7306A20F00100306298
:1025F000306A20F004003062FFF7E8FB054641F244
:10260000883700BF306A800720D5FFF7DFFB401B0B
:10261000B8424FF00300F5D907E700BF306A40F039
:1026200004003062306A40F001003062FFF7CEFBF8
:10263000054641F2883700BF306A800706D4FFF7AD
:10264000C5FB401BB842F7D937E000BFB8F1000F17
:102650007FF4D5AEF06920F08050F061CFE600BF86
:10266000306820F480303060306820F480203060A2
:10267000FFF7ACFB054600BF306880037FF59DAED9
:10268000FFF7A4FB401B64284FF00300F4D9CCE60D
:10269000306840F480203060306840F48030306032
:1026A000FFF794FB054600BF306880033FF585AE19
:1026B000FFF78CFB401B6428F6D9032002B0BDE86D
:1026C000F08100BF206AB0F5803F05D17168A26833
:1026D00021F40031114371607168626A21F4741150
:1026E00011430843706001203866FFF76FFB044612
:1026F000306880013FF598AEFFF768FB001B0228A9
:102700004FF00300F4D990E6411E0020B0EB116FAA
:102710001CBF012070474EF21002CEF20002516041
:102720004EF62351CEF20001F0230B70072190608A
:102730001160704710B590F83C20012A4FF002025A
:1027400033D080F83D200268D2F804E0D2F808C007
:102750000C682EF07003234340F2FF74C4F20004AF
:10276000A24253600ADCB2F1804F13D040F2004322
:10277000C4F200039A420DD011E000BF42F60043BC
:10278000C4F201039A4205D040F60003C4F20003EC
:102790009A4204D149682CF08003194391600121C9
:1027A000002280F83D1080F83C20104610BD00004B
:1027B000002804BF0120704710B5044690F83D0082
:1027C00028B9002084F83C00204600F067F8022079
:1027D00084F83D00206840F2FF730268C4F20003F1
:1027E00042F6004C9842C4F2010C15DCB0F1804F67
:1027F0001AD040F20041C4F20001884214D098423D
:1028000018DCB0F1804F1DD040F20041C4F200014D
:10281000884217D01AE000BF604505D040F600019D
:10282000C4F200018842EAD1A16822F070020A4392
:102830009842E6DD604505D040F60001C4F2000193
:10284000884203D1216922F440720A43A36922F02D
:102850008001D4F804E0E268194360450160C26277
:10286000C0F828E002D16169CCF830100121416143
:10287000002084F8461084F83E1084F83F1084F855
:10288000401084F8411084F8421084F8431084F812
:10289000441084F8451084F83D1010BD82B00068E3
:1028A00040F60001C4F20001884211D0B0F1804F1F
:1028B0001BD141F21C00C4F20200016841F0010189
:1028C0000160006800F001000190019802B07047BB
:1028D00041F21C00C4F20200016841F004010160F1
:1028E000006800F004000090009802B070470000FB
:1028F00080B590F83C20012A4FF0020200F0BF8022
:1029000080F83D20D0F800C04FF67772DCF8083030
:1029100023EA0202CCF808200B683F2B1CDD5F2B5A
:1029200020DD602B50D0B3F5005F6DD0702B40F0F0
:10293000A080D1E901E3C968DCF8082043EA0E036E
:1029400022F47F4243EA01211143CCF80810DCF85D
:10295000081041F077018AE01F2B29DC63B3102BAC
:102960002AD086E0402B63D0502B40F08280D1F8F3
:1029700004E0C968DCF82030DCF8202022F00102F5
:10298000CCF82020DCF8182022F0F00242EA0111F5
:1029900023F00A0242EA0E02CCF81810CCF82020EC
:1029A000DCF8081041F0570121F020015FE000BF82
:1029B000202B01D0302B5CD1DCF8081021F0700105
:1029C000194341F0070152E0D1F804E0C968DCF88E
:1029D000203023F01003CCF82030DCF81830DCF87D
:1029E000202023F4704322F0A00243EA013142EA9E
:1029F0000E12CCF81810CCF82020DCF8081041F0AA
:102A0000670121F0100132E0D1E901E3C968DCF887
:102A1000082043EA0E0322F47F4243EA01211143D6
:102A2000CCF80810DCF8081041F480411FE000BF2A
:102A3000D1F804E0C968DCF82030DCF8202022F06E
:102A40000102CCF82020DCF8182022F0F00242EA43
:102A5000011123F00A0242EA0E02CCF81810CCF859
:102A60002020DCF8081041F0470121F03001CCF8BB
:102A700008100121002280F83D1080F83C2010460B
:102A800080BD000080B586B0006840F60001C4F249
:102A9000000188424FF00001CDE90411CDE9021197
:102AA00016D0B0F1804F30D141F21800C4F20200CC
:102AB000016841F0040101600068032100F0040096
:102AC0000190019840F60000C4F2010015E000BF3B
:102AD00041F21800C4F20200016841F008010160EF
:102AE00000684FF4707100F008000190019840F602
:102AF0000000C4F2010000F5806002910221039100
:102B00000121059102A9FFF747F806B080BD00003A
:102B10002DE9F04390F83C30012B04BF0220BDE8C2
:102B2000F0834FEAB202032A00F2E980DFE802F004
:102B3000023A78B4036842F600461A6AC4F2010603
:102B400022F001021A621D6A1A465C6852F818CF18
:102B5000B3428E68D1F800E025F0020545EA06058B
:102B60000CD1CE68D1E9057824F4407425F00C0529
:102B700026F004063C43354344EA08042CF073076E
:102B800047EA0E075C609F614F6809695F631D62D9
:102B90009F6947F008079F619F6927F004079F61BD
:102BA000AAE000BF036842F600461A6AC4F20106B2
:102BB00022F010021A621D6A1A46D3F804C052F8B5
:102BC000184FB3428E68D1F800E025F0200545EAA1
:102BD000061510D1CE68D1E9058725F0C0096FF040
:102BE000400505EA06152CF4406647EA080745EA61
:102BF000090546EA870C24F4E64444EA0E27C3F8A4
:102C000004C09F614F6809699F631D629F6947F413
:102C100000679F619F6927F480679F616BE000BF39
:102C2000036842F600461A6AC4F2010622F4807272
:102C30001A621D6A1A46D3F804C052F81CEFB34258
:102C40008E680C6825F4007545EA062511D1CE681A
:102C5000D1E9058725F44069360240F2FF4526EAAE
:102C600005052CF4405647EA080745EA090546EAF7
:102C7000071C2EF073072743C3F804C0DF614F68B9
:102C80000969DF631D62DF6947F00807DF61DF69FB
:102C900027F00407DF612FE0036842F600471A6A55
:102CA000C4F2010722F480521A621A46D3F820C0F7
:102CB0005D6852F81C4FD1F800E08E68BB4204D129
:102CC0004F6925F4804545EA87152CF4005747EAFB
:102CD000063724F4E64646EA0E265D60DE614E685D
:102CE00009691E641F62DF6947F40067DF61DF69FD
:102CF00027F48067DF61090213681943116000211E
:102D000080F83C100846BDE8F0830000002804BFAE
:102D10000120704710B5044690F83D0028B9002006
:102D200084F83C00204600F067F8022084F83D005B
:102D3000206840F2FF730268C4F2000342F6004CC0
:102D40009842C4F2010C15DCB0F1804F1AD040F269
:102D50000041C4F20001884214D0984218DCB0F15E
:102D6000804F1DD040F20041C4F20001884217D0CC
:102D70001AE000BF604505D040F60001C4F2000132
:102D80008842EAD1A16822F070020A439842E6DD47
:102D9000604505D040F60001C4F20001884203D12D
:102DA000216922F440720A43A36922F08001D4F819
:102DB00004E0E268194360450160C262C0F828E09F
:102DC00002D16169CCF8301001214161002084F802
:102DD000461084F83E1084F83F1084F8401084F8C0
:102DE000411084F8421084F8431084F8441084F8A9
:102DF000451084F83D1010BD70470000704700007A
:102E000070470000B0B582B0026805461068D3680C
:102E1000546900F02F01202903F0200106D129B1C7
:102E2000284602B0BDE8B04000F030BE5FEA007C4A
:102E30001EBF04F0010E03F4907414EB0E0453D182
:102E4000296B012905D110F0100118BF13F01001F2
:102E500036D1010622D513F080011FD095F83D0030
:102E600021283FD1A868B0F5805F03D128690028E8
:102E700000F0F880286A411C296200785060E88CD4
:102E800001380104E8842DD1D06820F08000D060A2
:102E9000D06840F04000D06002B0B0BD400621D5FF
:102EA00013F040001ED0D068202120F04000D060F8
:102EB000284685F83D1002B0BDE8B04000F0F4B9F6
:102EC00000200190106801905068019001985069AD
:102ED000400611D4A88DE98DEB8D002B18BF8842D8
:102EE00040F0A68002B0B0BDC40718BF13F48073D1
:102EF0002CD1430730D436E0A86B01684B689CB2F4
:102F0000002CEFD0A98D8C42ECD2EB858369202B6D
:102F100017D0D16821F48071D160516921F001018D
:102F20005161516921F040015161202185F83E1025
:102F300000212963D16821F01001D160FEF7B2FDB4
:102F4000A98DE88D081A81B2284685E02B6C43F0E4
:102F500001032B64430706D5BEF1000F03D02B6C91
:102F600043F002032B64830706D5BEF1000F03D0A4
:102F70002B6C43F004032B64BCF1000F09D541EA2C
:102F80000E03B3FA83F35B0903D12B6C43F0080300
:102F90002B642B6C002BA5D010F0200018BF00294B
:102FA00003D0284600F072FD2A685069296C00F0B1
:102FB000400001F0080140182CD0D06820F4907037
:102FC000D060506920F001005061286B012803D1C6
:102FD000D06820F01000D060202085F83E0000204E
:102FE0002863506940061DD5506920F040005061AB
:102FF000A86BB8B143F68121C0F600014163FEF72A
:1030000075FD00283FF46EAFA86B416B02B0BDE8C0
:10301000B04008472846FFF7F3FE0020286402B0BE
:10302000B0BD00BF284602B0BDE8B040FFF7E8BE23
:10303000D368401A23F49073D360536981B223F0AC
:1030400001035361202385F83E3000232B63D368AE
:10305000284623F01003D36002B0BDE8B040FFF76C
:10306000CDBE00BF286A30F8021B6FF35F215160AC
:10307000286204E7002804BF0120704710B5044609
:1030800090F83D0028B9002084F83C00204600F06C
:1030900061F8242084F83D002068D4E90212C36856
:1030A00023F40053C360036923F440531A430261BD
:1030B000D4E904231143C268194341F20C639A43D3
:1030C0001143C1604169A26921F44071114343F683
:1030D0000002C4F201029042416103D0FFF712F9ED
:1030E00002E000BFFFF722F962681921484391000E
:1030F000B0FBF1F048F21F51C5F2EB11A0FB012328
:103100005A094FF69C73C0F6FF7302FB030032238B
:1031100003EB0010A0FB0101F02303EA5113206828
:1031200003EB0212C1F3431111448160016921F4E0
:1031300090410161416921F02A014161C16841F476
:103140000051C16000202021206484F83D1084F8E3
:103150003E1010BD70B586B040F60044C4F20104C4
:103160000068A4F5444100268842049602D006B0C7
:1031700070BD00BF41F21800C4F20200416802AD08
:1031800041F480214160416801F48021019101995D
:10319000016841F0080101600068294600F008005C
:1031A000019001984FF48060029002200390032068
:1031B00005902046FEF7F0FC4FF40060CDE90206D2
:1031C000204629460496FEF7E7FC2720002100222E
:1031D000FEF77EFE2720FEF767FE06B070BD0000FA
:1031E000034690F83E0020280AD100294FF0010044
:1031F00018BF002A00D1704793F83C00012801D184
:103200000220704700201863996222219A85DA858E
:10321000186483F83E10196883F83C00CA6842F4C9
:103220008072CA604A6942F001024A61CA6842F08B
:103230002002CA607047000040F6BE11C2F20001D1
:1032400091F8C4200132D3B2C42B81F8C42004BF4A
:10325000002281F8C42091F8C42011440122FFF714
:10326000BFBF0000034690F83D0020280AD1002986
:103270004FF0010018BF002A00D1704793F83C00BE
:10328000012801D1022070471962002021219A846F
:10329000DA84186483F83D10196883F83C00CA6822
:1032A00042F08002CA60704740F6BE10C2F20000D1
:1032B000002180F88A117047FEE700002DE9F043F5
:1032C00081B040F21807C2F2000714463A884FF660
:1032D000FF78054640F6BE10424504BF3C802246BA
:1032E000C2F2000090F88A0120B1012001B0BDE8CF
:1032F000F08300BF35F81200002818BF424505D101
:10330000A7F80080002001B0BDE8F083A1F1010919
:1033100045F2CC11C0F600014E1C00BF80B200F097
:1033200025FE0128E1D0304600F0D4FD0128DCD094
:103330003888002804BFA7F80090484681B2A1420F
:10334000DED035F81100002818BF4145E6D1D7E797
:10335000FEE70000FEE70000704700007047000035
:103360002DE9F04F83B093F80090CDE901320C9B2A
:10337000B9F1000F009053D045F28027C0F6000746
:1033800097F800A018781A46009B5FFA80FE1C7818
:1033900011F80E50AC4200F08B80029B1F8801E0B8
:1033A0000EF1010EBE4573D211F80E405445F7D10F
:1033B0000EF1010EBE45F3D2019B09F1010983F81C
:1033C00000900D9B93F800B00EEB0B00864517D2D2
:1033D000029BCBF10005B3F800C00027764600BF82
:1033E00066450ED292F800808C5D01EB08035B5DB0
:1033F0000136A34208BF01370135F1D301E000BF18
:103400000027FBB25B4503D0029B1F88C8E700BFC3
:1034100013461070019A92F80090B9F1000FB2D1E2
:103420000D9A4FF0000C82F800C0029A14885CB329
:1034300045F28022C0F6000292F800E000984FF0BA
:10344000000C002604E000BF2E460136A64229D219
:103450008D5D7545F9D1751CA5420CF1010CF3D2B7
:1034600002784F5DBA42EFD1019880F800C0B01CDD
:1034700018700D9B4FF0010C1A7801321A70085C1D
:10348000704508BF4FF0020C604603B0BDE8F08FF6
:1034900001984FF0000C80F800C0604603B0BDE812
:1034A000F08F00BF4FF0000C604603B0BDE8F08F16
:1034B0000130134610700D9A107801301070187892
:1034C000085CA0EB0A00B0FA80F040094FEA400C1B
:1034D000604603B0BDE8F08FB0B50D4630B345F29D
:1034E00014230246C0F60003002100BF18785F28AD
:1034F00008BF0131C8B2904220D258785F2808BF77
:103500000131C8B290421FD298785F2808BF0131BC
:10351000C8B290421ED2DC78181D5F2C08BF013162
:10352000CBB293420346E1D30FE000BF45F2142033
:10353000C0F6000001785F290AD00FE0581C01781E
:103540005F2905D00AE000BF981C01785F2905D1EA
:10355000002121E0D81C01785F29F9D0821C0021CC
:1035600012F8013C5F2B0DD013785F2B0ED05378EF
:103570005F2B0FD0937804315F2B02F10402EFD15F
:103580000AE000BF41F0010106E000BF41F0020186
:1035900002E000BF41F00301C9B200F0B9FC45F2FE
:1035A000CC10C0F60000013000F094FC25B345F2C9
:1035B000A812C0F60002002110785F2808BF013170
:1035C000C8B2A84220D250785F2808BF0131C8B2E3
:1035D000A8421FD290785F2808BF0131C8B2A84224
:1035E0001ED2D378101D5F2B08BF0131CAB2AA4288
:1035F0000246E1D30FE000BF45F2A810C0F600007C
:1036000001785F290AD00FE0501C01785F2905D0AE
:103610000AE000BF901C01785F2905D1002121E05C
:10362000D01C01785F29F9D0821C002112F8013CDE
:103630005F2B0DD013785F2B0ED053785F2B0FD0FC
:10364000937804315F2B02F10402EFD10AE000BF4E
:1036500041F0010106E000BF41F0020102E000BFBD
:1036600041F00301C9B200F053FC45F28220C0F6DC
:10367000000000F02FFC45F28120C0F60000BDE8FC
:10368000B04000F027BC000080B5FEF7A5FBBDE808
:10369000804000F0C7B800007047000080B501F01E
:1036A0001F014FF0010CD0F820E00CFA01F32EEAD4
:1036B00003030362036A02FA01F11943016280BD48
:1036C00010B54FF0000CBBB392F800E0BEF15F0FF5
:1036D00008BF0CF1010C5FFA8CFE9E4522D292F8D5
:1036E00001E0BEF15F0F08BF0CF1010C5FFA8CFE28
:1036F0009E4519D292F802E0BEF15F0F08BF0CF1AF
:10370000010C5FFA8CFE9E4510D292F803E0043261
:10371000BEF15F0F08BF0CF1010C5FFA8CFE9E45F5
:10372000D2D304E0013202E0023200E003325FFA59
:103730008CFE9E4588BF10BD12F801E9441E00BFF3
:1037400004F801EF08780130087092F802E00132C5
:10375000BEF15F0F08BF0CF1010C5FFA8CF09842CC
:10376000EED910BD2DE9F047DDE9089880B21E467C
:1037700017460C4600F0FAFB45F2CC1AC0F6000AD8
:103780000AF12305284600F0A5FB092C03D80AF10D
:10379000030000F09FFB204600F0E8FB284600F005
:1037A00099FB092F03D80AF1030000F093FB384678
:1037B00000F0DCFB0AF1010000F08CFB092E03D8BD
:1037C0000AF1030000F086FB304600F0CFFB0AF15F
:1037D0002504204600F07EFBB9F1090F03D80AF159
:1037E000030000F077FB484600F0C0FB204600F0E5
:1037F00071FBB8F1090F03D80AF1030000F06AFB6E
:10380000404600F0B3FB45F28220C0F6000000F015
:1038100061FB45F28120C0F60000BDE8F04700F0F2
:1038200059BB000040F24410C2F20000816811B19F
:10383000816801398160416A11B1416A013941628F
:10384000016C11B1016C01390164C16D11B1C16D1F
:103850000139C165816F11B1816F01398167D0F87C
:10386000941021B1D0F894100139C0F8941040F2AE
:10387000CC00C2F20000C16B11B1C16B0139C16350
:10388000416C11B1416C0139416440F20001C2F256
:1038900000010A6812B10A68013A0A60C26912B1ED
:1038A000C269013AC261C26812B1C268013AC2601B
:1038B0004A6812B14A68013A4A60818E21B1818E0C
:1038C00001398186704700BF4FF47A7181860121EA
:1038D00080F836107047000070B582B040F6BE1414
:1038E000C2F2000494F8C40094F8C510884200F0B5
:1038F000C48094F8C500205C0A280DD00D2819D189
:1039000040F28000C2F200000178032914BF0121B7
:1039100004210170A6E000BF40F28000C2F2000066
:103920000178042918D0012940F09C8002210170FF
:1039300098E000BF40F28006C2F2000630780138FD
:10394000032800F28F80DFE800F0030F2D0300BF93
:103950000020307086E000BF022101700020FF21AE
:103960000022FDF751FA7DE0032030800020A6F808
:10397000030094F8C500311D009145F2142145F271
:103980007E222044B51CF31CC0F60001C0F60002E4
:103990000195FFF7E5FC022864D1F07800210022B0
:1039A00050E000BF707804285CD8DFE800F0030521
:1039B00023335300DDE700BF94F8C500205C2028C6
:1039C00050D094F8C500311D009145F2F61145F232
:1039D00012222044B51CF31CC0F60001C0F6000200
:1039E0000195FFF7BDFC02283CD1F17800200022B0
:1039F00035E000BF94F8C500311D009145F2CC11AF
:103A000045F2CA122044B51CF31CC0F60001C0F6F2
:103A100000020EE094F8C500311D009145F2CC1172
:103A200045F2F4122044B51CF31CC0F60001C0F6A8
:103A300000020195FFF794FC0138012812D8F278B2
:103A4000002000210025FDF7DFF9707035717580C9
:103A500008E000BF94F8C5000021225C0020FDF7BB
:103A6000D3F9707094F8C5000130C1B2C42984F84C
:103A7000C50004BF002084F8C50002B070BD00007E
:103A8000406A0021C185C184FFF7BAB981B090F8BE
:103A90003E10222921D183680246B3F5805F09D107
:103AA00052F8281F52F8183C002B3FD003685B687F
:103AB0000AE000BF52F8281F13B90369002BF5D0A4
:103AC00003685B6803F07F030B70116801311160BC
:103AD000C18D01390A04C18502D001B0704700BF11
:103AE0000168CA6822F02002CA60CA6822F48072A3
:103AF000CA604A6922F001024A61202280F83E2011
:103B0000026B012A1AD100220263CB6823F0100352
:103B1000CB600B68DB0605D500920A680092496805
:103B200000910099818D01B0FFF768B90268526871
:103B30006FF35F2221F8022B8162C9E701B0FFF722
:103B40007BBB000040F6BE11C2F2000191F8C42018
:103B500011440122FFF744BB80B541B245F2CC1CB1
:103B600040F6BE1EB1F1FF3FC0F6000CC2F2000EDF
:103B70001ADD9EF888119CF803200EEB0103013139
:103B80008EF8881183F8C6209EF88811C22904BFD8
:103B900000218EF888119EF888119EF889219142A3
:103BA00000F07A811AE000BF9EF888319CF8052069
:103BB0000EEB030101338EF8883181F8C6209EF8A0
:103BC0008811C22904BF00218EF888119EF888113F
:103BD0009EF88921914204BF012080BD410619D47D
:103BE0009EF888119CF803200EEB010301318EF83A
:103BF000881183F8C6209EF88811C22904BF0021CD
:103C00008EF888119EF888119EF88921914200F063
:103C1000438119E09EF888119CF805200EEB010302
:103C200001318EF8881183F8C6209EF88811C229C8
:103C300004BF00218EF888119EF888119EF8892112
:103C4000914204BF012080BD810619D49EF88811DD
:103C50009CF803200EEB010301318EF8881183F8E4
:103C6000C6209EF88811C22904BF00218EF8881151
:103C70009EF888119EF88921914200F00D8119E08B
:103C80009EF888119CF805200EEB010301318EF897
:103C9000881183F8C6209EF88811C22904BF00212C
:103CA0008EF888119EF888119EF88921914204BFF0
:103CB000012080BDC10619D49EF888119CF803200C
:103CC0000EEB010301318EF8881183F8C6209EF8AF
:103CD0008811C22904BF00218EF888119EF888112E
:103CE0009EF88921914200F0D78019E09EF8881152
:103CF0009CF805200EEB010301318EF8881183F842
:103D0000C6209EF88811C22904BF00218EF88811B0
:103D10009EF888119EF88921914204BF012080BD40
:103D2000010719D49EF888119CF803200EEB0103BB
:103D300001318EF8881183F8C6209EF88811C229B7
:103D400004BF00218EF888119EF888119EF8892101
:103D5000914200F0A18019E09EF888119CF805209E
:103D60000EEB010301318EF8881183F8C6209EF80E
:103D70008811C22904BF00218EF888119EF888118D
:103D80009EF88921914204BF012080BD410719D4CA
:103D90009EF888119CF803200EEB010301318EF888
:103DA000881183F8C6209EF88811C22904BF00211B
:103DB0008EF888119EF888119EF8892191426BD067
:103DC0001AE000BF9EF888119CF805200EEB010355
:103DD00001318EF8881183F8C6209EF88811C22917
:103DE00004BF00218EF888119EF888119EF8892161
:103DF000914204BF012080BD810719D49EF888112B
:103E00009CF803200EEB010301318EF8881183F832
:103E1000C6209EF88811C22904BF00218EF888119F
:103E20009EF888119EF88921914235D01AE000BF92
:103E30009EF888119CF805200EEB010301318EF8E5
:103E4000881183F8C6209EF88811C22904BF00217A
:103E50008EF888119EF888119EF88921914204BF3E
:103E6000012080BDC00719D19EF888019CF803107D
:103E70000EEB000201308EF8880182F8C6109EF821
:103E80008801C22804BF00208EF888019EF88801AE
:103E90009EF8891188421BD1012080BD9EF88801BF
:103EA0009CF805100EEB000201308EF8880182F8B4
:103EB000C6109EF88801C22804BF00208EF8880131
:103EC0009EF888019EF88911884204BF012080BDB8
:103ED000002080BD017840F6BE10C2F2000090F8CC
:103EE00088218318013280F8882183F8C61090F861
:103EF0008811C22904BF002180F8881190F8881128
:103F000090F88901081AB0FA80F040097047000063
:103F1000B0B5024600294FF0000008BFB0BD40F622
:103F2000BE1C0123C2F2000C92F800E09CF888410C
:103F30000CEB040501348CF8884185F8C6E09CF848
:103F40008851C22D08BF8CF888019CF888519CF8D4
:103F50008941A54208D00133DDB28D4202F1010250
:103F6000E2D90020B0BD00BF0120B0BDF0B501090D
:103F700040F247325143CC0C4DF6F001CFF6FF71C1
:103F800004FB010142F2C5038DB2EA085A434FF621
:103F90001843170DCFF6FF7307FB031141F27B4265
:103FA0008EB2B6087243C2F3474603F5617206FB50
:103FB00002114CF6CD438AB25A43C2F3C74E42F2C5
:103FC0001072904245F2CC1C40F6BE10C0F6000CB8
:103FD000C2F2000008D2B5F57A7F1FD2C6BBBEF18F
:103FE000000F4FD168E000BF0CEB440290F888311D
:103FF000D278C418013380F8883184F8C62090F84C
:104000008821C22A04BF002280F8882190F88821E4
:1040100090F889319A4204BF0120F0BD0CEB4702B1
:1040200090F88831D278C418013380F8883184F848
:10403000C62090F88821C22A04BF002280F8882177
:1040400090F8882190F889319A4204BF0120F0BD90
:104050000CEB460290F88831D278C418013380F80E
:10406000883184F8C62090F88821C22A04BF002233
:1040700080F8882190F8882190F889319A4204BF0D
:104080000120F0BD0CEB4E0290F88831D278C418B4
:10409000013380F8883184F8C62090F88821C22A3C
:1040A00004BF002280F8882190F8882190F8893197
:1040B0009A4204BF0120F0BD0EEB8E02A1EB42013B
:1040C00089B20CEB410190F88821C978831801323C
:1040D00080F8882183F8C61090F88811C22904BF9F
:1040E000002180F8881190F8881190F88901081A49
:1040F000B0FA80F04009F0BD10B540F6BE14C2F22F
:10410000000494F8892194F88A1194F888319A422D
:1041100025D0002918BF10BD94F8891194F8882182
:1041200094F889319142234403F1C6010AD294F8EC
:10413000882194F88931D21A92B2FFF793F894F853
:10414000880107E094F88921C2F1C20292B2FFF718
:1041500089F8002084F88901012084F88A0110BDC3
:1041600040F6DC30C2F20000FEF74CBEFEE7000075
:1041700010B545F214220446C0F60002002100BF2B
:1041800010785F2808BF0131C8B20D2818D85078C0
:104190005F2808BF0131C8B20D2813D890785F2876
:1041A00008BF0131C8B20D280ED8D378101D5F2B7F
:1041B00008BF0131CAB20E2A0246E1D305E000BFB2
:1041C000501C02E0901C00E0D01C0521FFF7A0FE6F
:1041D0002046FFF7CBFE45F28220C0F60000FFF735
:1041E00079FE45F28120C0F60000BDE81040FFF7DF
:1041F00071BE000010B545F214220446C0F600025C
:10420000002100BF10785F2808BF0131C8B20E2816
:1042100018D850785F2808BF0131C8B20E2813D8CB
:1042200090785F2808BF0131C8B20E280ED8D37825
:10423000101D5F2B08BF0131CAB20F2A0246E1D31D
:1042400005E000BF501C02E0901C00E0D01C0721DC
:10425000FFF75EFE2046FFF789FE45F28220C0F69A
:104260000000FFF737FE45F28120C0F60000BDE8F0
:104270001040FFF72FBE00009CB040F2CC0AC2F203
:10428000000A40F2E770AAF8280001271220AAF8D5
:104290002A70AAF82C001320AAF82E0040F2EC1085
:1042A000C2F200000026A0F8E863FDF7A3FD12ADFE
:1042B000281D2421FBF788FF022012901020179060
:1042C00028460B96CDE9096616971996FEF742F82F
:1042D00020B1EFF3108072B6FEE700BF0F20CDE9EA
:1042E0000D064FF48060CDE910060DA800210F9651
:1042F000FDF728FF20B1EFF3108072B6FEE700BF94
:104300000227002508A808970A95FDF795FE28B111
:10431000EFF3108072B600BFFEE700BF41F2180055
:10432000CDE91455C4F20200016840F6004941F09D
:10433000100101600168C4F2010901F010010D9142
:104340000D990168002241F02001016001684FF4DD
:10435000804401F020010D910D99016841F00401A4
:104360000160016801F004010D910D99016841F0AF
:104370000801016000684FF4804100F008000D90D2
:104380000D984846FDF71CFD4FF4604012AE1290A8
:104390004FF0030809F580603146CDF84C80FDF7F9
:1043A000FBFB09F500603146CDE91288FDF7F4FB0F
:1043B00049F6E460A9F5806BCDE91208584631460C
:1043C000FDF7EAFB43F23F00CDE9120848463146CB
:1043D000FDF7E2FB012013A9129440F60004A1C1ED
:1043E00048463146C4F20004FDF7D6FB4FF40040C6
:1043F000CDE91205484631461495FDF7CDFB4FF443
:104400008070CDE91205584631461495FDF7C4FB7E
:104410000420C4F2010001684FF47A7241F0E061B7
:1044200041F40041016040F69430C2F200000721DF
:104430001095CDE90E55CDE90855CDE91755CDE9D3
:104440001555C0E90041C0E9025205618561FEF7DA
:10445000AFF928B1EFF3108072B600BFFEE700BFDE
:104460004FF480500D9040F69430C2F200000DA938
:10447000FEF73EFA20B1EFF3108072B6FEE700BF00
:1044800040F69430C2F20000FEF740FC20B1EFF39A
:10449000108072B6FEE700BF40F69430C2F2000012
:1044A00008A9FEF747F928B1EFF3108072B600BFF4
:1044B000FEE700BF602012900020CDE913001690A7
:1044C00040F69430C2F2000012A90022FEF720FB51
:1044D00020B1EFF3108072B6FEE700BF40F69430D3
:1044E000C2F2000012A90422FEF712FB20B1EFF382
:1044F000108072B6FEE700BF40F69430C2F20000B2
:1045000012A90822FEF704FB20B1EFF3108072B667
:10451000FEE700BF40F69430C2F2000012A90C2260
:104520002746FEF7F5FA18B1EFF3108072B6FEE7F2
:1045300040F69430C2F20000FEF7A4FA43F2000104
:10454000C4F20201504640F8201FFDF77BFA18B173
:10455000EFF3108072B6FEE709F5C0515046002512
:1045600040F8481F4FF480714FF4602202261795DF
:1045700005730575C261C0E901510661FDF778F95F
:1045800020B1EFF3108072B6FEE700BF03200121D7
:104590001290CDE913104FF4E04018900AF1480052
:1045A00012A9169615950490FCF712FF20B1EFF3AF
:1045B000108072B6FEE700BF042012900220139014
:1045C000049812A9FCF704FF20B1EFF3108072B633
:1045D000FEE700BF40F64C300021C2F200004FF071
:1045E000804207234FF47A761091CDE90E11CDE980
:1045F0000811CDE91711CDE91511C0E90023C0E973
:10460000021601618161FEF7D3F818B1EFF3108053
:1046100072B6FEE74FF480500D9040F64C30C2F277
:1046200000000DA9FEF764F920B1EFF3108072B617
:10463000FEE700BF40F64C30C2F20000FEF766FB1A
:1046400020B1EFF3108072B6FEE700BF40F64C30A9
:10465000C2F2000008A9FEF76DF818B1EFF3108060
:1046600072B6FEE7602012900020CDE9130016908C
:1046700040F64C30C2F2000012A90022FEF748FAC0
:1046800020B1EFF3108072B6FEE700BF40F64C3069
:10469000C2F2000012A90422FEF73AFA20B1EFF3A9
:1046A000108072B6FEE700BF40F64C30C2F2000048
:1046B000FEF7E8F940F6DC3007F58041C2F2000071
:1046C00000260C234FF4E13280E84600C0E903667F
:1046D000C0E90536C661FEF7CDFC18B1EFF31080D6
:1046E00072B6FEE70498FCF7E9FD40F69434C2F296
:1046F00000042068012201683D4641F0010101608B
:1047000038460021FEF7CAFF384604210122FEF791
:10471000C5FF384608210122FEF7C0FF38460C21AC
:104720000122FEF7BBFF40F64C35C2F200052868B7
:104730000122016841F0010101604FF08040002139
:10474000FEF7ACFF4FF0804004210122FEF7A6FFE8
:1047500040F24416C2F2000600204FF00A0E142167
:1047600040F28A229623D5F800C027683060706036
:10477000C6F80CE03161B282B376B06035687D6313
:10478000F0613062C6F828E0F162328686F8363091
:104790007062F569BD63B063F063C6F844E0B1646C
:1047A000A6F84C2086F852303064B56BFD63706516
:1047B000B065C6F860E07166A6F8682086F86E30CD
:1047C000F065756D3D6430677067C6F87CE0C6F8CB
:1047D0008010A6F8842086F88A30B067376FCCF84E
:1047E0003470C6F88C00C6F89000C6F898E0C6F899
:1047F0009C10A6F8A02086F8A630C6F89400D6F83B
:104800008C10CCF838108AF818008AF81A008AF848
:104810001B00CAF81C0040F6DC30C2F20000FFF7B3
:1048200091F90020079000200290002003900020C2
:1048300006900020059006E000200290E0E300BF13
:104840000790CDE90554FFF747F840F6DC30C2F297
:104850000000FFF751FCFBF7A9FD40F29000C2F207
:1048600000000168C80727D007989AF80120C0B255
:1048700082420ED19AF802209AF838309A4208D132
:104880009AF803209AF840309A4202D19AF81B20F5
:1048900092B1079900238AF801109AF838108AF823
:1048A00002109AF840208AF80320FCF7C3FC40F27B
:1048B0009000C2F200000168080712D540F2EC1027
:1048C000C2F20000B0F8E8234FF4FA71FEF7F6FCEC
:1048D00038B940F29001C2F20001086820F00800E7
:1048E00008609AF83600002869D000208AF836005F
:1048F000BAF83200013081B23C29AAF832005ED108
:104900000020AAF83200BAF83000013081B23C2908
:10491000AAF8300053D10020AAF83000BAF82E00CF
:10492000013081B21829AAF82E0048D10020AAF837
:104930002E00BAF82C0045F278110130AAF82C00AC
:10494000BAF82A30C0F6000101EB4301BAF828207A
:1049500031F8021C022B1AD145F62943CCF28F23E1
:1049600053434DF20B754FEA3317C0F2A305AF4224
:104970000CD345F629474FEAB303C0F28F27BB4259
:1049800005D312F0030208BF013100E0013109B282
:1049900080B20131814212D10120AAF82C00BAF86C
:1049A0002A00013081B20D29AAF82A0007D101207E
:1049B000AAF82A00BAF828000130AAF8280040F224
:1049C0009000C2F200000068810617D540F2900402
:1049D00020F02000C2F200042060BAF92800BAF8E2
:1049E0002A10BAF82C20BAF82E30BAF83070BAF87B
:1049F0003250CDE90075FEF7B5FE2068C10665D5D9
:104A000040F2A402C2F2000211885588B2F804C034
:104A1000B2F8068013895789A1F5FA62D2087C2A78
:104A200098BF0C2D49D845F27812C0F6000202EB6F
:104A3000450232F802EC022D1ED145F62942CCF295
:104A40008F2201FB02F54DF20B744FEA3512C0F2D2
:104A5000A304A2420ED345F629444FEAB502C0F2A0
:104A60008F24A24208D311F0030108BF0EF1010EFA
:104A700002E000BF0EF1010E3B2F98BF3B2B1CD86C
:104A8000B8F1170F19D80FFA8EF18C4515DC40F2EA
:104A9000A402C2F200021188AAF828105188AAF8CC
:104AA0002A109188AAF82C10D188AAF82E10118902
:104AB000AAF830105189AAF8321020F0300040F2E4
:104AC000900140F02000C2F20001086040F64C3036
:104AD00040F69431C2F20000C2F200010068096899
:104AE000B2688AB1726A92B3326C002A53D0F26D06
:104AF000002A75D0B16F002900F09680D6F8941086
:104B0000002940F0E780B3E0326873689A4219D018
:104B1000776835683268F368AF4207DD77681A4412
:104B2000BA4209DAF26833681A4408E09A4205DDAD
:104B3000F26833689A1A02E0726800E0002232607C
:104B400032684A633269B260726A002ACCD1F26973
:104B5000336A9A421AD0376AF569F269B36AAF428A
:104B600008DD376A1A44BA420ADAB26AF3691A44AB
:104B700009E000BF9A4205DDB26AF3699A1A02E0C1
:104B8000326A00E00022F261F2698A63F26A7262BC
:104B9000326C002AABD1B26BF36B9A421AD0F76B2E
:104BA000B56BB26B736CAF4208DDF76B1A44BA4257
:104BB0000ADA726CB36B1A4409E000BF9A4205DD51
:104BC000726CB36B9A1A02E0F26B00E00022B263DF
:104BD000B26BCA63B26C3264F26D002A7FF48AAFA2
:104BE000726DB36D9A4219D0B76D756D726D336E7B
:104BF000AF4207DDB76D1A44BA4209DA326E736DFF
:104C00001A4408E09A4205DD326E736D9A1A02E08A
:104C1000B26D00E000227265726D0A64716EF1651A
:104C2000B16F00297FF46AAF316F726F914219D072
:104C3000736F376F316FF26FBB4207DD736F1144D3
:104C4000994209DAF16F326F114408E0914205DDB3
:104C5000F16F326F511A02E0716F00E0002131678D
:104C6000316F4163D6F88010B167D6F8941089BBD4
:104C7000D6F88C10D6F89020914227D0D6F89030F4
:104C8000D6F88C70D6F88C10D6F89820BB420BDD85
:104C9000D6F89030114499420EDAD6F89810D6F82A
:104CA0008C2011440DE000BF914209DDD6F8981028
:104CB000D6F88C20511A04E0D6F8901001E000BF1D
:104CC0000021C6F88C10D6F88C108163D6F89C00B1
:104CD000C6F8940040F29C00C2F20000007860B177
:104CE00040F29C02C2F200025168C0EBC00006EB29
:104CF000800040F8181C0020107058464FF4807156
:104D0000FDF758F807460138B0FA80F044094846E4
:104D10004FF40041FDF74EF8012F0AD10699C9B2B0
:104D2000A14206D001218AF8381047F23051CAF862
:104D30003C100138B0FA80F04FEA50150AD10598BE
:104D4000C0B2A84206D001208AF8400047F2305095
:104D5000CAF84400DAF83C0040B1DAF8440070B117
:104D60009AF81800012813D022E000BF9AF8380002
:104D700040088AF83800DAF844000028F0D19AF8A0
:104D8000400040088AF840009AF8180001280FD126
:104D90009AF81B0060B9DAF81C0048B900208AF8BC
:104DA000180001208AF81A004EF66020CAF81C008C
:104DB0009AF8180050B99AF81B0038B101208AF807
:104DC00018008AF81A000020CAF81C009AF81A0085
:104DD000012813D1DAF81C0080B900208AF81A00E3
:104DE0009AF818004FF480410138B0FA80F0470972
:104DF00048463A46FCF7E4FF8AF8197040F2000092
:104E0000C2F200000068002850D10398C0B2022806
:104E10000ED0012840D0002848D10498FCF716FC99
:104E200040F200010A20C2F20001086001203CE0CB
:104E3000049F01213846FCF7F5FB40F20008C2F25E
:104E40000008A8F80E0038460221FCF7EBFBAAF890
:104E5000140040F2C670C8F800003846FCF752FC57
:104E600040F29000C2F20000006801060BD540F24B
:104E70000000C2F20000C089FFF77AF940F290000A
:104E8000C2F200000068400603D5BAF81400FFF72C
:104E9000B1F9002009E000BF9AF80000002800F0F6
:104EA000538100208AF800000220039040F20000A5
:104EB000C2F20000C189B9B340F20007C2F2000794
:104EC00078893A89BB89400800EB52005A0802EB06
:104ED00050004A0802EB5000B98140F6BC218842DC
:104EE0004FF0000138817B81F9810BD89AF81B10B3
:104EF00041F080018AF81B1046F2C051C0F2520105
:104F0000CAF80C10DAF80C1041B140F6435188424F
:104F100024BF0020CAF80C0006E000BF9AF81B006E
:104F200000F07F008AF81B00BAF8141041B3BAF8F9
:104F30001200BAF81020400800EB5200400800EBC5
:104F40005100AAF812100021AAF8141040F2000132
:104F5000AAF81000C2F20001496899B1BAF80A2013
:104F6000BAF8061022B340F2D657C2F2000737F85B
:104F70001130013203445B0827F8113020E000BFF4
:104F8000079930E0BAF806104FF4FA734A1C91B250
:104F9000B1F5FA7118BF1146BAF80820AAF8061040
:104FA000013292B2B2F5FA7F28BF1A46AAF8082059
:104FB00040F2D65289B2C2F2000222F81100012258
:104FC000079BD9B20129194608BF0221B0F5FA6F33
:104FD00028BF194640F6FD039842AAF80A2002D3DA
:104FE000C8B203280CD0C8B204280791CDE90554F3
:104FF0003FF629ACDFE800F0081AA546040000BF20
:105000000120FFF71DBC00BF029800F00F000A2826
:105010003FF412AC002100280791CDE905547FF43C
:1050200012AC0A2002900020FFF70ABC9AF81B106D
:105030009AF83800C90751D1012101280791CDE91B
:1050400005547FF400AC9AF8400001210128079133
:10505000CDE905547FF4F7AB9AF81B0040F001004E
:105060008AF81B00B08A7060308E30629AF818009F
:1050700000284FF0000008BF4FF4C870B060B0685F
:105080007062BDE79AF81B109AF83800C9073FD143
:10509000032101280791CDE905547FF4D4AB9AF898
:1050A0004000032101280791CDE905547FF4CBABE3
:1050B0009AF81B0040F001008AF81B00308B7060EA
:1050C000B08E30629AF8180000284FF0000008BF38
:1050D0004FF4C870B060B068706232E001210028FF
:1050E0000791CDE905547FF4AEAB9AF84000012159
:1050F00000280791CDE905547FF4A5AB002070602E
:1051000030629AF81B0000F0FE008AF81B0077E777
:10511000032100280791CDE905547FF494AB9AF858
:105120004000032100280791CDE905547FF48BABA3
:105130000020706030629AF81B0000F0FE008AF8D0
:105140001B000320FFF77CBB9AF80400411C0A28CF
:105150008AF804107FF664AE00200021039040F22C
:1051600000008AF80410C2F2000064210160049873
:10517000FCF7C8FA9AE601021F001C001F001E007F
:105180001F001E001F001F001E001F001E001F002A
:1051900000000000000000000102030406070809E7
:1051A00000000000010203045F44495341424C45A2
:1051B0005F454E41424C455F4552524F525F4F460C
:1051C000465F4F4B5F4F4E5F000017005F205F3020
:1051D0005F315F325F335F345F355F365F375F3833
:1051E0005F395F415F425F435F445F455F465F2ECB
:1051F0005F3A5F0028005F305F315F4449534142AE
:105200004C455F454E41424C455F4F46465F4F4ED1
:105210005F001C005F3F5F44454255475F4C45447B
:10522000315F4C4544325F4C4544335F4C45443418
:105230005F4C4544355F4C4544365F4C55584441BE
:1052400054415F53484F575F52454C41595F524557
:105250005345545F54494D455F5345545F54494D40
:10526000455F53484F575F564241545F53484F572D
:105270005F56534F4C41525F53484F575F006A008F
:105280005F0A0D434C526D02030405060708090A24
:105290000B0C0D0E0F101000B8520008000000207B
:1052A0002000000028010008D8520008200000203B
:1052B0000812000044010008E8030000C0270900AC
:1052C000D60BD60BD60B000001000000100000002A
:0852D000FFFF00000024F400C0
:04000005080000ED02
:00000001FF
