:020000040800F2
:10000000E80D00208901000825290008892800083A
:1000100021290008A9030008F933000800000000A6
:100020000000000000000000000000002D29000872
:10003000FD0700080000000029290008C92E00085B
:10004000A3010008A3010008A3010008A301000800
:10005000A3010008A3010008A3010008A3010008F0
:10006000A3010008A3010008A3010008A3010008E0
:10007000A3010008A3010008A3010008A3010008D0
:10008000A3010008A301000891020008A3010008D1
:10009000A3010008A3010008A3010008A3010008B0
:1000A000A3010008A3010008A3010008A3010008A0
:1000B000A3010008A3010008A3010008A301000890
:1000C000A3010008A3010008A3010008A301000880
:1000D000A3010008A3010008A3010008ED330008F4
:1000E000A3010008A3010008A301000800F002F822
:1000F00000F03AF80AA090E8000C82448344AAF188
:100100000107DA4501D100F02FF8AFF2090EBAE885
:100110000F0013F0010F18BFFB1A43F0010318473B
:100120003847000058470000103A24BF78C878C10B
:10013000FAD8520724BF30C830C144BF04680C60ED
:10014000704700000023002400250026103A28BF35
:1001500078C1FBD8520728BF30C148BF0B60704739
:100160001FB51FBD10B510BD00F058F81146FFF7C0
:10017000F7FF03F0DDF900F076F803B4FFF7F2FFC4
:1001800003BC00F07DF8000009488047094800479B
:10019000FEE7FEE7FEE7FEE7FEE7FEE7FEE7FEE737
:1001A000FEE7FEE704480549054A064B7047000094
:1001B000D92E0008ED000008E8070020E80D002017
:1001C000E8090020E80900204FF0000200B51346BE
:1001D00094469646203922BFA0E80C50A0E80C5067
:1001E000B1F12001BFF4F7AF090728BFA0E80C5018
:1001F00048BF0CC05DF804EB890028BF40F8042B11
:1002000008BF704748BF20F8022B11F0804F18BF7D
:1002100000F8012B7047704770477047754600F033
:100220002BF8AE4605006946534620F00700854688
:1002300018B020B5FFF7B6FFBDE820404FF000062C
:100240004FF000074FF000084FF0000BAC46ACE851
:10025000C009ACE8C009ACE8C009ACE8C00921F0AD
:1002600007018D46704710B50446AFF30080204665
:10027000BDE81040FFF781BF004870472000002014
:1002800001491820ABBEFEE72600020070470000BF
:1002900040F2F000C2F2000000F050BDB0B50446DC
:1002A00000688168C90709D0816821F00101816077
:1002B00001F072F821688968C90701D10020B0BD3A
:1002C000054602E08068C007F8D001F065F8411BE0
:1002D00020680329F6D38168C907F3D0A06A40F0EB
:1002E0001000A062E06A40F00100E0620120B0BDB1
:1002F000B0B582B004460020019021688A68D20718
:100300004FD1886840F00100886040F21C00C2F2C2
:10031000000000684DF68361C4F21B31A0FB0101AF
:10032000880C01900198A0B10198013801900198C2
:1003300078B1019801380190019850B101980138C5
:100340000190019828B10198013801900198002886
:10035000EAD101F021F821688968C9071CD1054656
:1003600003E000BF8068C0071AD101F015F8411BF7
:1003700020680329F6D38168C907F3D1A06A40F049
:100380001000A062E06A40F00100E062002084F802
:100390002400012002B0B0BD002002B0B0BD00BFFB
:1003A000002002B0B0BD0000FEE70000F0B581B053
:1003B00040F28804C2F20004607A002800F0D38082
:1003C000207A01380E2800F2C780DFE800F00947E4
:1003D00059631F6D77818B91A3292FA7350000BF2B
:1003E00044F2D47644F642070025C0F60006C0F673
:1003F000000700BF705D5F28384618BF701902F013
:1004000075FF01356A2DF5D1A6E000BF6069B0F532
:100410007A7F00F39380032020740520052199E062
:10042000606840F01000606096E000BF606840F0D7
:100430002000606090E000BF607A0338032800F27B
:100440008B80DFE800F00393039300BF6068042112
:1004500020F0400060600F207CE000BF607A03382D
:10046000032800F27980DFE800F00389038900BFE8
:100470006068042120F00100606002206AE000BF93
:100480006069B0F57A7F5BDC0120207403200521D0
:1004900060E000BF6069B0F57A7F53DC0220207411
:1004A0000420052156E000BF6069B0F57A7F4BDC7F
:1004B00004202074062005214CE000BF6069B0F5DF
:1004C0007A7F43DC052020740720052142E000BF2D
:1004D0006069B0F57A7F3BDC062020740820052196
:1004E00038E000BF606840F00800606034E000BFA2
:1004F000607A012802D0607A05284FD140F600408A
:10050000C4F201004FF48041002200F03FFF0A20B6
:1005100004211FE000F0FEFF1EE000BF607A0338F8
:10052000032819D8DFE800F00232023260680421A3
:1005300020F0800060600E200CE000BF052008E085
:10054000032006E0042004E0062002E0072000E08B
:100550000820032102F0A8FA607AFF2804BF0020D7
:1005600020720020607201B0F0BD00BF60680621FB
:1005700040F0400060600F20ECE700BF606806219B
:1005800040F0010060600220E4E700BF60680621DF
:1005900040F0800060600E20DCE700BF607A022837
:1005A00002D0607A0628D7D140F60040C4F201009C
:1005B0004FF48041012200F0E9FE0A200621C9E73C
:1005C000002840F2880CC2F2000C1EBF8CF8080014
:1005D0008CF80910CCF80C20002918BF8CF80910F1
:1005E000002A18BFCCF80C209CF8081001390E29FD
:1005F00023D8DFE801F01F0F09090909090922259D
:100600001F2D220F0F0000BF50B101208CF80000F9
:100610000320704700281CBF012070470DE000BF79
:100620009CF80000022819D0012827D00028ECD01F
:1006300003E000BF01208CF809000020704700BFD4
:10064000002818BF0120F9D1002A08BF00207047F8
:1006500000B301208CF8010003207047101F80B206
:10066000092800F26D80DCF8140000EB800002EB3A
:1006700040000438CCF8140002207047012A4FF0E3
:100680000000DBD102218CF80010CCF8140002200D
:10069000704700BF9CF801000728CED8DFE800F0C3
:1006A00004060E2030526240D3E700BF012A4FF00B
:1006B0000000C3D102218CF801100DE0101F81B29F
:1006C00009295FD8BCF8181001EB81014900ACF88A
:1006D0001810BCF818100844ACF818000220704735
:1006E000101F81B2092959D8BCF81A1001EB8101F9
:1006F0004900ACF81A10BCF81A1008444AE000BFD0
:10070000101F81B2092955D8BCF81C1001EB8101DA
:100710004900ACF81C10BCF81C10084446E000BFAF
:10072000101F81B209290BD8BCF8221001EB8101FE
:100730004900ACF82210BCF8221008445AE000BF6F
:1007400000207047101F81B209293FD8BCF81E1045
:1007500001EB81014900ACF81E10BCF81E100844E2
:1007600030E000BF101F81B209293BD8BCF820102F
:1007700001EB81014900ACF82010BCF820100844BE
:100780002CE000BF022A4FF000007FF457AF032196
:100790008CF80110ACF81A0002207047022A4FF0C2
:1007A00000007FF44BAF04218CF80110ACF81C0062
:1007B00002207047012A4FF000007FF43FAF05216F
:1007C0008CF80110ACF81E0002207047032A4FF08D
:1007D00000007FF433AF06218CF80110ACF8200044
:1007E00002207047032A4FF0000018BF704707210E
:1007F0008CF80110ACF8220002207047704700000E
:10080000F0B581B0074644F64600C0F600001C462D
:1008100015460E4602F06AFD384602F0E1FA44F24F
:100820008C70C0F60000471C384602F05FFD44F6AD
:100830004400C0F6000002F059FD304602F0D0FA44
:1008400044F64500C0F6000002F050FD284602F0D4
:10085000C7FA384602F04AFD44F64300C0F60000ED
:1008600002F044FD204602F0F7F944F64200C0F6DB
:10087000000002F03BFD44F64100C0F6000001B06C
:10088000BDE8F04002F032BD70B582B004460020F1
:10089000019094F82400012804D10225284602B0D2
:1008A00070BD00BF012084F824002046FFF7F6FC4D
:1008B000054600286CD1A06A41F20211884302303B
:1008C000A06240F21C00C2F200000668022000F0A4
:1008D00023FEB6FBF0F0400001900198A8B100BFE4
:1008E000019801380190019878B101980138019080
:1008F000019850B1019801380190019828B10198F0
:100900000138019001980028EAD12046FFF7F0FC59
:100910002068816841F00801816000F03DFD216898
:100920008A6812070ED4886840F00400886000F0DE
:1009300033FD21688968490714D401206FF0030151
:1009400022E000BF064602E088680007EBD500F011
:1009500023FD801B21680B28F6D388680007F3D598
:100960000EE000BF064602E080684007E5D500F0D3
:1009700013FD811B20680B29F6D381684907F3D545
:10098000012510206FF01201A26A11400843A062F5
:10099000002084F82400284602B070BDF0B581B074
:1009A0000022009290F82420012A05D14FF0020C79
:1009B000604601B0F0BD00BF8368D1F804E00122B9
:1009C00080F82420A3B10A690668BEEB020404EB98
:1009D0008404B56B04F10F044FF01F0303FA04F312
:1009E00025EA030323F4401516D9B5631FE000BFC1
:1009F000BEF1010F40F0AA8006684FF0000CB26B08
:100A00000D686FF3150242EAC532B2634FF0010E72
:100A1000B268D20710D016E040F2000C0B68CFF697
:100A2000F07C0CEB0252A3401A432A43B2634FF00E
:100A3000000CB268D20706D1B26847F201038C6994
:100A40009A432243B2604A7D012A1FD00B7D012BBD
:100A500030D00A68092A02EB42043FD9F3681E3CF1
:100A600007258F68A540AB4307FA04F4234322F01F
:100A70000104102CF36049D1B368012543F400034D
:100A8000B360BEF1030F36D144E000BF8B6900F1C3
:100A90002804B3F5E04F4FF0200314BF4FF0010CD2
:100AA000341D08BF4FF4806325682B4323600B7D02
:100AB000012BCED100F12803002A4FF0200214BFF1
:100AC0004FF0010C331D08BF4FF480521C682243C5
:100AD0001A600A68092A02EB4204BFD83369072565
:100AE0008F68A540AB4307FA04F423433361002524
:100AF000BEF1030F0ED0BEF1020F0FD0BEF1010FF9
:100B000014BF06F1200406F1140409E00025BEF12B
:100B1000030FF0D106F11C0402E000BF06F1180437
:100B2000236840F6FF77C968BB431943002D216055
:100B300048D042F20041C4F201018E4212D0816AD3
:100B40004FF0010C41F0200181623BE00668826AAF
:100B50004FF0010C42F020028262B268D2073FF4EB
:100B60006BAF70E7896809022CD4B168102A41F490
:100B70000001B16026D140F21C01C2F200010968F7
:100B80004DF68362C4F21B32A1FB0212910C01EB01
:100B90008101490000910099A1B1009901390091AA
:100BA000009979B1009901390091009951B10099EA
:100BB00001390091009929B10099013900910099FA
:100BC0000029EAD1002180F82410604601B0F0BD70
:100BD000006842F20041C4F20101884218BF704728
:100BE00040F2AC00C2F20000012101707047000029
:100BF000022909D003290BD00068042914BF3C3016
:100C000048300068704700BF006840300068704797
:100C1000006844300068704710B5044690F824001E
:100C2000012804BF022010BD012084F824002046C2
:100C3000FFF75EFB20B1002184F8241010BD00BF37
:100C400042F204422168A06AC4F2010243F20103A5
:100C5000984302F57F7300F580509942A06203D05B
:100C6000A06A20F4801006E0106810F4702FF7D00E
:100C7000A06A40F48010A062A06AC0055CBF00209A
:100C8000E062002084F824006FF004040C604C68DB
:100C900044F080044C604C68640548BF10BD88680F
:100CA00000F4E040B0F5E04F05D199420AD1106858
:100CB00010F4702F06D0886840F40040886000204F
:100CC00010BD00BF886840F402108860002010BD8D
:100CD00010B5044690F82400012804BF022010BD7E
:100CE000012084F82400A06AC0050BD42068406865
:100CF000400507D42046FFF7D1FA68B1002184F8F7
:100D0000241010BDA06A40F020010120A162002142
:100D100084F8241010BD00BF2068416821F08001D4
:100D20004160A06A41F201118843411C0020A16288
:100D3000002184F8241010BD7047000010B504464F
:100D400000684168890644BF01685FEA81710BD47D
:100D50004168090644BF01685FEA41712AD44168CD
:100D600049065BD410BD00BFA16AC90603D4A16ABD
:100D700041F40071A162816801F46021B1F5602F36
:100D800010D1217B71B9416821F020014160A06A36
:100D900020F48070A062A06AC00403D4A06A40F06E
:100DA0000100A0622046FFF7C7FF20686FF0120124
:100DB0000160CDE7A16AC90603D4A16A41F40051DC
:100DC000A162816801F4E041B1F5E04F10D14168C2
:100DD00021F080014160A06A20F48050A062A06AE6
:100DE000C00511D4A06A40F00100A0620CE000BF71
:100DF0004168490508D4816801F46021B1F5602F8C
:100E000002D1217B0029E2D02046FFF7E1FE2068D5
:100E10006FF00C01016041684906A3D50068C00766
:100E200008BF10BDA06A40F48030A062204600F0E8
:100E3000B3F820686FF00101016010BDB0B5002863
:100E400000F0A8800446806A20B121688868C00745
:100E50000BD114E00020E06284F82400204600F06A
:100E60009DF821688868C00709D0886820F00100D3
:100E7000886000F091FA21688A68D20726D1A06ABA
:100E8000C0063AD4A06A41F2021290430230A06236
:100E9000E069D4E9013240EA030C531EB3FA83F34C
:100EA0005D091346B2F5807F18BF2B02207D257B9C
:100EB00001284CEA450030D135B3A56A45F020053C
:100EC000A562E56A45F00105E56226E0054602E017
:100ED0008868C007D3D000F05FFA401B2168032860
:100EE000F6D38868C007F3D0A06A40F01000A06273
:100EF000E06A40F00100E062A06AA06A40F01000E1
:100F0000A0620120B0BD00BFD4F818C04EF60005A5
:100F1000CFF6FF7505EB4C352B434D68B2F5807F5E
:100F200025F4694543EA05034B608B684FF2FD7574
:100F3000CFF6E17503EA050343EA00038B6001D0B5
:100F4000012A07D122690023CFF6F07303EB025286
:100F500001E000BF0022CB6A23F470031A43CA6287
:100F6000896840F6FE62CFF61F721140814207D1B8
:100F70000020E062A16A012262F30101A162B0BD1A
:100F8000A06A40F0100020F00200A062E06A40F089
:100F90000100E0620120B0BD7047000080B586B05E
:100FA000014640F60000C4F20100096800F5E05275
:100FB00091424FF00001CDE9041101D006B080BD8F
:100FC00041F21801C4F202010A6842F400720A6098
:100FD0000A6802F400720192019A0A6842F004025F
:100FE0000A60096801F00401019101991821029138
:100FF0000321039102A900F0B5F81220002100227C
:1010000000F04CFA122000F035FA06B080BD000066
:10101000002804BF0120704710B50446407918B17C
:1010200001206071002010BD00202071204600F0DA
:1010300005F801206071002010BD000081B000683B
:1010400043F20001C4F20201884201D001B07047AE
:1010500041F21400C4F20200016841F04001016055
:10106000006800F040000090009801B07047000058
:10107000014690F82100022816D10868D1E90FC373
:10108000026822F00E020260026822F00102026091
:10109000012000FA03F2CCF8042081F8210000209E
:1010A000002281F82020704704208863012000225C
:1010B00081F820207047000080B590F821100229A7
:1010C00024D10268116821F00E0111602F211368EC
:1010D000C4F202018A4240F20401C4F2020123F088
:1010E0000103136016DD3023C4F202039A421DD0BF
:1010F0004423C4F202039A421CD05823C4F20203D0
:101100009A421DD14FF4803322E000BF0421816355
:10111000012080BD0823C4F202039A420ED01C2392
:10112000C4F202039A420BD1102311E04FF48073F2
:101130000EE000BF4FF480530AE000BF012307E038
:1011400001F1680C4FF08073624508BF4FF48013C3
:101150000B60416B4FF48072028401B1884700201C
:1011600080BD00002DE9F04F82B00E68002E00F027
:10117000038140F20C4C41F200424FF6FF7EC4F274
:10118000010CC4F20102042700240123C1F2100E55
:101190004FF0000A4FF00009904208BF0327009764
:1011A00045E000BF012704F00C030F229A402BEA10
:1011B000020207FA03F34FEA9A051A4346F825207C
:1011C000D1F804B040F20045C4F201055FEACB3229
:1011D0002A6854BF22EA080242EA08022A606A68C2
:1011E0005FEA8B3354BF22EA080242EA08026A60CF
:1011F0005FEACB23AA6854BF22EA080242EA080247
:101200005FEA8B23AA60DCF800204FF0010354BF93
:1012100022EA080242EA0802CCF800200E680AF12D
:10122000010A36FA0AF204F1040400F0A58003FA78
:101230000AF816EA080FF1D04E68764512DC122E35
:1012400056D8DFE806F0350B4549555555555555E7
:10125000555555555555554D510000BFD1F80C9079
:1012600046E000BF4FF6FF72C1F2210296420FDC4A
:101270000022C1F2110296421AD00022C1F21202DB
:10128000964215D00022C1F22102964210D02FE0E2
:101290000022C1F2220296420AD00022C1F231029B
:1012A000964205D00022C1F23202964220D100BF00
:1012B0008A684AB1012A14BFC0F81480C0F81080AF
:1012C0004FF0080914E000BF4FF0040910E000BF20
:1012D000CA6802F108090BE04FF0000908E000BFFE
:1012E000CA6802F1040903E0CA6802F10C0900BFF0
:1012F00022460646BAF1080F24BF203A0436376862
:101300000F25954027EA050509FA02F22A433260C3
:10131000CA79D2067FF582AF41F21803C4F2020304
:101320001A6842F001021A601A6802F00102019282
:10133000019A40F20042C4F20102A2F57E762AF040
:10134000030256F802B040F60002C4F201029042D5
:1013500010D040F60042C4F2010290423FF422AFA6
:1013600041F20002C4F20102009F904208BF02272E
:1013700019E700BF002716E702B0BDE8F08F0000B4
:101380008068084018BF012070470000002A08BF8D
:10139000090401617047000040F2E470C2F20000ED
:1013A0000068704740F2100040F2E471C2F20000A1
:1013B000C2F2000100780A6810440860704700001B
:1013C00080B542F20000C4F20200016841F0100151
:1013D0000160032000F08EF8002000F005F800F016
:1013E00027F8002080BD000070B540F21006C2F260
:1013F000000640F21C013278C2F200014FF47A7309
:101400000968B3FBF2F20446B1FBF2F1084600F0C2
:1014100063FC0F2C4FF0010508D838B94FF0FF30AE
:1014200021460022002500F039F87460284670BD7E
:1014300082B041F21800C4F202000168022241F0B9
:1014400001010160016801F0010101910199416808
:1014500041F080514160406800F080500090009859
:101460000420C4F20100016862F31A61016002B055
:1014700070470000002848BF7047C1B200F01F004D
:10148000012202FA00F04EF20012CEF2000242EA0D
:10149000D10121F0030108607047000010B54EF63D
:1014A0000C5CCEF2000CDCF80030C3F3022E8EF0A0
:1014B0000704042C28BF0424BEF103034FF0FF3EB1
:1014C0000EFA04F438BF0023A14399400EFA03F347
:1014D0009A43114300F00F0200F160430901043AFE
:1014E00003F564436244002848BF02F10C031970FD
:1014F00010BD00004EF60C51CEF200010A684FF606
:10150000FF031A4060F30A2242F0806040F0FD7051
:101510000860704701F0F6FF80B5012818D0022856
:1015200036D0102832D141F20401C4F202010A6817
:1015300051F8040CC00129D5C2F383402DA3185CD7
:10154000D2033DD440F60012C0F23D02504343E0C6
:1015500041F20400C4F20200C16940F202320A40C2
:10156000B2F5817F04BF4FF4004080BD01F44071AB
:10157000B1F5407F1CD0B1F5007F07D1006A49F674
:101580004041800701EAE07080BD00BF002080BDBF
:1015900000F0B4F941F20401C4F202010968022228
:1015A000C1F3813102EB4101B0FBF1F080BD00BF1E
:1015B00050F8040C4FF22441800301EAE07080BD32
:1015C0000A6810A3C2F340429A5C41F20023C0F2C1
:1015D0007A03B3FBF2F250430968490248BF80BD69
:1015E0004AF6AB214000CAF6AA21A0FB0101480837
:1015F00080BD00BF02030405060708090A0B0C0D95
:101600000E0F1010010200002DE9F04182B00446D7
:10161000007841F21C06C007C4F202064AD03068C6
:1016200010F0805808D1306840F080503060306849
:1016300000F080500190019847F20007C4F20007C3
:101640003868C00512D4386840F480703860FFF7FD
:10165000A3FE05463868C00508D4FFF79DFE401B71
:101660006428F7D9032002B0BDE8F081706810F457
:10167000407012D0616801F4407188420DD07068EA
:1016800040F24042C4F24222012320F44071136030
:101690000023C007136071602AD17068616820F46C
:1016A00040700843B8F1000F706003D1306820F03B
:1016B000805030602068810707D556F8181CA26852
:1016C00021F44041114346F8181CC00604D4002000
:1016D00002B0BDE8F08100BF56F8180CE16820F4B4
:1016E0008000084346F8180C002002B0BDE8F081E5
:1016F000FFF752FE054641F2883700BF7068800749
:10170000CBD4FFF749FE401BB8424FF00300F5D998
:10171000EBE700002DE9F04381B0002800F0858060
:1017200042F20008C4F202080446D8F800000D4650
:1017300000F0070088420CD2D8F8000020F0070023
:101740002843C8F80000D8F8000000F00700A842BD
:101750006BD1206841F204098107C4F2020917D550
:10176000410705D5D9F8001041F4E061C9F800102F
:10177000010705D5D9F8001041F46051C9F80010EF
:10178000D9F80010A26821F0F0011143C9F8001047
:10179000C00741D1D8F8000000F00700A8420CD9DA
:1017A000D8F8000020F007002843C8F80000D8F857
:1017B000000000F00700A84237D12068410707D594
:1017C000D9F80010E26821F4E0611143C9F8001073
:1017D000000708D5D9F80000216920F4605040EADC
:1017E000C100C9F80000D9F8002002F00C00082858
:1017F00041F20020C0F27A0050D144F64703C2F310
:101800008341C0F60003595CD2033BD440F600107C
:10181000C0F23D00484341E0606802280AD0012838
:101820002AD159F8041C890308D4012001B0BDE86D
:10183000F08300BF59F8041C8901F6D5D9F80010CF
:1018400021F003010843C9F80000FFF7A5FD064693
:1018500041F28837D9F80000616800F00C00B0EB65
:10186000810F97D0FFF798FD801BB842F2D9032073
:1018700001B0BDE8F08300BF59F8041C8907D4D536
:10188000DCE700BFD9F8002044F23673C2F34042CF
:10189000C0F600039A5C4843B0FBF2F0D9F80010A0
:1018A00044F25072C1F30311C0F60002515C40F2E1
:1018B0001C0220FA01F140F21400C2F2000000689C
:1018C000C2F200021160FFF78FFD002001B0BDE8F9
:1018D000F083000040F21C0041F20401C2F200005B
:1018E000C4F202010068096844F26072C1F3022187
:1018F000C0F60002515CC8407047000040F21C0076
:1019000041F20401C2F20000C4F202010068096859
:1019100044F26072C1F3C221C0F60002515CC840BB
:10192000704700002DE9F04182B0002868D00446DD
:10193000007841F20006C007C4F2020625D07068A4
:1019400000F00C0004281BD0706800F00C00082880
:1019500002D17068C00313D46068002800F0688169
:10196000B0F5A02F00F07C81B0F5803F00F07C81C5
:10197000306820F480303060306820F4802076E1D8
:101980003068800301D56068D0B32078800718D50F
:10199000706810F00C0F07D0706800F00C00082879
:1019A0006ED17068C0036BD43068800702D520699F
:1019B000012825D13068616920F0F80040EAC100B3
:1019C0003060207800071FD42078400732D4E569C2
:1019D00095B1706800F00C00082840F08F80012D50
:1019E0000ED07068216A00F480328A4208D1616AA0
:1019F00000F47010884203D1002002B0BDE8F081ED
:101A0000012002B0BDE8F081A069002862D000206A
:101A1000C4F242200121C0F88014FFF7BDFC054646
:101A2000706A800700F18C80FFF7B6FC401B02282B
:101A3000F6D92AE1F06910F0805808D1F06940F039
:101A40008050F061F06900F080500090009847F2FB
:101A50000007C4F200073868C00529D4386840F48C
:101A600080703860FFF798FC054600BF3868C005F5
:101A70001ED4FFF791FC401B6428F7D905E100BF95
:101A80002069002840F20000C4F2422000F0828069
:101A900001210160FFF780FC054600BF3068800728
:101AA0003FF588AFFFF778FC401B0228F6D9ECE041
:101AB000E068002800F08080052800F09780012869
:101AC00000F09880306A20F001003062306A20F027
:101AD000040092E00020C4F242200021C0F88014EB
:101AE000FFF75AFC054600BF706A80077FF56CAFB0
:101AF000FFF752FC401B0228F6D9C6E00027C4F2CB
:101B0000422700203866FFF747FC022D05460BD11F
:101B10003068800140F1BE80FFF73EFC401B022888
:101B20004FF00300F4D968E7306880017FF564AFB7
:101B3000FFF732FC401B02284FF00300F4D95CE7AA
:101B400040F21C00C2F20000006844F6D351C1F21A
:101B50006201A0FB0101480A019000BF00BF01988B
:101B6000411E002801913FF42FAF00BF0198411E94
:101B7000002801913FF428AF00BF0198411E0028C2
:101B800001913FF421AF00BF0198411E002801914F
:101B9000E4D119E700210160FFF7FEFB054600BF15
:101BA000306880077FF50DAFFFF7F6FB401B02287A
:101BB0004FF00300F4D920E7306A20F001003062D2
:101BC000306A20F004003062FFF7E6FB054641F280
:101BD000883700BF306A800720D5FFF7DDFB401B48
:101BE000B8424FF00300F5D907E700BF306A40F074
:101BF00004003062306A40F001003062FFF7CCFB35
:101C0000054641F2883700BF306A800706D4FFF7E7
:101C1000C3FB401BB842F7D937E000BFB8F1000F53
:101C20007FF4D5AEF06920F08050F061CFE600BFC0
:101C3000306820F480303060306820F480203060DC
:101C4000FFF7AAFB054600BF306880037FF59DAE15
:101C5000FFF7A2FB401B64284FF00300F4D9CCE649
:101C6000306840F480203060306840F4803030606C
:101C7000FFF792FB054600BF306880033FF585AE55
:101C8000FFF78AFB401B6428F6D9032002B0BDE8A9
:101C9000F08100BF206AB0F5803F05D17168A2686D
:101CA00021F40031114371607168626A21F474118A
:101CB00011430843706001203866FFF76DFB04464E
:101CC000306880013FF598AEFFF766FB001B0228E5
:101CD0004FF00300F4D990E6411E0020B0EB116FE5
:101CE0001CBF012070474EF21002CEF2000251607C
:101CF0004EF62351CEF20001F0230B7007219060C5
:101D00001160704710B590F83C20012A4FF0020294
:101D100033D080F83D200268D2F804E0D2F808C041
:101D20000C682EF07003234340F2FF74C4F20004E9
:101D3000A24253600ADCB2F1804F13D040F200435C
:101D4000C4F200039A420DD011E000BF42F60043F6
:101D5000C4F201039A4205D040F60003C4F2000326
:101D60009A4204D149682CF0800319439160012103
:101D7000002280F83D1080F83C20104610BD000085
:101D8000002804BF0120704710B5044690F83D00BC
:101D900028B9002084F83C00204600F067F80220B3
:101DA00084F83D00206840F2FF730268C4F200032B
:101DB00042F6004C9842C4F2010C15DCB0F1804FA1
:101DC0001AD040F20041C4F20001884214D0984277
:101DD00018DCB0F1804F1DD040F20041C4F2000188
:101DE000884217D01AE000BF604505D040F60001D8
:101DF000C4F200018842EAD1A16822F070020A43CD
:101E00009842E6DD604505D040F60001C4F20001CD
:101E1000884203D1216922F440720A43A36922F067
:101E20008001D4F804E0E268194360450160C262B1
:101E3000C0F828E002D16169CCF83010012141617D
:101E4000002084F8461084F83E1084F83F1084F88F
:101E5000401084F8411084F8421084F8431084F84C
:101E6000441084F8451084F83D1010BD82B000681D
:101E700040F60001C4F20001884211D0B0F1804F59
:101E80001BD141F21C00C4F20200016841F00101C3
:101E90000160006800F001000190019802B07047F5
:101EA00041F21C00C4F20200016841F0040101602B
:101EB000006800F004000090009802B07047000035
:101EC00080B590F83C20012A4FF0020200F0BF805C
:101ED00080F83D20D0F800C04FF67772DCF808306B
:101EE00023EA0202CCF808200B683F2B1CDD5F2B95
:101EF00020DD602B50D0B3F5005F6DD0702B40F02B
:101F0000A080D1E901E3C968DCF8082043EA0E03A8
:101F100022F47F4243EA01211143CCF80810DCF897
:101F2000081041F077018AE01F2B29DC63B3102BE6
:101F30002AD086E0402B63D0502B40F08280D1F82D
:101F400004E0C968DCF82030DCF8202022F001022F
:101F5000CCF82020DCF8182022F0F00242EA01112F
:101F600023F00A0242EA0E02CCF81810CCF8202026
:101F7000DCF8081041F0570121F020015FE000BFBC
:101F8000202B01D0302B5CD1DCF8081021F070013F
:101F9000194341F0070152E0D1F804E0C968DCF8C8
:101FA000203023F01003CCF82030DCF81830DCF8B7
:101FB000202023F4704322F0A00243EA013142EAD8
:101FC0000E12CCF81810CCF82020DCF8081041F0E4
:101FD000670121F0100132E0D1E901E3C968DCF8C2
:101FE000082043EA0E0322F47F4243EA0121114311
:101FF000CCF80810DCF8081041F480411FE000BF65
:10200000D1F804E0C968DCF82030DCF8202022F0A8
:102010000102CCF82020DCF8182022F0F00242EA7D
:10202000011123F00A0242EA0E02CCF81810CCF893
:102030002020DCF8081041F0470121F03001CCF8F5
:1020400008100121002280F83D1080F83C20104645
:1020500080BD000080B586B0006840F60001C4F283
:10206000000188424FF00001CDE90411CDE90211D1
:1020700016D0B0F1804F30D141F21800C4F2020006
:10208000016841F0040101600068032100F00400D0
:102090000190019840F60000C4F2010015E000BF75
:1020A00041F21800C4F20200016841F00801016029
:1020B00000684FF4707100F008000190019840F63C
:1020C0000000C4F2010000F580600291022103913A
:1020D0000121059102A9FFF745F806B080BD000077
:1020E0002DE9F04390F83C30012B04BF0220BDE8FD
:1020F000F0834FEAB202032A00F2E980DFE802F03F
:10210000023A78B4036842F600461A6AC4F201063D
:1021100022F001021A621D6A1A465C6852F818CF52
:10212000B3428E68D1F800E025F0020545EA0605C5
:102130000CD1CE68D1E9057824F4407425F00C0563
:1021400026F004063C43354344EA08042CF07307A8
:1021500047EA0E075C609F614F6809695F631D6213
:102160009F6947F008079F619F6927F004079F61F7
:10217000AAE000BF036842F600461A6AC4F20106EC
:1021800022F010021A621D6A1A46D3F804C052F8EF
:10219000184FB3428E68D1F800E025F0200545EADB
:1021A000061510D1CE68D1E9058725F0C0096FF07A
:1021B000400505EA06152CF4406647EA080745EA9B
:1021C000090546EA870C24F4E64444EA0E27C3F8DE
:1021D00004C09F614F6809699F631D629F6947F44E
:1021E00000679F619F6927F480679F616BE000BF74
:1021F000036842F600461A6AC4F2010622F48072AD
:102200001A621D6A1A46D3F804C052F81CEFB34292
:102210008E680C6825F4007545EA062511D1CE6854
:10222000D1E9058725F44069360240F2FF4526EAE8
:1022300005052CF4405647EA080745EA090546EA31
:10224000071C2EF073072743C3F804C0DF614F68F3
:102250000969DF631D62DF6947F00807DF61DF6935
:1022600027F00407DF612FE0036842F600471A6A8F
:10227000C4F2010722F480521A621A46D3F820C031
:102280005D6852F81C4FD1F800E08E68BB4204D163
:102290004F6925F4804545EA87152CF4005747EA35
:1022A000063724F4E64646EA0E265D60DE614E6897
:1022B00009691E641F62DF6947F40067DF61DF6937
:1022C00027F48067DF610902136819431160002158
:1022D00080F83C100846BDE8F0830000002804BFE9
:1022E0000120704710B5044690F83D0028B9002041
:1022F00084F83C00204600F067F8022084F83D0096
:10230000206840F2FF730268C4F2000342F6004CFA
:102310009842C4F2010C15DCB0F1804F1AD040F2A3
:102320000041C4F20001884214D0984218DCB0F198
:10233000804F1DD040F20041C4F20001884217D006
:102340001AE000BF604505D040F60001C4F200016C
:102350008842EAD1A16822F070020A439842E6DD81
:10236000604505D040F60001C4F20001884203D167
:10237000216922F440720A43A36922F08001D4F853
:1023800004E0E268194360450160C262C0F828E0D9
:1023900002D16169CCF8301001214161002084F83C
:1023A000461084F83E1084F83F1084F8401084F8FA
:1023B000411084F8421084F8431084F8441084F8E3
:1023C000451084F83D1010BD7047000070470000B4
:1023D00070470000B0B582B0026805461068D36847
:1023E000546900F02F01202903F0200106D129B102
:1023F000284602B0BDE8B04000F03EBE5FEA007C77
:102400001EBF04F0010E03F4907414EB0E0453D1BC
:10241000296B012905D110F0100118BF13F010012C
:1024200036D1010622D513F080011FD095F83D006A
:1024300021283FD1A868B0F5805F03D12869002822
:1024400000F0F880286A411C296200785060E88C0E
:1024500001380104E8842DD1D06820F08000D060DC
:10246000D06840F04000D06002B0B0BD400621D539
:1024700013F040001ED0D068202120F04000D06032
:10248000284685F83D1002B0BDE8B04000F0F4B930
:1024900000200190106801905068019001985069E7
:1024A000400611D4A88DE98DEB8D002B18BF884212
:1024B00040F0A68002B0B0BDC40718BF13F480730B
:1024C0002CD1430730D436E0A86B01684B689CB22E
:1024D000002CEFD0A98D8C42ECD2EB858369202BA8
:1024E00017D0D16821F48071D160516921F00101C8
:1024F0005161516921F040015161202185F83E1060
:1025000000212963D16821F01001D160FEF7B0FDF0
:10251000A98DE88D081A81B2284685E02B6C43F01E
:1025200001032B64430706D5BEF1000F03D02B6CCB
:1025300043F002032B64830706D5BEF1000F03D0DE
:102540002B6C43F004032B64BCF1000F09D541EA66
:102550000E03B3FA83F35B0903D12B6C43F008033A
:102560002B642B6C002BA5D010F0200018BF002985
:1025700003D0284600F080FD2A685069296C00F0DD
:10258000400001F0080140182CD0D06820F4907071
:10259000D060506920F001005061286B012803D100
:1025A000D06820F01000D060202085F83E00002088
:1025B0002863506940061DD5506920F040005061E5
:1025C000A86BB8B143F26D01C0F600014163FEF79C
:1025D00073FD00283FF46EAFA86B416B02B0BDE8FD
:1025E000B04008472846FFF7F3FE0020286402B0F9
:1025F000B0BD00BF284602B0BDE8B040FFF7E8BE5E
:10260000D368401A23F49073D360536981B223F0E6
:1026100001035361202385F83E3000232B63D368E8
:10262000284623F01003D36002B0BDE8B040FFF7A6
:10263000CDBE00BF286A30F8021B6FF35F215160E6
:10264000286204E7002804BF0120704710B5044643
:1026500090F83D0028B9002084F83C00204600F0A6
:1026600061F8242084F83D002068D4E90212C36890
:1026700023F40053C360036923F440531A430261F7
:10268000D4E904231143C268194341F20C639A430D
:102690001143C1604169A26921F44071114343F6BD
:1026A0000002C4F201029042416103D0FFF712F927
:1026B00002E000BFFFF722F9626819214843910048
:1026C000B0FBF1F048F21F51C5F2EB11A0FB012362
:1026D0005A094FF69C73C0F6FF7302FB03003223C6
:1026E00003EB0010A0FB0101F02303EA5113206863
:1026F00003EB0212C1F3431111448160016921F41B
:1027000090410161416921F02A014161C16841F4B0
:102710000051C16000202021206484F83D1084F81D
:102720003E1010BD70B586B040F60044C4F20104FE
:102730000068A4F5444100268842049602D006B001
:1027400070BD00BF41F21800C4F20200416802AD42
:1027500041F480214160416801F480210191019997
:10276000016841F0080101600068294600F0080096
:10277000019001984FF480600290022003900320A2
:1027800005902046FEF7EEFC4FF40060CDE902060E
:10279000204629460496FEF7E5FC2720002100226A
:1027A000FEF77CFE2720FEF765FE06B070BD000038
:1027B000034690F83E0020280AD100294FF001007E
:1027C00018BF002A00D1704793F83C00012801D1BE
:1027D0000220704700201863996222219A85DA85C9
:1027E000186483F83E10196883F83C00CA6842F404
:1027F0008072CA604A6942F001024A61CA6842F0C6
:102800002002CA607047000040F28251C2F200010B
:1028100091F8C4200132D3B2C42B81F8C42004BF84
:10282000002281F8C42091F8C42011440122FFF74E
:10283000BFBF0000034690F83D0020280AD10029C0
:102840004FF0010018BF002A00D1704793F83C00F8
:10285000012801D1022070471962002021219A84A9
:10286000DA84186483F83D10196883F83C00CA685C
:1028700042F08002CA60704740F28250C2F200000B
:10288000002180F88A117047FEE700002DE9F0432F
:1028900081B040F21805C2F20005884629884FF63B
:1028A000FF79064640F282501446494504BF2C8009
:1028B0002146C2F2000090F88A0118B1012001B04F
:1028C000BDE8F08336F81100002818BF494505D14E
:1028D000A5F80090002001B0BDE8F08344F28C71AF
:1028E000C0F600014F1C00BF80B200F079FA012849
:1028F000E4D0384600F0FAFC0128DFD02888002810
:1029000008BF4046013881B2A14208BF484628802E
:1029100081B236F81100002818BF4945E4D1D7E745
:10292000FEE70000FEE7000070470000704700006F
:102930002DE9F04F83B093F80090CDE901320C9B64
:10294000B9F1000F009053D044F64007C0F60007DD
:1029500097F800A018781A46009B5FFA80FE1C7852
:1029600011F80E50AC4200F08B80029B1F8801E0F2
:102970000EF1010EBE4573D211F80E405445F7D149
:102980000EF1010EBE45F3D2019B09F1010983F856
:1029900000900D9B93F800B00EEB0B00864517D20C
:1029A000029BCBF10005B3F800C00027764600BFBC
:1029B00066450ED292F800808C5D01EB08035B5DEA
:1029C0000136A34208BF01370135F1D301E000BF52
:1029D0000027FBB25B4503D0029B1F88C8E700BFFE
:1029E00013461070019A92F80090B9F1000FB2D11D
:1029F0000D9A4FF0000C82F800C0029A14885CB364
:102A000044F64002C0F6000292F800E000984FF051
:102A1000000C002604E000BF2E460136A64229D253
:102A20008D5D7545F9D1751CA5420CF1010CF3D2F1
:102A300002784F5DBA42EFD1019880F800C0B01C17
:102A400018700D9B4FF0010C1A7801321A70085C57
:102A5000704508BF4FF0020C604603B0BDE8F08F30
:102A600001984FF0000C80F800C0604603B0BDE84C
:102A7000F08F00BF4FF0000C604603B0BDE8F08F50
:102A80000130134610700D9A1078013010701878CC
:102A9000085CA0EB0A00B0FA80F040094FEA400C55
:102AA000604603B0BDE8F08FB0B50D4630B344F2D8
:102AB000D4730246C0F60003002100BF18785F28D7
:102AC00008BF0131C8B2904220D258785F2808BFB1
:102AD0000131C8B290421FD298785F2808BF0131F7
:102AE000C8B290421ED2DC78181D5F2C08BF01319D
:102AF000CBB293420346E1D30FE000BF44F2D4705F
:102B0000C0F6000001785F290AD00FE0581C017858
:102B10005F2905D00AE000BF981C01785F2905D124
:102B2000002121E0D81C01785F29F9D0821C002106
:102B300012F8013C5F2B0DD013785F2B0ED0537829
:102B40005F2B0FD0937804315F2B02F10402EFD199
:102B50000AE000BF41F0010106E000BF41F00201C0
:102B600002E000BF41F00301C9B200F0DDFB44F216
:102B70008C70C0F60000013000F0B8FB25B344F2C1
:102B80006872C0F60002002110785F2808BF01318A
:102B9000C8B2A84220D250785F2808BF0131C8B21D
:102BA000A8421FD290785F2808BF0131C8B2A8425E
:102BB0001ED2D378101D5F2B08BF0131CAB2AA42C2
:102BC0000246E1D30FE000BF44F26870C0F6000097
:102BD00001785F290AD00FE0501C01785F2905D0E9
:102BE0000AE000BF901C01785F2905D1002121E097
:102BF000D01C01785F29F9D0821C002112F8013C19
:102C00005F2B0DD013785F2B0ED053785F2B0FD036
:102C1000937804315F2B02F10402EFD10AE000BF88
:102C200041F0010106E000BF41F0020102E000BFF7
:102C300041F00301C9B200F077FB44F64200C0F650
:102C4000000000F053FB44F64100C0F60000BDE870
:102C5000B04000F04BBB000010B5044640B2B0F1EC
:102C6000FF3F0BDD44F28C70C0F60000073000F02F
:102C70003DFB002840F0A3800BE000BF44F28C70C5
:102C8000C0F60000093000F031FB00281CBF012015
:102C900010BD60060AD444F28C70C0F60000073004
:102CA00000F024FB002840F08A800AE044F28C7097
:102CB000C0F60000093000F019FB00281CBF0120FD
:102CC00010BDA0060AD444F28C70C0F60000073094
:102CD00000F00CFB002872D10BE000BF44F28C70B6
:102CE000C0F60000093000F001FB00281CBF0120E5
:102CF00010BDE0060AD444F28C70C0F60000073024
:102D000000F0F4FA00285AD10BE000BF44F28C70B6
:102D1000C0F60000093000F0E9FA00281CBF0120CD
:102D200010BD20070AD444F28C70C0F600000730B2
:102D300000F0DCFA002842D10BE000BF44F28C70B6
:102D4000C0F60000093000F0D1FA00281CBF0120B5
:102D500010BD600708D444F28C70C0F60000073044
:102D600000F0C4FA58BB0AE044F28C70C0F60000D0
:102D7000093000F0BBFA00281CBF012010BDA007DD
:102D800008D444F28C70C0F60000073000F0AEFAB0
:102D9000A8B90AE044F28C70C0F60000093000F0D7
:102DA000A5FA00281CBF012010BDE0070AD144F29B
:102DB0008C70C0F60000073000F098FA68B101206E
:102DC00010BD00BF44F28C70C0F60000093000F066
:102DD0008DFA00281CBF012010BD002010BD00008E
:102DE000F0B581B0010940F2473251434DF6F0028F
:102DF000C90CCFF6FF7201FB020342F2C5069AB27C
:102E0000D70877434FF618453F0DCFF6FF7507FB00
:102E1000053341F27B449EB2B6086643C6F347468B
:102E200005F5617506FB05344CF6CD45A3B26B4341
:102E300042F21075A842C3F3C74505D2B2F57A7FB6
:102E40000CD2AEB9F5B92BE044F28C70C0F600009C
:102E500000EB4100073000F049FAE8B944F28C7009
:102E6000C0F6000000EB4700073000F03FFA98B9C9
:102E700044F28C70C0F6000000EB4600073000F012
:102E800035FA48B944F28C70C0F6000000EB4500FA
:102E9000073000F02BFA18B1012001B0F0BD00BFDF
:102EA00005EB8500A4EB400044F28C7180B2C0F6C3
:102EB000000101EB4000073000F018FA002818BFAD
:102EC000012001B0F0BD000080B5FEF76BFABDE84F
:102ED000804000F075B800007047000080B501F038
:102EE0001F014FF0010CD0F820E00CFA01F32EEA9C
:102EF00003030362036A02FA01F11943016280BD10
:102F00002DE9F047DDE9089880B21E4617460C46C9
:102F1000FFF766FF44F28C7AC0F6000A0AF1030557
:102F2000284600F0E3F9092C03D80AF1070000F065
:102F3000DDF92046FFF754FF284600F0D7F9092FA6
:102F400003D80AF1070000F0D1F93846FFF748FF2F
:102F50000AF1010000F0CAF9092E03D80AF10700AE
:102F600000F0C4F93046FFF73BFF0AF105042046A4
:102F700000F0BCF9B9F1090F03D80AF1070000F01D
:102F8000B5F94846FFF72CFF204600F0AFF9B8F13D
:102F9000090F03D80AF1070000F0A8F94046FFF72F
:102FA0001FFF44F64200C0F6000000F09FF944F60F
:102FB0004100C0F60000BDE8F04700F097B90000FE
:102FC00040F22010C2F20000816811B1816801391D
:102FD0008160C16911B1C1690139C161016B11B170
:102FE000016B01390163416C11B1416C01394164DC
:102FF000816D11B1816D01398165C16E11B1C16EF3
:103000000139C16640F2AC00C2F20000816B11B11F
:10301000816B01398163016C11B1016C013901646B
:1030200040F20001C2F200010A6812B10A68013AD6
:103030000A60826912B18269013A8261826812B1C2
:103040008268013A82604A6812B14A68013A4A606D
:10305000018E19B1018E01390186704740F2EE31BF
:103060000186012180F8321070470000406A00217B
:10307000C185C184FFF7ACB981B090F83E10222918
:1030800021D183680246B3F5805F09D152F8281F29
:1030900052F8183C002B3FD003685B680AE000BF81
:1030A00052F8281F13B90369002BF5D003685B6839
:1030B00003F07F030B70116801311160C18D01397C
:1030C0000A04C18502D001B0704700BF0168CA6818
:1030D00022F02002CA60CA6822F48072CA604A697B
:1030E00022F001024A61202280F83E20026B012A70
:1030F0001AD100220263CB6823F01003CB600B6867
:10310000DB0605D500920A68009249680091009993
:10311000818D01B0FFF75AB9026852686FF35F22E0
:1031200021F8022B8162C9E701B0FFF76DBB0000F7
:1031300070B582B040F28254C2F2000494F8C40028
:1031400094F8C510884200F0C48094F8C500205C53
:103150000A280DD00D2819D140F28000C2F20000DB
:103160000178032914BF012104210170A6E000BFEA
:1031700040F28000C2F200000178042918D0012931
:1031800040F09C800221017098E000BF40F2800670
:10319000C2F2000630780138032800F28F80DFE8A1
:1031A00000F0030F2D0300BF0020307086E000BF49
:1031B000022101700020FF210022FDF701FA7DE0CD
:1031C000032030800020A6F8030094F8C500311DCC
:1031D000009144F2D47144F63E022044B51CF31C25
:1031E000C0F60001C0F600020195FFF7A1FB02281E
:1031F00064D1F0780021002250E000BF70780428EC
:103200005CD8DFE800F0030523335300DDE700BF9F
:1032100094F8C500205C202850D094F8C500311DDA
:10322000009144F2B67144F2D2722044B51CF31CF2
:10323000C0F60001C0F600020195FFF779FB0228F5
:103240003CD1F1780020002235E000BF94F8C500A1
:10325000311D009144F28C7144F28A722044B51CF5
:10326000F31CC0F60001C0F600020EE094F8C500A1
:10327000311D009144F28C7144F2B4722044B51CAB
:10328000F31CC0F60001C0F600020195FFF750FBE9
:103290000138012812D8F278002000210025FDF71E
:1032A0008FF970703571758008E000BF94F8C50023
:1032B0000021225C0020FDF783F9707094F8C500AE
:1032C0000130C1B2C42984F8C50004BF002084F8CD
:1032D000C50002B070BD000040F28251C2F2000190
:1032E00091F8C42011440122FFF762BA017840F23C
:1032F0008250C2F2000090F888218318013280F8D1
:10330000882183F8C61090F88811C22904BF0021D3
:1033100080F8881190F8881190F88901081AB0FA9D
:1033200080F0400970470000B0B5024600294FF018
:10333000000008BFB0BD40F2825C0123C2F2000C65
:1033400092F800E09CF888410CEB040501348CF8FD
:10335000884185F8C6E09CF88851C22D08BF8CF8DA
:1033600088019CF888519CF88941A54208D0013316
:10337000DDB28D4202F10102E2D90020B0BD00BFF2
:103380000120B0BD10B540F28254C2F2000494F89E
:10339000892194F88A1194F888319A4225D000291D
:1033A00018BF10BD94F8891194F8882194F88931D8
:1033B0009142234403F1C6010AD294F8882194F87B
:1033C0008931D21A92B2FFF735FA94F8880107E0F2
:1033D00094F88921C2F1C20292B2FFF72BFA0020C1
:1033E00084F88901012084F88A0110BD40F2A070A0
:1033F000C2F20000FEF7EEBFFEE7000010B544F297
:10340000D4720446C0F60002002100BF10785F2885
:1034100008BF0131C8B20D2818D850785F2808BFFE
:103420000131C8B20D2813D890785F2808BF013148
:10343000C8B20D280ED8D378101D5F2B08BF0131FC
:10344000CAB20E2A0246E1D305E000BF501C02E0DA
:10345000901C00E0D01C0521FFF766FF2046FFF717
:10346000BFFC44F64200C0F60000FFF73FFF44F601
:103470004100C0F60000BDE81040FFF737BF000074
:1034800010B544F2D4720446C0F60002002100BF19
:1034900010785F2808BF0131C8B20E2818D85078BC
:1034A0005F2808BF0131C8B20E2813D890785F2872
:1034B00008BF0131C8B20E280ED8D378101D5F2B7B
:1034C00008BF0131CAB20F2A0246E1D305E000BFAE
:1034D000501C02E0901C00E0D01C0721FFF724FFE5
:1034E0002046FFF77DFC44F64200C0F60000FFF7DF
:1034F000FDFE44F64100C0F60000BDE81040FFF7B5
:10350000F5BE00004EF60C50BFF34F8FCEF2000018
:103510000168042201F4E061C0F2FA521143016033
:10352000BFF34F8F00BF00BF00BF00BFFAE700002E
:103530009CB040F2AC08C2F2000840F2E770A8F874
:10354000240001271220A8F82670A8F828001320CC
:1035500042F2C071A8F82A0040F20000C0F209014E
:10356000C2F20000416040F29810C2F20000002652
:10357000A0F8E863FDF724FF12AD281D2421FCF715
:1035800023FE022012901020179028460B96CDE9BA
:10359000096616971996FEF7C5F928B1EFF3108062
:1035A00072B600BFFEE700BF0F20CDE90D064FF455
:1035B0008060CDE910060DA800210F96FEF7AAF84D
:1035C00020B1EFF3108072B6FEE700BF02244FF087
:1035D000000908A80894CDF82890FEF715F828B13E
:1035E000EFF3108072B600BFFEE700BF41F2180093
:1035F000CDE91499C4F20200016840F6004B41F095
:10360000100101600168C4F2010B01F010010D917D
:103610000D990168002241F02001016001684FF41A
:10362000804701F020010D910D99016841F00401DE
:103630000160016801F004010D910D99016841F0EC
:103640000801016000684FF4804100F008000D900F
:103650000D985846FDF79AFE4FF4604012AE129056
:103660004FF0030A0BF580603146CDF84CA0FDF712
:1036700079FD0BF500603146CDE912AAFDF772FD28
:1036800049F6E460ABF58065CDE9120A284631467B
:10369000FDF768FD43F23F00CDE9120A5846314676
:1036A000FDF760FD01201297CDE9130940F60007F0
:1036B000584631461594C4F20007DA46FDF752FD2C
:1036C0004FF40040CDE9120958463146CDF85090EC
:1036D000FDF748FD4FF48070CDE9120928463146C8
:1036E000CDF85090FDF73EFD0420C4F201000168C2
:1036F0004FF47A7241F0E06141F40041016040F220
:103700005870C2F200000721CDF84090CDE90E9923
:10371000CDE90899CDE91799CDE91599C0E900716E
:10372000C0E90292C0F81090C0F81890FEF728FB8C
:1037300020B1EFF3108072B6FEE700BF4FF4805067
:103740000D9040F25870C2F200000DA9FEF7B8FBD0
:1037500020B1EFF3108072B6FEE700BF40F2587060
:10376000C2F20000FEF7BAFD20B1EFF3108072B68E
:10377000FEE700BF40F25870C2F2000008A9FEF751
:10378000C1FA28B1EFF3108072B600BFFEE700BFA8
:10379000602012900020CDE91300169040F258707E
:1037A000C2F2000012A90022FEF79AFC20B1EFF34A
:1037B000108072B6FEE700BF40F25870C2F20000FF
:1037C00012A90422FEF78CFC20B1EFF3108072B630
:1037D000FEE700BF40F25870C2F2000012A90822B2
:1037E000FEF77EFC20B1EFF3108072B6FEE700BF5B
:1037F00040F25870C2F2000012A90C22AB46FEF74C
:103800006FFC18B1EFF3108072B6FEE740F258700B
:10381000C2F20000FEF71EFC43F20001C4F20201F6
:10382000404640F81C1FFDF7F3FB18B1EFF3108082
:1038300072B6FEE70AF5C0514046002540F8441F25
:103840004FF480714FF460220226179505730575B9
:10385000C261C0E901510661FDF7F0FA20B1EFF352
:10386000108072B6FEE700BF032001211290CDE95F
:1038700013104FF4E040189008F1440012A9169676
:1038800015950690FDF78AF820B1EFF3108072B617
:10389000FEE700BF0420129002201390069812A9A0
:1038A000FDF77CF820B1EFF3108072B6FEE700BFA1
:1038B00040F210700021C2F200004FF08042072356
:1038C0004FF47A761091CDE90E11CDE90811CDE9CA
:1038D0001711CDE91511C0E90023C0E902160161F5
:1038E0008161FEF74DFA18B1EFF3108072B6FEE772
:1038F0004FF480500D9040F21070C2F200000DA9FC
:10390000FEF7DEFA20B1EFF3108072B6FEE700BFDB
:1039100040F21070C2F20000FEF7E0FC20B1EFF3BD
:10392000108072B6FEE700BF40F21070C2F20000D5
:1039300008A9FEF7E7F918B1EFF3108072B6FEE7B9
:10394000602012900020CDE91300169040F2107014
:10395000C2F2000012A90022FEF7C2FB20B1EFF371
:10396000108072B6FEE700BF40F21070C2F2000095
:1039700012A90422FEF7B4FB20B1EFF3108072B657
:10398000FEE700BF40F21070C2F20000FEF762FBDB
:1039900040F2A07007F58041C2F2000000260C231F
:1039A0004FF4E13280E84600C0E90366C0E905361D
:1039B000C661FEF747FE18B1EFF3108072B6FEE75E
:1039C0000698FCF761FF40F25874C2F200042068C8
:1039D000012201683D4641F00101016038460021A5
:1039E000FFF77CFA384604210122FFF777FA3846C0
:1039F00008210122FFF772FA38460C210122FFF755
:103A00006DFA40F21075C2F20005286801220168C3
:103A100041F0010101604FF080400021FFF75EFAA4
:103A20004FF0804004210122FFF758FA40F220199C
:103A3000C2F2000900270A26192128682268C9F85D
:103A40000070C9F80470C9F80C60C9F81010C9F802
:103A50000870D9F800305363C9F81470C9F81870A9
:103A6000C9F82060C9F82410C9F81C70D9F81430BE
:103A70009363C9F82870C9F82C70C9F83460C9F884
:103A80003810C9F83070D9F82830D363C9F83C70C1
:103A9000C9F84070C9F84860C9F84C10C9F84470BA
:103AA000D9F83C301364C9F85070C9F85470C9F89B
:103AB0005C60C9F86010C9F85870D9F850204263AA
:103AC000C9F86470C9F86870C9F87060C9F87410F2
:103AD000C9F86C70D9F86410816340F2A070C2F22A
:103AE000000088F8147088F8167088F81770C8F805
:103AF0001870FFF7F1FB00200790002002900020D3
:103B00000390002005900020049003E098F817002F
:103B10000520079098F83200002874D0002088F81B
:103B20003200B8F82E00013081B23C29A8F82E00EE
:103B300069D10020A8F82E00B8F82C00013081B21D
:103B40003C29A8F82C005ED10020A8F82C00B8F879
:103B50002A00013081B21829A8F82A004ED100208D
:103B6000A8F82A00B8F8280044F238710130A8F803
:103B70002800B8F82630C0F6000101EB4301B8F880
:103B8000242031F8021C022B1BD145F62943CCF22C
:103B90008F2353434DF20B764FEA3317C0F2A3063F
:103BA000B7420DD345F629474FEAB303C0F28F273A
:103BB000BB4206D312F0030208BF013101E000BF8F
:103BC000013109B280B20131814212D10120A8F83D
:103BD0002800B8F82600013081B20D29A8F8260087
:103BE00007D10120A8F82600B8F824000130A8F871
:103BF0002400B8F82E000730A8F82E00B8F82E00E0
:103C00000130A8F82E00FFF793FA40F2A070C2F23C
:103C10000000FFF7B7FBFCF7C9FB40F28C00C2F2D3
:103C200000000768F8073AD0079898F80110C0B26A
:103C3000814201D1002503E00799012588F8011090
:103C400098F8021098F83C20914204D098F83C1063
:103C5000012588F8021098F8032098F834309A4229
:103C600008D198F8043098F81760B3420CD17DB9A8
:103C700015E000BF98F8043098F8342088F8032045
:103C800098F81770BB4203D098F8173088F80430C2
:103C9000FCF7B6FD40F28C00C2F20000076838075E
:103CA00016D540F29810C2F20000B0F8E8234FF4A5
:103CB000FA71FEF7EBFD40F28C01C2F200010F68D1
:103CC00030B940F28C0027F00807C2F2000007600C
:103CD000B80617D540F28C0527F02000C2F2000587
:103CE0002860B8F92400B8F82610B8F82820B8F8E9
:103CF0002A30B8F82C70B8F82E60CDE90076FFF7BE
:103D0000FFF82F68F80662D540F2A003C2F2000364
:103D100018885E88A0F5FA65B3F804C0D9881A89B6
:103D20005B89ED087C2D98BF0C2E47D844F238757E
:103D3000C0F6000505EB460535F802EC022E1DD154
:103D400045F62945CCF28F2500FB05F64DF20B74A4
:103D50004FEA3615C0F2A304A5420DD345F6294417
:103D60004FEAB605C0F28F24A54207D310F0030036
:103D700008BF0EF1010E01E00EF1010E3B2B98BFC2
:103D80003B2A1BD8172919D80FFA8EF0844515DC69
:103D900040F2A001C2F200010888A8F82400488877
:103DA000A8F826008888A8F82800C888A8F82A005B
:103DB0000889A8F82C004889A8F82E0027F03000C0
:103DC00040F28C0140F02000C2F20001086040F295
:103DD000107040F25871C2F20000C2F20001006897
:103DE0000968D9F80820CAB1D9F81C20002A4BD09C
:103DF000D9F83020002A00F07E80D9F84420002A2B
:103E000000F0AF80D9F85810002900F0E080D9F810
:103E10006C10002940F040810DE100BFD9F800206E
:103E2000D9F804309A4227D0D9F80470D9F8006044
:103E3000D9F80020D9F80C30B7420BDDD9F804705E
:103E40001A44BA420EDAD9F80C20D9F800301A44D4
:103E50000DE000BF9A4209DDD9F80C20D9F80030F6
:103E60009A1A04E0D9F8042001E000BF0022C9F842
:103E70000020D9F800204A63D9F81020C9F808209A
:103E8000D9F81C20002AB3D1D9F81420D9F8183059
:103E90009A4227D0D9F81870D9F81460D9F81420AC
:103EA000D9F82030B7420BDDD9F818701A44BA425D
:103EB0000EDAD9F82020D9F814301A440DE000BFEA
:103EC0009A4209DDD9F82020D9F814309A1A04E072
:103ED000D9F8182001E000BF0022C9F81420D9F851
:103EE00014208A63D9F82420C9F81C20D9F830207E
:103EF000002A7FF482AFD9F82820D9F82C309A42D2
:103F000026D0D9F82C70D9F82860D9F82820D9F80B
:103F10003430B7420ADDD9F82C701A44BA420DDAAF
:103F2000D9F83420D9F828301A440CE09A4209DD37
:103F3000D9F83420D9F828309A1A04E0D9F82C207E
:103F400001E000BF0022C9F82820D9F82820CA6360
:103F5000D9F83820C9F83020D9F84420002A7FF455
:103F600051AFD9F83C20D9F840309A4226D0D9F840
:103F70004070D9F83C60D9F83C20D9F84830B742B5
:103F80000ADDD9F840701A44BA420DDAD9F848204F
:103F9000D9F83C301A440CE09A4209DDD9F848209F
:103FA000D9F83C309A1A04E0D9F8402001E000BF6B
:103FB0000022C9F83C20D9F83C200A64D9F84C10FA
:103FC000C9F84410D9F8581000297FF420AFD9F867
:103FD0005010D9F85420914226D0D9F85430D9F84D
:103FE0005070D9F85010D9F85C20BB420ADDD9F8DE
:103FF0005430114499420DDAD9F85C10D9F85020A8
:1040000011440CE0914209DDD9F85C10D9F8502038
:10401000511A04E0D9F8541001E000BF0021C9F89A
:104020005010D9F850104163D9F86010C9F85810F1
:10403000D9F86C1081BBD9F86410D9F86820914286
:1040400026D0D9F86830D9F86470D9F86410D9F856
:104050007020BB420ADDD9F86830114499420DDA6C
:10406000D9F87010D9F8642011440CE0914209DDB0
:10407000D9F87010D9F86420511A04E0D9F8681002
:1040800001E000BF0021C9F86410D9F86410816311
:10409000D9F87400C9F86C0040F29800C2F2000030
:1040A000007860B140F29802C2F20002516800EB61
:1040B000800009EB800040F8101C0020107058466A
:1040C0004FF48071FDF75CF907460138B0FA80F0D3
:1040D000450950464FF40041FDF752F90599C9B220
:1040E000A94211D0012F09D1012105914DF2C04102
:1040F0000122C0F2010188F8342003E0002105917B
:1041000043F69821C8F83810411E049AB1FA81F19B
:104110004909D2B28A420BD1D8F83800F0B1D8F8A8
:10412000400020B398F81400012829D038E000BFDF
:10413000012809D1012004904DF2C0400121C0F2B4
:10414000010088F83C1003E00020049043F698201A
:10415000C8F84000D8F838000028E0D198F83400BA
:10416000400888F83400D8F840000028DAD198F8E0
:104170003C00400888F83C0098F8140001280FD152
:1041800098F8170060B9D8F8180048B9002088F8E6
:104190001400012088F816004EF66020C8F81800B8
:1041A00098F8140050B998F8170038B1012088F831
:1041B000140088F816000020C8F8180098F81600B7
:1041C000012813D1D8F8180080B9002088F816000B
:1041D00098F814004FF480410138B0FA80F0470994
:1041E00050463A46FDF7D2F888F8157040F20000C4
:1041F000C2F20000006800284ED10398C0B2022825
:104200000ED001283ED0002846D10698FCF704FDC8
:1042100040F20000C2F200000A21016001203AE0F1
:10422000069E01213046FCF7E3FC40F20005C2F295
:104230000005E88130460221FCF7DAFCA8F81000FE
:1042400040F2C67028603046FCF742FD40F28C0018
:10425000C2F20000006801060BD540F20000C2F275
:104260000000C089FFF7CAF840F28C00C2F20000DB
:104270000068400603D5B8F81000FFF701F90020E8
:1042800009E000BF98F80000002800F03982002003
:1042900088F800000220039040F20000C2F2000003
:1042A000C189B9B340F20007C2F2000778893A89A0
:1042B000BB89400800EB52005A0802EB50004A0844
:1042C00002EB5000B98140F6D53188424FF0000131
:1042D00038817B81F9810BD898F8171041F0800163
:1042E00088F8171049F60071C0F22401C8F80810C8
:1042F000D8F8081041B140F62A51884224BF002066
:10430000C8F8080006E000BF98F8170000F07F002A
:1043100088F81700B8F81010002972D0B8F80E000D
:10432000B8F80C20400800EB5200400800EB5100A8
:10433000A8F80E100021A8F8101040F20001A8F80B
:104340000C00C2F200014968A1B140F29811B8F81E
:104350000620C2F20001B1F8E81312B340F2981738
:10436000C2F2000737F8113003445B0827F8113018
:10437000511C1EE042F2C07140F20002C0F209017D
:10438000C2F2000240F298135160C2F20003B3F887
:10439000E8134A1C91B2B1F5FA7118BF1146A3F89F
:1043A000E81340F2981289B2C2F2000222F811001A
:1043B0000121079BDAB2012A1A4608BF0222B0F592
:1043C000FA6F28BF1A46D3B2032B134608BF042343
:1043D000B0F5166F98BF1346DAB2012A1F4640F6B1
:1043E000A66208BF0527904240F6416298BF1F466B
:1043F00090420797A8F8061003D80798C0B205287E
:104400001CD00798C0B205283FF684ABDFE800F067
:1044100004325C74169C00BF029800F00F000A285A
:1044200000F0868100284FF0000007907FF472AB07
:104430000A20029000200790FFF76CBB98F8170045
:10444000C0071EBF40F28A20C9F80400C9F818004E
:1044500098F8170080074FF0010007907FF55AABDE
:104460004FF42F70C9F82C00C9F8400001200790C4
:10447000FFF750BB98F8171098F83400C90740F0C0
:104480007F80012840F08B8098F83C00012840F0A4
:10449000868098F8170040F0010088F8170040F275
:1044A0008A20C9F80400C9F8180098F814000028F8
:1044B0004FF0000008BF4FF4C870C9F80800D9F8E1
:1044C0000800C9F81C006AE098F81700C0071EBF72
:1044D0009620C9F80400C9F8180098F8170080075A
:1044E0004FF0030007907FF515AB4FF49670C9F8B5
:1044F0002C00C9F84000FEE098F8171098F8340036
:10450000C9077BD1012840F0888098F83C00012839
:1045100040F0838098F8170040F0010088F81700F9
:104520009620C9F80400C9F8180098F8140000286B
:104530004FF0000008BF4FF4C870C9F80800D9F860
:104540000800C9F81C0068E098F81700C0073FF49D
:10455000DDAA98F8340000287FF4D8AA98F83C0027
:1045600000287FF4D3AA0020C9F80400C9F8180075
:1045700098F8170000F0FE0088F81700FFF7C6BA99
:1045800068B998F83C0050B90020C9F80400C9F88F
:10459000180098F8170000F0FE0088F8170098F847
:1045A000171098F83400890766D401284FF00100ED
:1045B00007907FF4AFAA98F83C0001284FF0010063
:1045C00007907FF4A7AA98F8170040F0020088F837
:1045D00017004FF42F70C9F82C00C9F8400098F864
:1045E000140000284FF0000008BF4FF4C870C9F84D
:1045F0003000D9F83000C9F8440037E768B998F8B6
:104600003C0050B90020C9F80400C9F8180098F817
:10461000170000F0FE0088F8170098F8171098F8B7
:104620003400890748D401284FF0030007907FF435
:1046300071AA98F83C0001284FF0030007907FF41E
:1046400069AA98F8170040F0020088F817004FF4A4
:104650009670C9F82C00C9F8400098F8140000289A
:104660004FF0000008BF4FF4C870C9F83000D9F807
:104670003000C9F844003EE000284FF001000790E8
:104680007FF448AA98F83C0000284FF001000790FA
:104690007FF440AA0020C9F82C00C9F8400041F27C
:1046A0008830C9F83000C9F8440098F8170000F0C5
:1046B000FD0088F81700D9E600284FF003000790A6
:1046C0007FF428AA98F83C0000284FF003000790D8
:1046D0007FF420AA0020C9F82C00C9F8400041F25C
:1046E0008830C9F83000C9F8440098F8170000F085
:1046F000FD0088F8170003200790FFF70BBA00BFF2
:1047000098F80500411C0A2888F805107FF680AD4E
:1047100000200021039040F2000088F80510C2F24A
:104720000000642101600698FCF7D2FAB4E500BFEE
:10473000002002909AE601021F001C001F001E00CC
:104740001F001E001F001F001E001F001E001F0074
:104750000000000000000000010203040607080931
:1047600000000000010203045F44495341424C45EC
:104770005F454E41424C455F4552524F525F4F4656
:10478000465F4F4B5F4F4E5F00001B005F205F2E68
:104790005F3A5F305F315F325F335F345F355F3682
:1047A0005F375F385F395F415F425F435F445F451A
:1047B0005F465F0028005F305F315F4449534142EC
:1047C0004C455F454E41424C455F4F46465F4F4E1C
:1047D0005F001C005F3F5F44454255475F4C4544C6
:1047E000315F4C4544325F4C4544335F4C45443463
:1047F0005F4C4544355F4C4544365F4C5558444109
:1048000054412053484F575F52454C41595F5245E0
:104810005345545F54494D45205345545F54494DC9
:10482000452053484F575F564241542053484F57F5
:104830005F56534F4C41522053484F575F006A0018
:104840005F0A0D434C526D02030405060708090A6E
:104850000B0C0D0E0F10100078480008000000200F
:1048600020000000280100089848000820000020CF
:10487000C80D000044010008E8030000C02709003B
:104880009E0C9E0C9E0C0000010000001000000019
:08489000FFFF00000024F4000A
:04000005080000ED02
:00000001FF
