:020000040800F2
:10000000600A0020890100081D3100081531000830
:1000100019310008A9030008753800080000000025
:100020000000000000000000000000002531000872
:10003000E90D000800000000213100080D33000820
:10004000A3010008A3010008A3010008A301000800
:10005000A3010008A3010008A3010008A3010008F0
:10006000A3010008A3010008A3010008A3010008E0
:10007000DD0D0008A3010008A3010008A30100088A
:10008000A3010008A301000891020008A3010008D1
:10009000A3010008A3010008A3010008A3010008B0
:1000A000A3010008A3010008A3010008A3010008A0
:1000B000A3010008A3010008A3010008A301000890
:1000C000A3010008A3010008A3010008A301000880
:1000D000A3010008A3010008A30100086938000873
:1000E000A3010008A3010008A301000800F002F822
:1000F00000F03AF80AA090E8000C82448344AAF188
:100100000107DA4501D100F02FF8AFF2090EBAE885
:100110000F0013F0010F18BFFB1A43F0010318473B
:100120007846000098460000103A24BF78C878C18D
:10013000FAD8520724BF30C830C144BF04680C60ED
:10014000704700000023002400250026103A28BF35
:1001500078C1FBD8520728BF30C148BF0B60704739
:100160001FB51FBD10B510BD00F058F81146FFF7C0
:10017000F7FF03F05DFC00F076F803B4FFF7F2FF41
:1001800003BC00F07DF8000009488047094800479B
:10019000FEE7FEE7FEE7FEE7FEE7FEE7FEE7FEE737
:1001A000FEE7FEE704480549054A064B7047000094
:1001B0001D330008ED00000860040020600A0020E4
:1001C00060060020600600204FF0000200B51346D4
:1001D00094469646203922BFA0E80C50A0E80C5067
:1001E000B1F12001BFF4F7AF090728BFA0E80C5018
:1001F00048BF0CC05DF804EB890028BF40F8042B11
:1002000008BF704748BF20F8022B11F0804F18BF7D
:1002100000F8012B7047704770477047754600F033
:100220002BF8AE4605006946534620F00700854688
:1002300018B020B5FFF7B6FFBDE820404FF000062C
:100240004FF000074FF000084FF0000BAC46ACE851
:10025000C009ACE8C009ACE8C009ACE8C00921F0AD
:1002600007018D46704710B50446AFF30080204665
:10027000BDE81040FFF781BF00487047180000201C
:1002800001491820ABBEFEE72600020070470000BF
:1002900040F2DC00C2F2000001F008B8B0B504463C
:1002A00000688168C90709D0816821F00101816077
:1002B00001F082FC21688968C90701D10020B0BD26
:1002C000054602E08068C007F8D001F075FC411BCC
:1002D00020680329F6D38168C907F3D0A06A40F0EB
:1002E0001000A062E06A40F00100E0620120B0BDB1
:1002F000B0B582B004460020019021688A68D20718
:100300004FD1886840F00100886040F21400C2F2CA
:10031000000000684DF68361C4F21B31A0FB0101AF
:10032000880C01900198A0B10198013801900198C2
:1003300078B1019801380190019850B101980138C5
:100340000190019828B10198013801900198002886
:10035000EAD101F031FC21688968C9071CD1054642
:1003600003E000BF8068C0071AD101F025FC411BE3
:1003700020680329F6D38168C907F3D1A06A40F049
:100380001000A062E06A40F00100E062002084F802
:100390002400012002B0B0BD002002B0B0BD00BFFB
:1003A000002002B0B0BD0000FEE700002DE9F041E2
:1003B00082B040F27808C2F2000898F809000028DC
:1003C00000F0088598F808000138632800F2FF84DF
:1003D000DFE810F068007E00FD04FD04FD049400D9
:1003E000FD045F03CA00DC00ED02F2002C01FD04F5
:1003F0006400FD04FD04FD04FD04FD0464006400CC
:100400006400FD04FD04FD04FD04FD04FD04FD0481
:10041000FD04FD04FD04FD04FD04FD04FD04FD04D4
:10042000FD04FD04FD04FD04FD04FD04FD04FD04C4
:10043000FD04FD04FD04FD04FD04FD04FD04FD04B4
:10044000FD04FD04FD04FD04FD04FD04FD04FD04A4
:10045000FD04FD04FD04FD04FD04FD04FD04FD0494
:10046000FD04FD04FD04FD04FD04FD04FD04FD0484
:10047000FD04FD04FD04FD04FD04FD04FD04FD0474
:10048000FD04FD04FD04FD04FD04FD04FD04FD0464
:10049000FD04FD04FD04FD0466019C0198F80900BB
:1004A00000F095BC44F2357544F287760024C0F61E
:1004B0000005C0F6000600BF285D5F28304618BF63
:1004C000281903F095F80134512CF5D100F07FBCC8
:1004D00098F80900012840F60040C4F2010040F0FD
:1004E000458198F80910052940F040814FF480417A
:1004F000002201F05BFB022058E000BF98F80900E1
:100500000338032800F26384DFE810F004003801A8
:100510000400380140F2B415C2F2000540F60D2087
:1005200025F8C70F022044F235726C468DF80000A2
:10053000A81CC0F600022146062302F003FF9DF826
:1005400000002022411C2A54C8B244F2EE628DF809
:1005500000102844C0F600022146042302F0F2FEF7
:100560009DF80000D5E100BF98F809000338032882
:1005700000F22D84DFE810F004002C0104002C01AF
:100580000020C8F80400092010E000BF98F8090016
:100590000338032800F21B84DFE810F00400220176
:1005A000040022010020C8F804000A20042102F0FF
:1005B000BBFD00F00CBC00BF98F80900033803280D
:1005C00000F20584DFE810F00400180104001801AF
:1005D000002040F2B415C8F80400C2F2000540F64D
:1005E0000D2025F8C70F022044F235720DF10604E4
:1005F0008DF80600A81CC0F6000221460C2302F06C
:10060000A1FE9DF806002022411C2A54C8B244F2E3
:10061000EE628DF806102844C0F600022146012340
:1006200002F090FE9DF8060073E100BF98F8090003
:100630000338032800F2CB83DFE810F004000E013A
:1006400004000E01002040F2B415C8F80400C2F204
:10065000000540F60D2025F8C70F022044F2357240
:1006600001AC8DF80400A81CC0F6000221460D2341
:100670000D2602F067FE9DF804002022411C2A543A
:10068000C8B244F2EE628DF804102844C0F60002AD
:100690002146012302F056FE9DF804000CE100BF44
:1006A00098F809000338032800F29183DFE810F07E
:1006B000040008010400080140F2B415C2F200056C
:1006C00040F60D2025F8C70F022044F235720DF1D7
:1006D00002048DF80200A81CC0F600022146632324
:1006E00002F030FE9DF802002022411C2A54C8B2BC
:1006F00044F2EE628DF802102844C0F60002214652
:10070000012302F01FFE9DF8020002E140F2B41C3A
:1007100044F2EE61C2F2000C40F60D20C0F600017A
:100720000022ACF8C70000BF08785F2808BF01327C
:10073000D0B2042800F2F48048785F2808BF013264
:10074000D0B2042800F2EE8088785F2808BF01321A
:10075000D0B2042800F2E880C87804315F2808BFCE
:100760000132D0B20528DFD3DFE000BF4FF4804173
:10077000012201F01BFA022039E000BF40F2B4155B
:10078000C2F2000540F60D2025F8C70F022044F202
:1007900035720DF101048DF80100A81CC0F60002AD
:1007A0002146062302F0CEFD9DF801002022411CC7
:1007B0002A54C8B244F2EE628DF801102844C0F603
:1007C00000022146062302F0BDFD9DF80100A0E0D5
:1007D000D8F8040040F40070C8F80400092006E0CE
:1007E000D8F8040040F48060C8F804000A2006210C
:1007F00002F09AFCEBE200BFD8F8040040F2B41516
:1008000040F00800C8F80400C2F2000540F60D20D0
:1008100025F8C70F022044F235720DF107048DF858
:100820000700A81CC0F6000221460C2302F08AFD36
:100830009DF807002022411C2A54C8B244F2EE62FF
:100840008DF807102844C0F600022146022302F06A
:1008500079FD9DF807005CE0D8F8040040F2B4157B
:1008600040F02000C8F80400C2F2000540F60D2058
:1008700025F8C70F022044F235720DF105048DF8FA
:100880000500A81CC0F6000221460D230D2602F02B
:1008900059FD9DF805002022411C2A54C8B244F29B
:1008A000EE628DF805102844C0F6000221460223AE
:1008B00002F048FD9DF80500411C2E542CE000BFBD
:1008C00040F2B415C2F2000540F60D2025F8C70F1E
:1008D000022044F235720DF103048DF80300A81CC8
:1008E000C0F600022146632302F02CFD9DF80300B0
:1008F0002022411C2A54C8B244F2EE628DF8031043
:100900002844C0F600022146022302F01BFD9DF898
:1009100003000D22411C2A54C8B20A21295456E270
:10092000013102E0023100E0033111F8020B0CF159
:10093000C9030524022200BF11F8016C15465F2E81
:1009400008BF0134E2B2052A18701DD808785F2864
:1009500008BF0134E2B2052A5E7019D84A785F2ACE
:1009600008BF0134E7B2052F987015D88878DA707F
:100970005F2808BF0134E7B22A1D0431062F03F1B6
:100980000403D9D3033509E045F0010206E000BFB6
:10099000AA1C45F0010501E0EA1C0235A81CD1B2F1
:1009A0000CF1C7020D235354C0B20A21115440F276
:1009B000B41C44F2EE61C2F2000C40F60D20C0F609
:1009C00000010022ACF8C70008785F2808BF013298
:1009D000D0B2042816D848785F2808BF0132D0B2B8
:1009E000042811D888785F2808BF0132D0B20428C3
:1009F0000CD8C87804315F2808BF0132D0B205286E
:100A0000E2D304E0013102E0023100E0033111F8E9
:100A1000020B0CF1C9030524022200BF11F8016C7E
:100A200015465F2E08BF0134E2B2052A18701DD8A2
:100A300008785F2808BF0134E2B2052A5E7019D831
:100A40004A785F2A08BF0134E7B2052F987015D89D
:100A50008878DA705F2808BF0134E7B22A1D0431B4
:100A6000062F03F10403D9D3033509E045F0010251
:100A700006E000BFAA1C45F0010501E0EA1C0235B2
:100A8000A81CD1B20CF1C7020D235354C0B20A21E5
:100A9000115498F809000338032800F29881DFE820
:100AA00000F00331033100BF40F2B41C44F2357151
:100AB0000022C2F2000C40F60D20C0F60001C8F87A
:100AC0000420ACF8C70000BF08785F2808BF0132D7
:100AD000D0B2072848D848785F2808BF0132D0B282
:100AE000072843D888785F2808BF0132D0B207288A
:100AF00042D8C87804315F2808BF0132D0B2082834
:100B0000E2D33AE0D8F8040040F2B41C40F480701C
:100B1000C8F80400C2F2000C40F60D2044F2357112
:100B2000ACF8C700C0F60001002000BF0A785F2AB9
:100B300008BF0130C2B2072A1AD84A785F2A08BF14
:100B40000130C2B2072A15D88A785F2A08BF01305F
:100B5000C2B2072A48D8CA7804315F2A08BF0130D8
:100B6000C2B2082AE2D340E0013106E0023104E0DB
:100B700001313AE0023138E0033111F8020B0CF197
:100B8000C9030824022200BF11F8016C15465F2E2C
:100B900008BF0134E2B2082A18701DD808785F280F
:100BA00008BF0134E2B2082A5E7019D84A785F2A79
:100BB00008BF0134E7B2082F98704DD88878DA70F2
:100BC0005F2808BF0134E7B22A1D0431092F03F161
:100BD0000403D9D3033541E045F001023EE000BFF4
:100BE000AA1C45F0010539E0033111F8025B0CF154
:100BF000C9030824022200BF11F8016C10465F2EC1
:100C000008BF0134E2B2082A1D701DD80A785F2A95
:100C100008BF0134E7B2082F5E7019D84F785F2FF4
:100C200008BF0134E6B2082E9A7055D88D78DF706F
:100C30005F2D08BF0134E7B2021D0431092F03F113
:100C40000403D9D3033049E040F0010246E000BF7D
:100C5000821C40F0010041E0EA1C0235D2B20CF1E6
:100C6000C7002023A91C835444F2EE63CAB2C0F625
:100C70000003024402330124442600BF1F780D46BE
:100C80005F2F08BF0134E1B2012916701ED85978D0
:100C90005F2908BF0134E6B2012E577018D89F783B
:100CA0005F2F08BF0134E6B2012E917044D8DE7880
:100CB000D7705F2E08BF0134E7B2291D0433022F1D
:100CC00002F10402DAD3033538E000BF691C35E0D5
:100CD000A91C013532E000BFC21C0230D1B2614410
:100CE0002022023081F8C72044F2EE61C3B2C0F680
:100CF000000100220F785F2F08BF0132D7B2012F09
:100D000016D84F785F2F08BF0132D7B2012F11D804
:100D10008F785F2F08BF0132D7B2012F16D8CF7856
:100D200004315F2F08BF0132D7B2022FE2D30EE0A9
:100D300001310CE002310AE0E91C0235AA1CC9B2FB
:100D40000D234354D1B20A22425440E003310CEB4C
:100D5000030202F1C70411F8022B022511F8016CFD
:100D600003465F2E08BF0135E8B2022822701DD865
:100D700008785F2808BF0135EAB2022A667017D8E2
:100D80004A785F2A08BF0135EFB2022FA07013D84E
:100D9000E2708A78181D5F2A08BF0135EFB204316E
:100DA000032F04F10404D9D3033307E0581C05E0F2
:100DB000981C013302E000BFD81C0233991CC0B25A
:100DC0000CF1C7020D231354C8B20A21115400209C
:100DD00088F8090002B0BDE8F081000040F244301C
:100DE000C2F2000000F076BC70470000EFF3108004
:100DF00072B600BFFEE7000070B582B00446002066
:100E0000019094F82400012804D10225284602B05C
:100E100070BD00BF012084F824002046FFF73EFA91
:100E2000054600286CD1A06A41F2021188430230C5
:100E3000A06240F21400C2F200000668022000F036
:100E400079FFB6FBF0F0400001900198A8B100BF17
:100E5000019801380190019878B10198013801900A
:100E6000019850B1019801380190019828B101987A
:100E70000138019001980028EAD12046FFF738FA9E
:100E80002068816841F00801816000F095FE2168CA
:100E90008A6812070ED4886840F00400886000F069
:100EA0008BFE21688968490714D401206FF0030183
:100EB00022E000BF064602E088680007EBD500F09C
:100EC0007BFE801B21680B28F6D388680007F3D5CA
:100ED0000EE000BF064602E080684007E5D500F05E
:100EE0006BFE811B20680B29F6D381684907F3D577
:100EF000012510206FF01201A26A11400843A06280
:100F0000002084F82400284602B070BDF0B581B0FE
:100F10000022009290F82420012A05D14FF0020C03
:100F2000604601B0F0BD00BF8368D1F804E0012243
:100F300080F82420A3B10A690668BEEB020404EB22
:100F40008404B56B04F10F044FF01F0303FA04F39C
:100F500025EA030323F4401516D9B5631FE000BF4B
:100F6000BEF1010F40F0AA8006684FF0000CB26B92
:100F70000D686FF3150242EAC532B2634FF0010EFD
:100F8000B268D20710D016E040F2000C0B68CFF622
:100F9000F07C0CEB0252A3401A432A43B2634FF099
:100FA000000CB268D20706D1B26847F201038C691F
:100FB0009A432243B2604A7D012A1FD00B7D012B48
:100FC00030D00A68092A02EB42043FD9F3681E3C7C
:100FD00007258F68A540AB4307FA04F4234322F0AA
:100FE0000104102CF36049D1B368012543F40003D8
:100FF000B360BEF1030F36D144E000BF8B6900F14E
:101000002804B3F5E04F4FF0200314BF4FF0010C5C
:10101000341D08BF4FF4806325682B4323600B7D8C
:10102000012BCED100F12803002A4FF0200214BF7B
:101030004FF0010C331D08BF4FF480521C6822434F
:101040001A600A68092A02EB4204BFD833690725EF
:101050008F68A540AB4307FA04F4234333610025AE
:10106000BEF1030F0ED0BEF1020F0FD0BEF1010F83
:1010700014BF06F1200406F1140409E00025BEF1B6
:10108000030FF0D106F11C0402E000BF06F11804C2
:10109000236840F6FF77C968BB431943002D2160E0
:1010A00048D042F20041C4F201018E4212D0816A5E
:1010B0004FF0010C41F0200181623BE00668826A3A
:1010C0004FF0010C42F020028262B268D2073FF476
:1010D0006BAF70E7896809022CD4B168102A41F41B
:1010E0000001B16026D140F21401C2F2000109688A
:1010F0004DF68362C4F21B32A1FB0212910C01EB8C
:101100008101490000910099A1B100990139009134
:10111000009979B1009901390091009951B1009974
:1011200001390091009929B1009901390091009984
:101130000029EAD1002180F82410604601B0F0BDFA
:10114000006842F20041C4F20101884218BF7047B2
:1011500040F2A400C2F200000121017070470000BB
:10116000022909D003290BD00068042914BF3C30A0
:1011700048300068704700BF006840300068704722
:10118000006844300068704710B5044690F82400A9
:10119000012804BF022010BD012084F8240020464D
:1011A000FFF7A6F820B1002184F8241010BD00BF7D
:1011B00042F204422168A06AC4F2010243F2010330
:1011C000984302F57F7300F580509942A06203D0E6
:1011D000A06A20F4801006E0106810F4702FF7D099
:1011E000A06A40F48010A062A06AC0055CBF002025
:1011F000E062002084F824006FF004040C604C6866
:1012000044F080044C604C68640548BF10BD886899
:1012100000F4E040B0F5E04F05D199420AD11068E2
:1012200010F4702F06D0886840F4004088600020D9
:1012300010BD00BF886840F402108860002010BD17
:1012400010B5044690F82400012804BF022010BD08
:10125000012084F82400A06AC0050BD420684068EF
:10126000400507D42046FFF719F868B1002184F83B
:10127000241010BDA06A40F020010120A1620021CD
:1012800084F8241010BD00BF2068416821F080015F
:101290004160A06A41F201118843411C0020A16213
:1012A000002184F8241010BD7047000010B50446DA
:1012B00000684168890644BF01685FEA81710BD408
:1012C0004168090644BF01685FEA41712AD4416858
:1012D00049065BD410BD00BFA16AC90603D4A16A48
:1012E00041F40071A162816801F46021B1F5602FC1
:1012F00010D1217B71B9416821F020014160A06AC1
:1013000020F48070A062A06AC00403D4A06A40F0F8
:101310000100A0622046FFF7C7FF20686FF01201AE
:101320000160CDE7A16AC90603D4A16A41F4005166
:10133000A162816801F4E041B1F5E04F10D141684C
:1013400021F080014160A06A20F48050A062A06A70
:10135000C00511D4A06A40F00100A0620CE000BFFB
:101360004168490508D4816801F46021B1F5602F16
:1013700002D1217B0029E2D02046FFF7E1FE206860
:101380006FF00C01016041684906A3D50068C007F1
:1013900008BF10BDA06A40F48030A062204600F073
:1013A000B3F820686FF00101016010BDB0B50028EE
:1013B00000F0A8800446806A20B121688868C007D0
:1013C0000BD114E00020E06284F82400204600F0F5
:1013D0009DF821688868C00709D0886820F001005E
:1013E000886000F0E9FB21688A68D20726D1A06AEC
:1013F000C0063AD4A06A41F2021290430230A062C1
:10140000E069D4E9013240EA030C531EB3FA83F3D6
:101410005D091346B2F5807F18BF2B02207D257B26
:1014200001284CEA450030D135B3A56A45F02005C6
:10143000A562E56A45F00105E56226E0054602E0A1
:101440008868C007D3D000F0B7FB401B2168032891
:10145000F6D38868C007F3D0A06A40F01000A062FD
:10146000E06A40F00100E062A06AA06A40F010006B
:10147000A0620120B0BD00BFD4F818C04EF6000530
:10148000CFF6FF7505EB4C352B434D68B2F5807FE9
:1014900025F4694543EA05034B608B684FF2FD75FF
:1014A000CFF6E17503EA050343EA00038B6001D040
:1014B000012A07D122690023CFF6F07303EB025211
:1014C00001E000BF0022CB6A23F470031A43CA6212
:1014D000896840F6FE62CFF61F721140814207D143
:1014E0000020E062A16A012262F30101A162B0BDA5
:1014F000A06A40F0100020F00200A062E06A40F014
:101500000100E0620120B0BD7047000080B586B0E8
:10151000014640F60000C4F20100096800F5E052FF
:1015200091424FF00001CDE9041101D006B080BD19
:1015300041F21801C4F202010A6842F400720A6022
:101540000A6802F400720192019A0A6842F00402E9
:101550000A60096801F004010191019918210291C2
:101560000321039102A900F00DFA122000210022AC
:1015700000F0A4FB122000F08DFB06B080BD00003F
:10158000002804BF0120704710B50446407918B107
:1015900001206071002010BD00202071204600F065
:1015A00005F801206071002010BD000081B00068C6
:1015B00043F20001C4F20201884201D001B0704739
:1015C00041F21400C4F20200016841F040010160E0
:1015D000006800F040000090009801B070470000E3
:1015E000014690F82100022816D10868D1E90FC3FE
:1015F000026822F00E020260026822F0010202601C
:10160000012000FA03F2CCF8042081F82100002028
:10161000002281F8202070470420886301200022E6
:1016200081F820207047000080B590F82110022931
:1016300024D10268116821F00E0111602F21136876
:10164000C4F202018A4240F20401C4F2020123F012
:101650000103136016DD3023C4F202039A421DD049
:101660004423C4F202039A421CD05823C4F202035A
:101670009A421DD14FF4803322E000BF04218163E0
:10168000012080BD0823C4F202039A420ED01C231D
:10169000C4F202039A420BD1102311E04FF480737D
:1016A0000EE000BF4FF480530AE000BF012307E0C3
:1016B00001F1680C4FF08073624508BF4FF480134E
:1016C0000B60416B4FF48072028401B188470020A7
:1016D00080BD000010B5D0E90FCE0168DCF8003005
:1016E0000A6823FA0EF35C072AD512F0040427D007
:1016F0000A68920603D40A6822F004020A602F22C4
:10170000C4F20202914240F20402C4F2020259DD24
:101710003023C4F20203994270D04423C4F202037E
:10172000994271D05823C4F20203994278D14FF400
:1017300080231360C16A002940F097806EE000BFEB
:101740009C0727D512F0020424D00A68920606D41A
:101750000A6822F00A020A60012280F821202F2262
:10176000C4F20202914240F20402C4F2020239DDE4
:101770003023C4F2020399425ED04423C4F2020330
:1017800099425DD05823C4F2020399425ED14FF4CE
:10179000003363E01B0741D512F0080208BF10BDFB
:1017A0000A6822F00E020A60012101FA0EF2CCF85A
:1017B00004208163016B4FF480720029028454D1AC
:1017C0002CE000BF0823C4F20203994222D01C235C
:1017D000C4F20203994223D140231360C16A002955
:1017E00043D11BE00823C4F2020399422CD01C23EE
:1017F000C4F20203994229D120232FE04FF48063E1
:101800001360C16A89BB09E04FF480431360C16A69
:1018100059BB03E004231360C16A31BB10BD00BF94
:1018200002F168044FF08063A14208BF4FF48003C7
:101830001360C16AC9B9F1E74FF400730EE000BF4D
:101840004FF400530AE000BF022307E002F16804EE
:101850004FF00073A14208BF4FF400131360816A78
:101860000022002980F82020D8D0BDE81040084789
:10187000002804BF012070472DE9F04101684FF6B0
:10188000F872CBF6FD724CF6CD430A44CCF6CC434D
:10189000A2FB03236FF0030707EA93030027C4F2B8
:1018A000020700F1040E00F11008C0E90F739EE872
:1018B000045098E870010B6843F6F077BB431A4375
:1018C00042EA0C0242EA0E0222432A43324342EA2F
:1018D00008020A6000214FF4807281630284BDE82F
:1018E000F041084670470000F0B590F820C0BCF108
:1018F000010F32D090F821C04FF0010EBCF1010F62
:1019000080F820E026D14FF0020C80F821C04FF083
:10191000000CC0F838C0D0E900C4C56AC66BDCF85A
:101920000070102C27F00107CCF80070006C0EFA44
:1019300000F070600846CCF8043004BF10460A4638
:10194000CCF80800CCF80C20DCF8000045B140F0E1
:101950000E000DE0002180F820100220F0BD00BF35
:1019600020F00400CCF80000DCF8000040F00A0091
:10197000CCF80000DCF8000040F00100CCF80000DA
:101980000020F0BD2DE9F04F82B00E68002E00F06F
:10199000038140F20C4C41F200424FF6FF7EC4F24C
:1019A000010CC4F20102042700240123C1F2100E2D
:1019B0004FF0000A4FF00009904208BF032700973C
:1019C00045E000BF012704F00C030F229A402BEAE8
:1019D000020207FA03F34FEA9A051A4346F8252054
:1019E000D1F804B040F20045C4F201055FEACB3201
:1019F0002A6854BF22EA080242EA08022A606A689A
:101A00005FEA8B3354BF22EA080242EA08026A60A6
:101A10005FEACB23AA6854BF22EA080242EA08021E
:101A20005FEA8B23AA60DCF800204FF0010354BF6B
:101A300022EA080242EA0802CCF800200E680AF105
:101A4000010A36FA0AF204F1040400F0A58003FA50
:101A50000AF816EA080FF1D04E68764512DC122E0D
:101A600056D8DFE806F0350B4549555555555555BF
:101A7000555555555555554D510000BFD1F80C9051
:101A800046E000BF4FF6FF72C1F2210296420FDC22
:101A90000022C1F2110296421AD00022C1F21202B3
:101AA000964215D00022C1F22102964210D02FE0BA
:101AB0000022C1F2220296420AD00022C1F2310273
:101AC000964205D00022C1F23202964220D100BFD8
:101AD0008A684AB1012A14BFC0F81480C0F8108087
:101AE0004FF0080914E000BF4FF0040910E000BFF8
:101AF000CA6802F108090BE04FF0000908E000BFD6
:101B0000CA6802F1040903E0CA6802F10C0900BFC7
:101B100022460646BAF1080F24BF203A0436376839
:101B20000F25954027EA050509FA02F22A4332609B
:101B3000CA79D2067FF582AF41F21803C4F20203DC
:101B40001A6842F001021A601A6802F0010201925A
:101B5000019A40F20042C4F20102A2F57E762AF018
:101B6000030256F802B040F60002C4F201029042AD
:101B700010D040F60042C4F2010290423FF422AF7E
:101B800041F20002C4F20102009F904208BF022706
:101B900019E700BF002716E702B0BDE8F08F00008C
:101BA0008068084018BF012070470000002A08BF65
:101BB000090401617047000040F25C40C2F200007D
:101BC0000068704740F20C0040F25C41C2F2000035
:101BD000C2F2000100780A681044086070470000F3
:101BE00080B542F20000C4F20200016841F0100129
:101BF0000160032000F08EF8002000F005F800F0EE
:101C000027F8002080BD000070B540F20C06C2F23B
:101C1000000640F214013278C2F200014FF47A73E8
:101C20000968B3FBF2F20446B1FBF2F1084600F09A
:101C300061FC0F2C4FF0010508D838B94FF0FF3088
:101C400021460022002500F039F87460284670BD56
:101C500082B041F21800C4F202000168022241F091
:101C600001010160016801F00101019101994168E0
:101C700041F080514160406800F080500090009831
:101C80000420C4F20100016862F31A61016002B02D
:101C900070470000002848BF7047C1B200F01F0025
:101CA000012202FA00F04EF20012CEF2000242EAE5
:101CB000D10121F0030108607047000010B54EF615
:101CC0000C5CCEF2000CDCF80030C3F3022E8EF078
:101CD0000704042C28BF0424BEF103034FF0FF3E89
:101CE0000EFA04F438BF0023A14399400EFA03F31F
:101CF0009A43114300F00F0200F160430901043AD6
:101D000003F564436244002848BF02F10C031970D4
:101D100010BD00004EF60C51CEF200010A684FF6DD
:101D2000FF031A4060F30A2242F0806040F0FD7029
:101D30000860704780B5012818D0022836D01028D6
:101D400032D141F20401C4F202010A6851F8040CD4
:101D5000C00129D5C2F383402DA3185CD2033DD422
:101D600040F60012C0F23D02504343E041F204004D
:101D7000C4F20200C16940F202320A40B2F5817F2A
:101D800004BF4FF4004080BD01F44071B1F5407FC5
:101D90001CD0B1F5007F07D1006A49F640418007A9
:101DA00001EAE07080BD00BF002080BD00F0B4F902
:101DB00041F20401C4F2020109680222C1F3813137
:101DC00002EB4101B0FBF1F080BD00BF50F8040C04
:101DD0004FF22441800301EAE07080BD0A6810A33D
:101DE000C2F340429A5C41F20023C0F27A03B3FB93
:101DF000F2F250430968490248BF80BD4AF6AB2160
:101E00004000CAF6AA21A0FB0101480880BD00BF1E
:101E100002030405060708090A0B0C0D0E0F10102B
:101E2000010200002DE9F04182B00446007841F241
:101E30001C06C007C4F202064AD0306810F0805871
:101E400008D1306840F080503060306800F0805039
:101E50000190019847F20007C4F200073868C005F6
:101E600012D4386840F480703860FFF7A5FE05464C
:101E70003868C00508D4FFF79FFE401B6428F7D9D7
:101E8000032002B0BDE8F081706810F4407012D0F9
:101E9000616801F4407188420DD0706840F24042A0
:101EA000C4F24222012320F4407113600023C007D2
:101EB000136071602AD17068616820F44070084333
:101EC000B8F1000F706003D1306820F080503060AE
:101ED0002068810707D556F8181CA26821F44041F4
:101EE000114346F8181CC00604D4002002B0BDE817
:101EF000F08100BF56F8180CE16820F48000084318
:101F000046F8180C002002B0BDE8F081FFF754FE3F
:101F1000054641F2883700BF70688007CBD4FFF7D1
:101F20004BFE401BB8424FF00300F5D9EBE7000031
:101F30002DE9F04381B0002800F0858042F20008CE
:101F4000C4F202080446D8F800000D4600F007006D
:101F500088420CD2D8F8000020F007002843C8F8C7
:101F60000000D8F8000000F00700A8426BD12068FC
:101F700041F204098107C4F2020917D5410705D5CA
:101F8000D9F8001041F4E061C9F80010010705D547
:101F9000D9F8001041F46051C9F80010D9F80010C8
:101FA000A26821F0F0011143C9F80010C00741D127
:101FB000D8F8000000F00700A8420CD9D8F80000BB
:101FC00020F007002843C8F80000D8F8000000F00F
:101FD0000700A84237D12068410707D5D9F800107B
:101FE000E26821F4E0611143C9F80010000708D548
:101FF000D9F80000216920F4605040EAC100C9F816
:102000000000D9F8002002F00C00082841F200205E
:10201000C0F27A0050D144F28873C2F38341C0F613
:102020000003595CD2033BD440F60010C0F23D00DF
:10203000484341E0606802280AD001282AD159F8B3
:10204000041C890308D4012001B0BDE8F08300BF5F
:1020500059F8041C8901F6D5D9F8001021F00301C4
:102060000843C9F80000FFF7A7FD064641F288378C
:10207000D9F80000616800F00C00B0EB810F97D038
:10208000FFF79AFD801BB842F2D9032001B0BDE8EA
:10209000F08300BF59F8041C8907D4D5DCE700BFE2
:1020A000D9F8002044F2D463C2F34042C0F60003E2
:1020B0009A5C4843B0FBF2F0D9F8001044F2D662C3
:1020C000C1F30311C0F60002515C40F2140220FA81
:1020D00001F140F21000C2F200000068C2F20002FA
:1020E0001160FFF791FD002001B0BDE8F083000012
:1020F00040F2140041F20401C2F20000C4F20201F5
:102100000068096844F2E662C1F30221C0F60002E9
:10211000515CC8407047000040F2140041F20401D5
:10212000C2F20000C4F202010068096844F2E662EB
:10213000C1F3C221C0F60002515CC84070470000E4
:102140002DE9F04182B0002868D00446007841F2C1
:102150000006C007C4F2020625D0706800F00C002B
:1021600004281BD0706800F00C00082802D17068A9
:10217000C00313D46068002800F06881B0F5A02F78
:1021800000F07C81B0F5803F00F07C81306820F465
:1021900080303060306820F4802076E13068800341
:1021A00001D56068D0B32078800718D5706810F02A
:1021B0000C0F07D0706800F00C0008286ED1706812
:1021C000C0036BD43068800702D52069012825D16F
:1021D0003068616920F0F80040EAC1003060207882
:1021E00000071FD42078400732D4E56995B17068A4
:1021F00000F00C00082840F08F80012D0ED0706890
:10220000216A00F480328A4208D1616A00F47010B9
:10221000884203D1002002B0BDE8F081012002B065
:10222000BDE8F081A069002862D00020C4F24220FD
:102230000121C0F88014FFF7BFFC0546706A8007D3
:1022400000F18C80FFF7B8FC401B0228F6D92AE188
:10225000F06910F0805808D1F06940F08050F061CA
:10226000F06900F080500090009847F20007C4F237
:1022700000073868C00529D4386840F48070386099
:10228000FFF79AFC054600BF3868C0051ED4FFF76B
:1022900093FC401B6428F7D905E100BF20690028A2
:1022A00040F20000C4F2422000F08280012101606F
:1022B000FFF782FC054600BF306880073FF588AF16
:1022C000FFF77AFC401B0228F6D9ECE0E068002812
:1022D00000F08080052800F09780012800F09880A9
:1022E000306A20F001003062306A20F0040092E091
:1022F0000020C4F242200021C0F88014FFF75CFCEB
:10230000054600BF706A80077FF56CAFFFF754FC8D
:10231000401B0228F6D9C6E00027C4F2422700205D
:102320003866FFF749FC022D05460BD13068800165
:1023300040F1BE80FFF740FC401B02284FF0030035
:10234000F4D968E7306880017FF564AFFFF734FCAB
:10235000401B02284FF00300F4D95CE740F2140060
:10236000C2F20000006844F6D351C1F26201A0FB42
:102370000101480A019000BF00BF0198411E0028DA
:1023800001913FF42FAF00BF0198411E0028019139
:102390003FF428AF00BF0198411E002801913FF48F
:1023A00021AF00BF0198411E00280191E4D119E737
:1023B00000210160FFF700FC054600BF3068800780
:1023C0007FF50DAFFFF7F8FB401B02284FF003002D
:1023D000F4D920E7306A20F001003062306A20F042
:1023E00004003062FFF7E8FB054641F2883700BF82
:1023F000306A800720D5FFF7DFFB401BB8424FF063
:102400000300F5D907E700BF306A40F004003062EE
:10241000306A40F001003062FFF7CEFB054641F222
:10242000883700BF306A800706D4FFF7C5FB401B22
:10243000B842F7D937E000BFB8F1000F7FF4D5AE4E
:10244000F06920F08050F061CFE600BF306820F4E2
:1024500080303060306820F480203060FFF7ACFBC3
:10246000054600BF306880037FF59DAEFFF7A4FBF3
:10247000401B64284FF00300F4D9CCE6306840F4E8
:1024800080203060306840F480303060FFF794FB8B
:10249000054600BF306880033FF585AEFFF78CFB33
:1024A000401B6428F6D9032002B0BDE8F08100BFCC
:1024B000206AB0F5803F05D17168A26821F400312F
:1024C000114371607168626A21F474111143084309
:1024D000706001203866FFF76FFB044630688001AA
:1024E0003FF598AEFFF768FB001B02284FF0030092
:1024F000F4D990E6411E0020B0EB116F1CBF012003
:1025000070474EF21002CEF2000251604EF6235197
:10251000CEF20001F0230B7007219060116070472C
:1025200010B590F83C20012A4FF0020233D080F819
:102530003D200268D2F804E0D2F808C00C682EF002
:102540007003234340F2FF74C4F20004A2425360BC
:102550000ADCB2F1804F13D040F20043C4F2000312
:102560009A420DD011E000BF42F60043C4F20103CD
:102570009A4205D040F60003C4F200039A4204D107
:1025800049682CF08003194391600121002280F8F2
:102590003D1080F83C20104610BD0000002804BF0C
:1025A0000120704710B5044690F83D0028B900207E
:1025B00084F83C00204600F067F8022084F83D00D3
:1025C000206840F2FF730268C4F2000342F6004C38
:1025D0009842C4F2010C15DCB0F1804F1AD040F2E1
:1025E0000041C4F20001884214D0984218DCB0F1D6
:1025F000804F1DD040F20041C4F20001884217D044
:102600001AE000BF604505D040F60001C4F20001A9
:102610008842EAD1A16822F070020A439842E6DDBE
:10262000604505D040F60001C4F20001884203D1A4
:10263000216922F440720A43A36922F08001D4F890
:1026400004E0E268194360450160C262C0F828E016
:1026500002D16169CCF8301001214161002084F879
:10266000461084F83E1084F83F1084F8401084F837
:10267000411084F8421084F8431084F8441084F820
:10268000451084F83D1010BD82B0006840F600018E
:10269000C4F20001884211D0B0F1804F1BD141F249
:1026A0001C00C4F20200016841F0010101600068F1
:1026B00000F001000190019802B0704741F21C0047
:1026C000C4F20200016841F004010160006800F0FA
:1026D00004000090009802B07047000080B590F8A8
:1026E0003C20012A4FF0020200F0BF8080F83D201C
:1026F000D0F800C04FF67772DCF8083023EA020207
:10270000CCF808200B683F2B1CDD5F2B20DD602BF5
:1027100050D0B3F5005F6DD0702B40F0A080D1E9B0
:1027200001E3C968DCF8082043EA0E0322F47F4283
:1027300043EA01211143CCF80810DCF8081041F0FD
:1027400077018AE01F2B29DC63B3102B2AD086E0A7
:10275000402B63D0502B40F08280D1F804E0C96850
:10276000DCF82030DCF8202022F00102CCF8202018
:10277000DCF8182022F0F00242EA011123F00A02EC
:1027800042EA0E02CCF81810CCF82020DCF8081031
:1027900041F0570121F020015FE000BF202B01D064
:1027A000302B5CD1DCF8081021F07001194341F0A6
:1027B000070152E0D1F804E0C968DCF8203023F0CA
:1027C0001003CCF82030DCF81830DCF8202023F49B
:1027D000704322F0A00243EA013142EA0E12CCF823
:1027E0001810CCF82020DCF8081041F0670121F027
:1027F000100132E0D1E901E3C968DCF8082043EABE
:102800000E0322F47F4243EA01211143CCF8081061
:10281000DCF8081041F480411FE000BFD1F804E06B
:10282000C968DCF82030DCF8202022F00102CCF866
:102830002020DCF8182022F0F00242EA011123F0F7
:102840000A0242EA0E02CCF81810CCF82020DCF87C
:10285000081041F0470121F03001CCF808100121A7
:10286000002280F83D1080F83C20104680BD00001A
:1028700080B586B0006840F60001C4F200018842CD
:102880004FF00001CDE90411CDE9021116D0B0F1ED
:10289000804F30D141F21800C4F20200016841F0CB
:1028A000040101600068032100F004000190019818
:1028B00040F60000C4F2010015E000BF41F218002C
:1028C000C4F20200016841F00801016000684FF4A1
:1028D000707100F008000190019840F60000C4F209
:1028E000010000F580600291022103910121059110
:1028F00002A9FFF747F806B080BD00002DE9F043BC
:1029000090F83C30012B04BF0220BDE8F0834FEA71
:10291000B202032A00F2E980DFE802F0023A78B45A
:10292000036842F600461A6AC4F2010622F0010268
:102930001A621D6A1A465C6852F818CFB3428E6854
:10294000D1F800E025F0020545EA06050CD1CE6875
:10295000D1E9057824F4407425F00C0526F004062E
:102960003C43354344EA08042CF0730747EA0E075A
:102970005C609F614F6809695F631D629F6947F0F2
:1029800008079F619F6927F004079F61AAE000BFC5
:10299000036842F600461A6AC4F2010622F01002E9
:1029A0001A621D6A1A46D3F804C052F8184FB3428F
:1029B0008E68D1F800E025F0200545EA061510D113
:1029C000CE68D1E9058725F0C0096FF0400505EA1A
:1029D00006152CF4406647EA080745EA090546EA69
:1029E000870C24F4E64444EA0E27C3F804C09F6130
:1029F0004F6809699F631D629F6947F400679F6183
:102A00009F6927F480679F616BE000BF036842F60F
:102A100000461A6AC4F2010622F480721A621D6A24
:102A20001A46D3F804C052F81CEFB3428E680C6803
:102A300025F4007545EA062511D1CE68D1E9058750
:102A400025F44069360240F2FF4526EA05052CF4DC
:102A5000405647EA080745EA090546EA071C2EF0F2
:102A600073072743C3F804C0DF614F680969DF6358
:102A70001D62DF6947F00807DF61DF6927F004079F
:102A8000DF612FE0036842F600471A6AC4F20107CB
:102A900022F480521A621A46D3F820C05D6852F8B8
:102AA0001C4FD1F800E08E68BB4204D14F6925F479
:102AB000804545EA87152CF4005747EA063724F489
:102AC000E64646EA0E265D60DE614E6809691E64D0
:102AD0001F62DF6947F40067DF61DF6927F4806701
:102AE000DF610902136819431160002180F83C106E
:102AF0000846BDE8F0830000002804BF01207047AD
:102B000010B5044690F83D0028B9002084F83C0038
:102B1000204600F067F8022084F83D00206840F26B
:102B2000FF730268C4F2000342F6004C9842C4F2FC
:102B3000010C15DCB0F1804F1AD040F20041C4F214
:102B40000001884214D0984218DCB0F1804F1DD0AB
:102B500040F20041C4F20001884217D01AE000BFE1
:102B6000604505D040F60001C4F200018842EAD178
:102B7000A16822F070020A439842E6DD604505D064
:102B800040F60001C4F20001884203D1216922F419
:102B900040720A43A36922F08001D4F804E0E2689D
:102BA000194360450160C262C0F828E002D1616942
:102BB000CCF8301001214161002084F8461084F8DF
:102BC0003E1084F83F1084F8401084F8411084F8D7
:102BD000421084F8431084F8441084F8451084F8B7
:102BE0003D1010BD704700007047000070470000A6
:102BF000B0B582B0026805461068D368546900F029
:102C00002F01202903F0200106D129B1284602B066
:102C1000BDE8B04000F086BC5FEA007C1EBF04F057
:102C2000010E03F4907414EB0E0453D1296B0129A7
:102C300005D110F0100118BF13F0100136D10106B4
:102C400022D513F080011FD095F83D0021283FD1F7
:102C5000A868B0F5805F03D12869002800F0F880EB
:102C6000286A411C296200785060E88C0138010410
:102C7000E8842DD1D06820F08000D060D06840F08A
:102C80004000D06002B0B0BD400621D513F0400036
:102C90001ED0D068202120F04000D060284685F862
:102CA0003D1002B0BDE8B04000F02ABA002001900B
:102CB000106801905068019001985069400611D445
:102CC000A88DE98DEB8D002B18BF884240F0A680BF
:102CD00002B0B0BDC40718BF13F480732CD14307F2
:102CE00030D436E0A86B01684B689CB2002CEFD062
:102CF000A98D8C42ECD2EB858369202B17D0D1684B
:102D000021F48071D160516921F001015161516953
:102D100021F040015161202185F83E1000212963F6
:102D2000D16821F01001D160FEF75AFCA98DE88D21
:102D3000081A81B2284685E02B6C43F001032B640E
:102D4000430706D5BEF1000F03D02B6C43F00203FE
:102D50002B64830706D5BEF1000F03D02B6C43F024
:102D600004032B64BCF1000F09D541EA0E03B3FA4A
:102D700083F35B0903D12B6C43F008032B642B6CAA
:102D8000002BA5D010F0200018BF002903D0284642
:102D900000F0C8FB2A685069296C00F0400001F07F
:102DA000080140182CD0D06820F49070D060506991
:102DB00020F001005061286B012803D1D06820F079
:102DC0001000D060202085F83E0000202863506964
:102DD00040061DD5506920F040005061A86BB8B185
:102DE00043F27D41C0F600014163FEF71DFC00285F
:102DF0003FF46EAFA86B416B02B0BDE8B04008472E
:102E00002846FFF7F3FE0020286402B0B0BD00BFE3
:102E1000284602B0BDE8B040FFF7E8BED368401ACC
:102E200023F49073D360536981B223F0010353619B
:102E3000202385F83E3000232B63D368284623F0F7
:102E40001003D36002B0BDE8B040FFF7CDBE00BFB5
:102E5000286A30F8021B6FF35F215160286204E793
:102E6000002804BF0120704710B5044690F83D00CB
:102E700028B9002084F83C00204600F061F82420A6
:102E800084F83D002068D4E90212C36823F400539B
:102E9000C360036923F440531A430261D4E9042355
:102EA0001143C268194341F20C639A431143C16054
:102EB0004169A26921F44071114343F60002C4F252
:102EC00001029042416103D0FFF712F902E000BF16
:102ED000FFF722F96268192148439100B0FBF1F035
:102EE00048F21F51C5F2EB11A0FB01235A094FF61E
:102EF0009C73C0F6FF7302FB0300322303EB001048
:102F0000A0FB0101F02303EA5113206803EB021236
:102F1000C1F3431111448160016921F490410161C1
:102F2000416921F02A014161C16841F40051C16049
:102F300000202021206484F83D1084F83E1010BD4C
:102F4000F0B585B040F600450446C4F201050068BE
:102F5000A5F5444100278842039701D005B0F0BD94
:102F600041F21800C4F20200416801AE41F4802130
:102F70004160416801F4802100910099016841F0AD
:102F8000080101600068314600F0080000900098D8
:102F90004FF48060019002200290032004902846A4
:102FA000FEF7F0FC4FF40060CDE9010728463146FA
:102FB0000397FEF7E7FC40F244351C20C2F20005FF
:102FC000C4F202001021802285E883002846C5E96A
:102FD0000327C5E90577EF61FEF74AFC002818BF13
:102FE000FDF704FF27200021002265636C62FEF7D5
:102FF00065FE2720FEF74EFE05B0F0BD034690F8B3
:103000003E0020280AD100294FF0010018BF002AF5
:1030100000D1704793F83C00012801D1022070478D
:1030200000201863996222219A85DA85186483F852
:103030003E10196883F83C00CA6842F48072CA6086
:103040004A6942F001024A61CA6842F02002CA603D
:103050007047000040F2B411C2F2000191F8C420A0
:1030600091F8C6C00132D3B2634581F8C42004BFD1
:10307000002281F8C42091F8C42011440122FFF7F6
:10308000BDBF000070B5044690F83D00202808D16F
:103090004FF0010591B3134682B394F83C00012828
:1030A00002D1022070BD00BF012084F83C00002541
:1030B00021202162A384E384256484F83D002268F2
:1030C000606B43F2F54C43F21D5E43F28946C0F655
:1030D000000CC0F6000EC0F600060432C0E90ACEAD
:1030E000C0E90C65FEF700FC20686FF0400101604C
:1030F00084F83C50416941F080014161284670BD2F
:1031000040F2B410C2F20000002180F88C11704728
:1031100070470000FEE70000FEE70000FEE7000049
:103120007047000070470000B0B5054644F2877054
:10313000C0F600000C4600F05BFA44F28670C0F660
:10314000000000F055FA44F23571C0F6000100208D
:1031500075B300BF0A785F2A08BF0130C2B2AA4225
:1031600016D24A785F2A08BF0130C2B2AA4215D2ED
:103170008A785F2A08BF0130C2B2AA4214D2CA7844
:1031800004315F2A08BF0130C2B2AA42E2D306E08E
:103190000131C2B2AA4205D80AE000BF0231C2B270
:1031A000AA4205D9002131E00331C2B2AA42F9D8BE
:1031B0008A1C002112F8013C5F2B08BF0130C3B20A
:1031C000AB4219D813785F2B08BF0130C3B2AB42B2
:1031D00016D853785F2B08BF0130C3B2AB4213D867
:1031E000937804315F2B08BF0130C3B2AB4202F1C8
:1031F0000402DFD90AE000BF41F0010106E000BF90
:1032000041F0020102E000BF41F00301C9B2002019
:10321000002500F00DFA44F20F70C0F600000130F6
:1032200000F0E6F944F2EE60C0F6000074B3002549
:1032300001785F2908BF0135E9B2A14216D2417871
:103240005F2908BF0135E9B2A14215D281785F2913
:1032500008BF0135E9B2A14214D2C17804305F2918
:1032600008BF0135E9B2A142E2D306E00130E9B27C
:10327000A14205D80AE000BF0230E9B2A14205D957
:10328000002031E00330E9B2A142F9D8811C0020CE
:1032900011F8012C5F2A08BF0135EAB2A24219D801
:1032A0000A785F2A08BF0135EAB2A24216D84A78E6
:1032B0005F2A08BF0135EAB2A24213D88A780430E7
:1032C0005F2A08BF0135EAB2A24201F10401DFD949
:1032D0000AE000BF40F0010006E000BF40F002003D
:1032E00002E000BF40F00300C1B2002000F0A0F9EE
:1032F00044F28770C0F6000000F07AF944F286705C
:10330000C0F60000BDE8B04000F072B980B5FEF72D
:1033100059FCBDE8804000F067B80000704700002D
:1033200080B501F01F014FF0010CD0F820E00CFA3D
:1033300001F32EEA03030362036A02FA01F119435F
:10334000016280BD10B54FF0000CBBB392F800E0F5
:10335000BEF15F0F08BF0CF1010C5FFA8CFE9E45B9
:1033600022D292F801E0BEF15F0F08BF0CF1010C10
:103370005FFA8CFE9E4519D292F802E0BEF15F0F13
:1033800008BF0CF1010C5FFA8CFE9E4510D292F83A
:1033900003E00432BEF15F0F08BF0CF1010C5FFACD
:1033A0008CFE9E45D2D304E0013202E0023200E0FE
:1033B00003325FFA8CFE9E4588BF10BD12F801E90A
:1033C000441E00BF04F801EF08780130087092F83D
:1033D00002E00132BEF15F0F08BF0CF1010C5FFA91
:1033E0008CF09842EED910BD40F20C10C2F20000F1
:1033F000816811B1816801398160416A11B1416A06
:1034000001394162016C11B1016C01390164C16D76
:1034100011B1C16D0139C165816F11B1816F013980
:103420008167D0F8941021B1D0F894100139C0F818
:10343000941040F2A400C2F20000C16A11B1C16A46
:103440000139C162416B11B1416B0139416340F2F5
:103450000001C2F200010A6812B10A68013A0A606A
:10346000416A11B1416A013941628168002908BF8E
:10347000704781680139816070470000406A00210F
:10348000C185C184FFF7B2BB406A01684A6990F800
:103490003D30212B0BD112F0800208D00022C284D3
:1034A000CA6822F0C002CA60202280F83D204A6922
:1034B00090F83E30222B17D112F0400214D0002297
:1034C000C285CB6823F49073CB604B6923F0010372
:1034D0004B61036B012B03D1CB6823F01003CB604E
:1034E000202180F83E100263016C41F0100101645C
:1034F000FFF77CBB0168406A0968890648BFFFF78F
:10350000FFBD0021C1840068416921F08001416153
:10351000C16841F04001C16070470000406AFFF798
:10352000F7BD000081B090F83E10222921D18368B8
:103530000246B3F5805F09D152F8281F52F8183CB3
:10354000002B3FD003685B680AE000BF52F8281FD9
:1035500013B90369002BF5D003685B6803F07F03A0
:103560000B70116801311160C18D01390A04C185E8
:1035700002D001B0704700BF0168CA6822F0200283
:10358000CA60CA6822F48072CA604A6922F00102E5
:103590004A61202280F83E20026B012A1AD10022C3
:1035A0000263CB6823F01003CB600B68DB0605D504
:1035B00000920A680092496800910099818D01B0DB
:1035C000FFF712BB026852686FF35F2221F8022BEB
:1035D0008162C9E701B0FFF73DBD000040F2B411C0
:1035E000C2F2000191F8C42011440122FFF706BD88
:1035F000017840F2B410C2F2000090F889218318DB
:10360000013280F8892183F8C71090F8891190F869
:103610008B21914204BF002180F8891190F8891113
:1036200090F88A01081AB0FA80F04009704700004B
:1036300010B58C46F1B140F2B412C2F200024FF064
:10364000000E00BF017892F889310130D41801339F
:1036500082F8893184F8C71092F8891192F88B3179
:10366000994208BF82F889E192F8891192F88A316B
:103670009942E7D1BCF1000F18BF4FF0010C604632
:1036800010BD0000F0B5010940F247325143CC0CA7
:103690004DF6F001CFF6FF7104FB010242F2C503C3
:1036A00095B2E90859434FF618430F0DCFF6FF7353
:1036B00007FB032241F27B4196B2B6087143C1F386
:1036C000474603F5617106FB012E4CF6CD421FFA09
:1036D0008EF15143C1F3C74242F21071884244F265
:1036E0000F7C40F2B410C0F6000CC2F2000007D20A
:1036F000B5F57A7F1CD29EBB002A49D160E000BF9D
:103700000CEB440190F88931C978C418013380F872
:10371000893184F8C71090F8891190F88B3199425B
:1037200004BF002180F8891190F8891190F88A115E
:103730000CEB470190F88931C978C418013380F83F
:10374000893184F8C71090F8891190F88B3199422B
:1037500004BF002180F8891190F8891190F88A112E
:103760000CEB460190F88931C978C418013380F810
:10377000893184F8C71090F8891190F88B319942FB
:1037800004BF002180F8891190F8891190F88A11FE
:103790000CEB420190F88931C978C418013380F8E4
:1037A000893184F8C71090F8891190F88B319942CB
:1037B00004BF002180F8891190F8891190F88A11CE
:1037C00002EB8201AEEB410189B20CEB410190F8B2
:1037D0008921C9788318013280F8892183F8C710BC
:1037E00090F8891190F88B21914204BF002180F854
:1037F000891190F8891190F88A01F0BD10B540F256
:10380000B414C2F2000494F88A2194F88C1194F84C
:1038100089319A4226D0002918BF10BD94F88A1128
:1038200094F8892194F88A319142234403F1C70125
:103830000AD294F8892194F88A31D21A92B2FFF709
:1038400021FC94F8890108E094F88A2194F88B31DE
:103850009A1A92B2FFF716FC002084F88A01012020
:1038600084F88C0110BD000040F21840C2F2000044
:10387000FFF7BEB9FEE7000010B5044644F28770BA
:10388000C0F60000FFF7B4FE44F28670C0F60000F8
:10389000FFF7AEFE44F23570C0F60000002100BF15
:1038A00002785F2A08BF0131CAB2082A16D84278C6
:1038B0005F2A08BF0131CAB2082A11D882785F2A6C
:1038C00008BF0131CAB2082A0CD8C27804305F2A76
:1038D00008BF0131CAB2092AE2D304E0013002E094
:1038E000023000E003300230092100BF10F8012C43
:1038F0005F2A08BF0131CAB2092A15D802785F2AA7
:1039000008BF0131CAB2092A0ED842785F2A08BF1F
:103910000131CAB2092A07D8827804305F2A08BF69
:103920000131CAB20A2AE1D300200521FFF780FE47
:103930002046FFF7A7FE44F28770C0F60000FFF7AD
:1039400057FE44F28670C0F60000BDE81040FFF755
:103950004FBE000010B5044644F28770C0F6000068
:10396000FFF746FE44F28670C0F60000FFF740FE07
:1039700044F23570C0F60000002100BF02785F2AD3
:1039800008BF0131CAB2092A16D842785F2A08BF97
:103990000131CAB2092A11D882785F2A08BF0131E1
:1039A000CAB2092A0CD8C27804305F2A08BF013194
:1039B000CAB20A2AE2D304E0013002E0023000E099
:1039C000033002300A2100BF10F8012C5F2A08BF23
:1039D0000131CAB20A2A15D802785F2A08BF01311C
:1039E000CAB20A2A0ED842785F2A08BF0131CAB289
:1039F0000A2A07D8827804305F2A08BF0131CAB288
:103A00000B2AE1D300200721FFF712FE2046FFF723
:103A100039FE44F28770C0F60000FFF7E9FD44F27A
:103A20008670C0F60000BDE81040FFF7E1BD000061
:103A30009AB0FEF7D5F810AC201D2421FCF7C4FB8A
:103A4000022010900120149010200025159020468F
:103A50000995CDE907551795FEF772FB20B1EFF3F5
:103A6000108072B6FEE700BF0F20CDE90B054FF4C2
:103A70008060CDE90E050BA800210D95FEF758FAE0
:103A800020B1EFF3108072B6FEE700BF02240025DC
:103A900006A806940895FEF7C5F928B1EFF3108043
:103AA00072B600BFFEE700BF41F2180AC4F2020A74
:103AB000CDE91255DAF8000040F6004B40F0100056
:103AC000CAF80000DAF80000C4F2010B00F01000A0
:103AD0000B900B98DAF800004FF4804140F0200082
:103AE000CAF80000DAF80000002200F020000B9075
:103AF0000B98DAF800004FF4804940F00400CAF84F
:103B00000000DAF8000000F004000B900B98DAF8DF
:103B1000000040F00800CAF80000DAF8000000F0E9
:103B200008000B900B985846FEF740F84FF46040A1
:103B300010AE109003270BF5806031461197FDF70A
:103B400021FF0BF500603146CDE91077FDF71AFF34
:103B500049F6E460ABF58068CDE910074046314690
:103B6000FDF710FF43F23F00CDE9100758463146FC
:103B7000FDF708FF0120CDE9110558463146CDF883
:103B800040901394FDF7FEFE4FF40040CDE9100580
:103B9000584631461295FDF7F5FE4FF48070CDE999
:103BA0001005404631461295FDF7ECFE0420C4F2A4
:103BB000010001684FF47A7341F0E06141F4004183
:103BC000016040F28830C2F200004FF080410E9553
:103BD000CDE90C55CDE90655CDE91555CDE913557F
:103BE000072280E82600C0E903358561FEF7D6FC90
:103BF00020B1EFF3108072B6FEE700BF4FF48050A3
:103C00000B9040F28830C2F200000BA9FEF766FD6F
:103C100020B1EFF3108072B6FEE700BF40F28830AB
:103C2000C2F20000FEF768FF20B1EFF3108072B619
:103C3000FEE700BF40F28830C2F2000006A9FEF79E
:103C40006FFC28B1EFF3108072B600BFFEE700BF33
:103C5000602010900020CDE91100149040F28830CF
:103C6000C2F2000010A90022FEF748FE20B1EFF3D7
:103C7000108072B6FEE700BF40F28830C2F200004A
:103C800010A90422FEF73AFE20B1EFF3108072B6BD
:103C9000FEE700BF40F28839C2F2000940F6000694
:103CA0004846C4F20006FEF7E3FD40F2D0300021A2
:103CB000C2F2000007224FF47A730E91CDE90C1185
:103CC000CDE90611CDE91511CDE91311C0E9006266
:103CD000C0E9021301618161FEF760FC20B1EFF3DE
:103CE000108072B6FEE700BF4FF480500B9040F298
:103CF000D030C2F200000BA9FEF7F0FC20B1EFF3C8
:103D0000108072B6FEE700BF40F2D030C2F2000071
:103D1000FEF7F2FE20B1EFF3108072B6FEE700BFAF
:103D200040F2D030C2F2000006A9FEF7F9FB18B14C
:103D3000EFF3108072B6FEE7602010900020CDE90E
:103D40001100149040F2D030C2F2000010A90022FD
:103D5000FEF7D4FD20B1EFF3108072B6FEE700BF8E
:103D600040F2D030C2F2000010A90422FEF7C6FDD6
:103D700020B1EFF3108072B6FEE700BF40F2D03002
:103D8000C2F2000010A90822FEF7B8FD20B1EFF33F
:103D9000108072B6FEE700BF40F2D030C2F20000E1
:103DA00010A90C22FEF7AAFD20B1EFF3108072B625
:103DB000FEE700BF40F2D030C2F20000FEF758FD2F
:103DC00040F2A404C2F2000443F20001C4F2020172
:103DD000204640F8141FFDF7D3FB18B1EFF3108015
:103DE00072B6FEE70BF5C0512046002540F8381F9B
:103DF0004FF480714FF46022022715950573057505
:103E0000C261C0E901510761FDF7D0FA20B1EFF3BB
:103E1000108072B6FEE700BF032001211090CDE9AB
:103E200011104FF4E040169004F1380010A91497D7
:103E300013950190FDF76AF820B1EFF3108072B688
:103E4000FEE700BF0420109002201190019810A9F5
:103E5000FDF75CF820B1EFF3108072B6FEE700BF0B
:103E60005AF8040C002140F001004AF8040C5AF8FA
:103E7000040C002200F00100109010980C200C257A
:103E80000027FDF71BFF0C20FDF704FF40F2184050
:103E900006F58041C2F200004FF4E13280E886006E
:103EA000C0E90377C0E90557C761FEF7D9FF18B12C
:103EB000EFF3108072B6FEE70198FCF79DFF40F229
:103EC000D035C2F2000528680122016841F00101E5
:103ED000016030460021FFF723FA30460421012219
:103EE000FFF71EFA304608210122FFF719FA304683
:103EF0000C210122FFF714FAD9F800000122016811
:103F000041F0010101604FF080400021FFF708FA05
:103F10004FF0804004210122FFF702FA40F20C1A10
:103F20002A68C2F2000A00270A2614214FF4FA7503
:103F30006420D9F800C0CAF80070CAF80470CAF842
:103F40000C60CAF81010AAF814508AF81A00CAF8BF
:103F50000870DAF800305363CAF81C70CAF8207091
:103F6000CAF82860CAF82C10AAF830508AF836002F
:103F7000CAF82470DAF81C309363CAF83870CAF8AB
:103F80003C70CAF84460CAF84810AAF84C508AF845
:103F90005200CAF84070DAF83830D363CAF8547067
:103FA000CAF85870CAF86060CAF86410AAF8685075
:103FB0008AF86E00CAF85C70DAF854301364CAF8F4
:103FC0007070CAF87470CAF87C60CAF88010AAF8D9
:103FD00084508AF88A00CAF87870DAF87020CCF831
:103FE0003420CAF88C70CAF89070CAF89860CAF881
:103FF0009C10AAF8A0508AF8A600CAF89470DAF8C3
:104000008C1040F21840C2F20000CCF8381027772C
:10401000A77727626762A770E7702771FFF7DEFA5C
:1040200000200590002000900020029000200490C5
:104030000020039003E000BF0590CDE9035640F255
:104040001840C2F20000FFF7D9FBFCF7AFF940F2CD
:10405000D031C2F20001D9F800000968DAF808206E
:10406000A2BBDAF80020DAF804309A4202D14FF607
:10407000FF7229E0DAF80470DAF80060DAF800205C
:10408000DAF80C30B7420BDDDAF804701A44BA42A1
:104090000EDADAF80C20DAF800301A440DE000BF2E
:1040A0009A4209DDDAF80C20DAF800309A1A04E0B6
:1040B000DAF8042001E000BF0022CAF80020DAF894
:1040C00000204A63DAF81020CAF80820DAF8242021
:1040D000A2B1DAF84020002A4AD0DAF85C20002A9F
:1040E00000F08180DAF87810002900F0B680DAF864
:1040F0009410002940F01E81E7E000BFDAF81C2090
:10410000DAF820309A4203D14FF6FF722AE000BF5E
:10411000DAF82070DAF81C60DAF81C20DAF82830B7
:10412000B7420BDDDAF820701A44BA420EDADAF838
:104130002820DAF81C301A440DE000BF9A4209DD4D
:10414000DAF82820DAF81C309A1A04E0DAF820208D
:1041500001E000BF0022CAF81C20DAF81C208A63A4
:10416000DAF82C20CAF82420DAF84020002AB4D14A
:10417000DAF83820DAF83C309A4203D14FF6FF7271
:104180002AE000BFDAF83C70DAF83860DAF8382054
:10419000DAF84430B7420BDDDAF83C701A44BA4220
:1041A0000EDADAF84420DAF838301A440DE000BFAD
:1041B0009A4209DDDAF84420DAF838309A1A04E035
:1041C000DAF83C2001E000BF0022CAF83820DAF813
:1041D0003820CA63DAF84820CAF84020DAF85C20B0
:1041E000002A7FF47FAFDAF85420DAF858309A4288
:1041F00002D14FF6FF7129E0DAF85870DAF854600E
:10420000DAF85420DAF86030B7420BDDDAF858708B
:104210001A44BA420EDADAF86020DAF854301A4456
:104220000DE000BF9A4209DDDAF86020DAF8543078
:104230009A1A04E0DAF8582001E000BF0022CAF818
:104240005420DAF854200A64DAF86410CAF85C10D2
:10425000DAF8781000297FF44AAFDAF87010DAF84B
:104260007420914202D14FF6FF7129E0DAF87430E0
:10427000DAF87070DAF87010DAF87C20BB420BDDE7
:10428000DAF87430114499420EDADAF87C10DAF870
:10429000702011440DE000BF914209DDDAF87C1076
:1042A000DAF87020511A04E0DAF8741001E000BF67
:1042B0000021CAF87010DAF870104163DAF8801043
:1042C000CAF87810DAF89410A1BBDAF88C10DAF892
:1042D0009020914202D14FF6FF7029E0DAF8903039
:1042E000DAF88C70DAF88C10DAF89820BB420BDD23
:1042F000DAF89030114499420EDADAF89810DAF8C8
:104300008C2011440DE000BF914209DDDAF89810CD
:10431000DAF88C20511A04E0DAF8901001E000BFBE
:104320000021CAF88C10DAF88C108163DAF89C004E
:10433000CAF8940040464FF48071FDF731FC0746FF
:104340000138B0FA80F0460958464FF40041FDF7B5
:1043500027FC012F09D10499C9B2B14205D001212E
:1043600084F8281047F23051E1620138B0FA80F049
:104370004FEA501509D10398C0B2A84205D00120D8
:1043800084F8300047F230506063E06A48B994F82E
:104390002800012805D1002084F828004FF4FA7085
:1043A000E062606B48B994F83000012805D1002024
:1043B00084F830004FF4FA706063207F01280AD13E
:1043C000206A40B9606A30B9002020770120A077C8
:1043D0004EF660206062207F30B9206A20B1012053
:1043E0002077A07700206062A07F01280FD1606A4B
:1043F00068B90020A077207F4FF480410138B0FADF
:1044000080F0470958463A46FDF7D0FB677740F2FF
:104410000000C2F20000006800284FD10298C0B22C
:1044200002280FD0012841D0002847D10198FCF77D
:10443000ABFE40F200010A20C2F200010860012038
:104440003BE000BF019F01213846FCF789FE40F2A6
:104450000001C2F20001488138460221FCF780FECB
:1044600040F20001208240F2C670C2F200010860F2
:104470003846FCF7E5FE40F27C00C2F2000000681E
:1044800081050BD540F20000C2F200004089FFF721
:10449000F3F940F27C00C2F200000068400502D54A
:1044A000208AFFF757FA002007E000BF2078002895
:1044B00000F0FC80002020700220029040F20000FA
:1044C000C2F20000408928B340F20007C2F20007A0
:1044D000F988BA883B89490801EB52015A0802EB76
:1044E0005101420802EB5101388140F6A13081426E
:1044F0004FF00000B980FB80788106D8206A40F038
:104500008000206247F23050A060A06810B9206A95
:1045100000202062208AF8B1E189A289490801EBD4
:104520005201059A490801EB5001E081D0B20128FF
:104530001046A18108BF0220B1F5FA6F28BF1046CE
:1045400040F6FD0291424FF00001218205D3C1B235
:10455000032911D001E000BF0598C1B204290590DC
:10456000CDE903563FF66BAD01220592DFE801F07D
:10457000065E5710040000BF01205DE50098C0B240
:104580000A284FD0002804BF0A20009000204CE0E9
:10459000216A94F82800C9072AD10321012805912E
:1045A000CDE903567FF44BAD94F830000321012888
:1045B0000591CDE903567FF442AD206A40F0010039
:1045C0002062BAF81800CAF80400BAF83400CAF831
:1045D0002000207F00284FF0000008BF4FF4C87073
:1045E000CAF80800DAF80800CAF8240017E000BF8B
:1045F000032100280591CDE903567FF420AD94F8FE
:104600003000032100280591CDE903567FF417AD52
:104610000021CAF80410CAF82010206A2162032081
:104620000AE500BF0020009001200590216A94F85F
:104630002800C90726D10128CDE903567FF4FFAC35
:1046400094F83000CDE9035601287FF4F8AC206AD5
:1046500040F001002062BAF81400CAF80400BAF869
:104660003000CAF82000207F00284FF0000008BF6B
:104670004FF4C870CAF80800DAF80800CAF8240035
:10468000DBE400BF0028CDE903567FF4D8AC94F8F2
:104690003000CDE9035600287FF4D1AC0021CAF8E0
:1046A0000410CAF82010206A2162C6E46078411C18
:1046B0000A2861707FF6BDAE00210020617040F2D3
:1046C000000102906420C2F2000108600198FCF72A
:1046D000B7FDF3E601020000000000000000010247
:1046E00003040607080900000000010203045F44F8
:1046F000495341424C455F454E41424C455F45520E
:10470000524F525F4F46465F4F4B5F4F4E5F005FC9
:10471000205F305F315F325F335F345F355F365F1C
:10472000375F385F395F415F425F435F445F455F9A
:10473000465F2E5F005F3F5F52454C41595F4C45DD
:1047400044315F4C4544325F4C4544335F4C4544F3
:10475000345F4C4544355F4C4544365F56424154C6
:104760002053484F575F56534F4C41522053484FA8
:10477000575F54494D452053484F575F54494D4565
:10478000205345545F000A0D02030405060708097B
:104790000A0B0C0D0E0F1010B84700080000002087
:1047A0001800000028010008D04700081800002069
:1047B000480A000044010008E8030000E40CE40C8F
:1047C000E40C000001000000100000000024F400D0
:04000005080000ED02
:00000001FF
